:020000040800F2
:1000000068050020C10100083B3F00082F180008C8
:10001000393F00082D060008C9460008000000000E
:100020000000000000000000000000003F3F00084A
:100030002F060008000000003D3F0008413F000877
:10004000DB010008DB010008DB010008DB01000820
:10005000DB010008DB010008DB010008DB01000810
:10006000DB010008DB010008DB010008DB01000800
:10007000DB010008DB010008DB010008DB010008F0
:10008000DB010008DB010008F9040008DB010008BF
:10009000DB010008DB010008DB010008DB010008D0
:1000A000DB010008DB010008DB010008DB010008C0
:1000B000DB010008DB010008DB010008DB010008B0
:1000C000DB010008DB010008DB010008DB010008A0
:1000D000DB010008DB010008DB010008DB01000890
:1000E000DB010008DB010008DB010008DB01000880
:1000F000DB010008DB010008DB010008DB01000870
:10010000DB010008DB010008DB010008DB0100085F
:10011000DB010008DB010008DB010008DB0100084F
:10012000DB010008DB010008DB010008DB0100083F
:10013000DB010008DB010008DB010008DB0100082F
:10014000DB010008DB010008DB010008DB0100081F
:10015000DB010008DB010008DB010008DB0100080F
:10016000DB010008DB010008DB010008DB010008FF
:10017000DB010008DB010008DB01000800000000D3
:10018000DB010008DB010008DB010008DB010008DF
:10019000DB010008DB010008DB010008DB010008CF
:1001A000DB010008DB010008DB010008DFF80CD0F0
:1001B00000F070F900480047A14B000868050020D6
:1001C0000648804706480047FEE7FEE7FEE7FEE7F1
:1001D000FEE7FEE7FEE7FEE7FEE7FEE7CD3F0008AD
:1001E000AD0100082DE9F05F0546002092469B46D0
:1001F00088460646814640241BE02846414647463D
:10020000224600F0D9F853465A46C01A914110D3FD
:1002100011461846224600F0C0F82D1A67EB010877
:100220004F4622460120002100F0B7F817EB0009E5
:100230004E41201EA4F10104DFDC484631462A4627
:100240004346BDE8F09FD2B201E000F8012B491E01
:10025000FBD270470022F6E710B513460A46044663
:100260001946FFF7F0FF204610BD2DE9FE4F81EA49
:10027000030404F0004421F0004100944FF0000B0F
:1002800023F0004350EA01045ED052EA03045BD03D
:10029000C3F30A54C1F30A552C44A4F2F334019475
:1002A000A0FB0254C1F3130141F48011C3F3130303
:1002B00043F4801301FB024400FB034E840A970AB7
:1002C00044EA815447EA8357A4FB076802958D0AE4
:1002D00005FB07854FEA932C04FB0C542705029D70
:1002E0004FEA065847EA1637B5EB08056EEB070CE0
:1002F000870E920E47EA811742EA8312A7FB02019A
:10030000B6EB0B0164EB00042B0D43EA0C335E18D3
:1003100044EB1C50DA465146E7FB0201C5F31304D7
:100320004FEA0B3343EA14534FEA0432019C43EA89
:100330000603A4F10C040294009CCDE900B400F083
:100340005AF803B0BDE8F08F00200146F9E70EB57A
:1003500040F2334102910021CDE900110A460B46DB
:1003600000F049F803B000BDC1F30A5210B5C1F363
:10037000130140F2FF3341F480119A4201DA002068
:1003800010BD40F233439A42A2F2334203DC5242A0
:1003900000F012F810BD904010BD202A04DB203A76
:1003A00000FA02F1002070479140C2F1200320FAC8
:1003B00003F3194390407047202A04DB203A21FAC6
:1003C00002F00021704721FA02F3D040C2F120026E
:1003D000914008431946704710B5141E73F100048C
:1003E00008DA401C41F1000192185B411A4301D127
:1003F00020F0010010BD2DE9F04D92469B4611B151
:10040000B1FA81F202E0B0FA80F220329046FFF7B2
:10041000C4FF04460F4640EA0A0041EA0B01534676
:100420005A46084313D0114653EA010019D0C8F1C7
:1004300040025046FFF7C0FF05460E46504659465B
:100440004246FFF7AAFF084305D0012004E02046FA
:100450003946BDE8F08D0020054346EAE0762C439E
:1004600037430A986305E40AA0EB08000022FD0A5E
:1004700044EA47540A3002D500200146E9E7010565
:1004800010196941DDE9084500196941BDE8F04DE1
:10049000A2E70000064C074D06E0E06840F00103CB
:1004A00094E8070098471034AC42F6D3FFF782FE79
:1004B000B0930008D093000810B50D4800F04AFB37
:1004C0000A210B4800F0F4FA68B9094800F0ECF989
:1004D00008494FF4A572088010FB02F0C21700EB28
:1004E000125000134880BDE81040014800F0A8BB3E
:1004F0009000002008000020014800F0D8B900005A
:1005000090000020464910B54A6822F440324A6003
:100510004A6843681A434A6001684A6822F4807254
:100520004A6001684A68036942EA03224A60016836
:100530004A6822F040724A6001684A6883681A4338
:100540004A6001688A6822F400628A6001688A68E9
:10055000C3681A438A60816A6FF07062D142016891
:100560008A6822F070628A6001688A680CD0836AA7
:100570001A438A6001688A6822F040528A600168E2
:100580008A68C36A1A4301E022F040528A60016817
:100590008A6822F002028A6001688A68037E42EA61
:1005A00043028A6090F82010002901684A680FD041
:1005B00042F400624A6001684A6822F460424A607C
:1005C00001684A68174C436A04EB43331A4301E05D
:1005D00022F400624A600168CA6A22F47002CA62A8
:1005E0000168CA6A838B104C04EB03531A43CA6236
:1005F00001688A6822F400728A6001688A6890F84B
:10060000303042EA43228A6001688A6822F48062BC
:100610008A6001688A68406942EA8020886010BD6B
:100620000023014000E0FFFF0000F0FFFEE77047FD
:100630007047000070B5B3F5804F05D06FF0704182
:1006400040F82210002070BD50F82240084B8E89DF
:100650001C40D1E9003543EA05138D6889692D02F4
:1006600045EA06452B430B43234340F82230E9E794
:100670000000F0CFF0B50C6850F82430174A134052
:10068000D1E90125D1E903672A433E4332434E694C
:1006900032438E693243CE6932430E6A32434E6A28
:1006A00032438E6A3243CE6A3243CE6B32430E6B94
:1006B00032434E6B32431A43082D01D142F04002BF
:1006C00040F824204A6BB2F5801F05D1096819B1A2
:1006D000016841F4801101600020F0BD8000E0FF5E
:1006E000F0B500EB8204626802F04045D1E90023D6
:1006F00042EA03128B688E891B0243EA06431A43BF
:100700000E8A0D4B03EB065632430E7D5F0107EB5D
:10071000066632438E6932432A4362600268D2021F
:1007200007D54268098A22F4700203EB0151114394
:1007300041600020F0BD00000000F0FF70470000A5
:1007400078B50024009490F83C20012A19D00122A9
:1007500080F83C200A6807230568092A13D9EE6847
:100760000A3A02EB420293409E43EE600B788A689D
:100770000A3B03EB43039A400368DD682A43DA60CF
:1007800010E0022078BD2E6902EB420293409E43A6
:100790002E610B788A6803EB43039A4003681D6956
:1007A0002A431A614A681F23072A13D205686E6B11
:1007B000521E02EB820293409E436E630A8893B2FC
:1007C0000A79521E02EB820293400268556B2B435A
:1007D000536327E005680D2A12D22E6BD21F02EB5D
:1007E000820293409E432E630B790A88DB1F92B2EC
:1007F00003EB83039A4003681D6B2A431A6311E0DD
:10080000EE6A0D3A02EB820293409E43EE620B7950
:100810000A880D3B92B203EB83039A400368DD6ABA
:100820002A43DA621B4B0568194A9D420AD10D68BA
:10083000122D07D1556825F400055560556845F41B
:100840008005556005689D421DD1134D0B68AB4274
:1008500001D0112B17D1536823F4800353605368E0
:1008600043F4000353600968A9420CD10B490C4AB8
:100870000968B1FBF2F101EB8101490000E0491E7A
:1008800000910029FBD180F83C40002078BD000099
:100890000023014000200140120000103000002021
:1008A00040420F00704770470068C06C704770B5D9
:1008B0000446006801684268C1F34001C2F3401277
:1008C00051B34AB3216CC90603D4216C41F40071C1
:1008D0002164816811F0405F17D1217EA9B9C16AF6
:1008E00011F4700F02D0816849050ED4416821F0DF
:1008F00020014160206C20F480702064206CC004D2
:1009000003D4206C40F0010020642046FFF7CAFFAA
:1009100021686FF012000860206801684268C1F326
:100920008001C2F3C01289B382B3216CC90603D41B
:10093000216C41F400512164816811F4401F1ED1E3
:10094000816B11F4401F02D08168490517D44168BA
:10095000490514D4816811F0405F10D1217E71B92E
:10096000416821F080014160206C20F480502064B7
:10097000206CC00503D4206C40F0010020642046A8
:10098000FFF7DCFE21686FF00C000860206801684A
:10099000426811F0010FC2F380120ED06AB10068F4
:1009A000C0070AD0206C40F480302064204600F05C
:1009B00046F821686FF0010008602068016842680D
:1009C000C1F34011C2F3806200290DD0002A0BD080
:1009D000616C41F0020161646FF020050560204602
:1009E000FFF761FF2068056070BD70B504004FF02F
:1009F000000503D0206C002610B107E0012070BD77
:100A0000204600F01DF8666484F83C60206CC00647
:100A100010D4206C20F4885040F00200206420465E
:100A2000FFF770FD6664206C20F0020040F00100CA
:100A3000206400E0012584F83C60284670BD7047C2
:100A400010B586B0044614216846FFF703FC15492B
:100A50002068884224D114480021026842F4807240
:100A60000260006800F4807005900F481438026836
:100A700042F001020260006800F0010005902020B1
:100A800000900320CDE901016946084800F05AF9B9
:100A900000221146122000F0BBFA122000F0AAFA40
:100AA00006B010BD00200140443802400000024062
:100AB0002DE9F041044600680D4681684FF00007BB
:100AC00049050BD58068C00508D5206C40F0200092
:100AD000206484F83C700120BDE8F08100F028FA21
:100AE00006460FE0681C0DD025B100F021FA801BEE
:100AF000A84207D9206C40F00400206484F83C70C0
:100B00000320E9E7206800688007EBD521686FF0D3
:100B100012000860206C40F4007020642068816836
:100B200011F0405F13D1217E89B9C16A11F4700FB1
:100B300002D0806840050AD4206C20F480702064C4
:100B4000206CC00403D4206C40F00100206400201D
:100B5000C2E7000018B50021009190F83C20012A5E
:100B600007D0012280F83C2002689368DB0702D09E
:100B700011E0022018BD936843F0010393602A4AF4
:100B80002A4B1268B2FBF3F202EB420200E0521E63
:100B90000092002AFBD102689368DB0741D0036C06
:100BA00040F20164A34343F48073036453685B051C
:100BB00005D5036C23F4005343F480530364036CA2
:100BC000DB0404D5436C23F00603436400E0416476
:100BD00080F83C1016496FF02203136049680068E2
:100BE000CA06144906D088421BD1816811F0405FC3
:100BF00013D016E08842F8D00F4A904203D1D1F8C2
:100C00000423D206F1D00D4A90420AD1D1F8041340
:100C100001F01F011029E8D303E0816841F0804111
:100C20008160002018BD00003000002040420F000D
:100C3000002301400020014000210140002201402A
:100C400090F83C1001290CD0012180F83C1001687B
:100C50008A6822F001028A6001688968C90702D0A7
:100C600007E002207047016C21F4885141F0010136
:100C70000164002180F83C100846704770B50446B6
:100C800000F056F90546601C02D004480078044480
:100C900000F04EF9401BA042FAD370BD24000020A2
:100CA00010B5044600F0B8FA0849B0FBF1F000F0C6
:100CB000E6FC2046FFF7E2FF00F0AEFA4FF47A714F
:100CC000B0FBF1F0BDE8104000F0D9BC40420F008D
:100CD000F0B587B014216846FFF7BCFA15480168E3
:100CE000002924D10121016013480024016841F04A
:100CF000010101600068022500F0010005904FF637
:100D00008070CDE9000502AA03260C2782E8D000F6
:100D100069460A4800F016F84EF2B370CDE90005B6
:100D200002AA694682E8D000054800F00BF807B037
:100D3000F0BD00001C0000203838024000100240C6
:100D4000000C02402DE9F84F00224FF00108032566
:100D50004FF00F0E0B6808FA02F42340A3426ED145
:100D60004E68012E05D0022E03D0112E01D0122E76
:100D700012D186684FEA420C05FA0CF7BE43CF68E1
:100D800007FA0CF7374387604668A6430C79C4F32B
:100D90000014944034434460C668570005FA07FCC9
:100DA0008C6826EA0C06BC403443C4604C68022CB4
:100DB00001D0122C13D1D40800EB8404A346D4F83C
:100DC000209054074FEAD46A0EFA0AF629EA060977
:100DD0000E6906FA0AF646EA0906CBF820600468AE
:100DE0000E7924EA0C0406F00306BE402643066092
:100DF0004C68E4006FD53B4C266846F4804626607C
:100E0000246822F0030604F480440094364C3444F1
:100E1000A446D4F808489607360F0EFA06F7BC43E6
:100E2000324FB84201D100272EE0314FB84201D1F4
:100E3000012729E02F4FB84202D1022724E04AE0DF
:100E40002D4FB84201D103271EE02C4FB84201D1EB
:100E5000042719E02A4FB84201D1052714E0294F91
:100E6000B84201D106270FE0274FB84201D107272A
:100E70000AE0264FB84201D1082705E0244FB842C6
:100E800001D1092700E00A27B7402743CCF80878AA
:100E9000204E34684F689C43FF0300D51C433460E8
:100EA0001C4E361D34684F689C43BF0300D51C435D
:100EB0003460184E083634684F689C43FF0200D5F2
:100EC0001C433460134E0C3634684F689C43BF0299
:100ED00000D51C433460521C102AFFF43BAFBDE820
:100EE000F88F00004438024000300140000002400A
:100EF0000004024000080240000C024000100240C2
:100F00000014024000180240001C02400020024071
:100F100000240240003C0140426931EA020200D153
:100F20000904816170470AB1816170470904FBE7D8
:100F30000148806870470000240000200248816852
:100F40000278114481607047240000200B4810B5DE
:100F5000016841F400710160016841F48061016041
:100F6000016841F480710160032000F071F80020F5
:100F700000F006F800F024F8002010BD003C02400C
:100F800070B50D4D04464FF47A712878B1FBF0F03E
:100F90000A490968B1FBF0F000F071FB48B9102C68
:100FA00007D200222146501E00F032F800206C606B
:100FB00070BD012070BD0000240000203000002022
:100FC0000B4882B0016841F480410160006800F480
:100FD000804000900648001F016841F08051016088
:100FE000006800F080500090052002B000F030B89A
:100FF00044380240002809DB00F01F020121914023
:101000004009800000F1E020C0F8001170470000A6
:10101000F0B40E4B1B680C46C3F30223C3F1070563
:10102000042D00D90425191D072901D2002300E051
:10103000DB1E012606FA05F1491E214099409E401B
:10104000761E16403143F0BC03F054BB0CED00E0BB
:10105000064900F0070208684FF6FF03184040EA0F
:101060000220034A10430860704700000CED00E0C6
:101070000000FA052DE9F8431748016841F0805156
:1010800001600068154F00F08050012600903E641A
:10109000FFF74EFF05464FF47A78114C05E000BF8C
:1010A000FFF746FF401B40450DD86068C003F7D5E9
:1010B0007E64FFF73DFF0546464607E0FFF738FF31
:1010C000401BB04202D90320BDE8F883606880036A
:1010D000F4D50020F8E700004038024000000E423E
:1010E000007000402DE9F0470E46050065D0DFF89E
:1010F0001481D8F80000F7B200F00F00B04207D218
:1011000088F80070D8F8000000F00F00B04254D109
:1011100028683D4C810712D5400703D5206840F46C
:10112000E05020602878000703D5206840F4604034
:1011300020602068A96820F0F0000843206028782B
:10114000C0072DD0304968680839012812D002281C
:1011500013D0032811D00968890700292DDA2168E6
:1011600021F0030101432160FFF7E2FE814641F2D5
:10117000883A0EE009688903EFE709688901ECE71E
:10118000FFF7D6FEA0EB0901514502D90320BDE8C7
:10119000F0872068696800F00C00B0EB810FEFD198
:1011A000D8F80010404601F00F01B14207D907708E
:1011B000006800F00F00B04201D00120E7E7287876
:1011C000400705D52068E96820F4E0500843206016
:1011D0002878000706D52068296920F4604040EA95
:1011E000C100206000F03EF82168084AC1F30311F5
:1011F000515CC8400649086006480068FFF7C0FE19
:101200000020C4E7003C02400838024098930008E0
:1012100030000020280000200148006870470000CE
:10122000300000200448054900680968044AC1F3F9
:101230008221515CC84070473000002008380240CD
:10124000A89300080448054900680968044AC1F3E6
:101250004231515CC84070473000002008380240DD
:10126000A8930008154810B5006810F00C02144847
:1012700013D01449042A0FD0082A0ED10F4C241F72
:101280002268236802F03F025B0207D52068C0F3A2
:101290008810A0FB010106E0084610BD2168C1F3DB
:1012A0008811A1FB00010023FEF79CFF2168C1F318
:1012B0000141491C4900B0FBF1F010BD0838024063
:1012C0000024F40040787D012DE9F84F04006ED031
:1012D0002078DFF83C93C007A9F104054AD009F152
:1012E00004000168C1F38101012908D00068C0F33E
:1012F000810002280AD1D9F80000400206D52868EA
:10130000800337D560680028E1D033E06068B0F52D
:10131000803F10D0B0F5A02F286810D020F4803086
:101320002860286820F4802028606068A8B1FFF752
:10133000FFFD06460DE0286840F48030F4E740F4F5
:1013400080202860F7E700BFFFF7F2FD801B6428CC
:1013500073D828688003F7D50CE0FFF7E9FD06464F
:1013600005E000BFFFF7E4FD801B6428F0D8286883
:101370008003F7D42078DFF89C8280074FF0000AC2
:101380003ED5A348001D016811F00C0F08D000687D
:10139000C0F3810002280BD1D9F80000400207D425
:1013A0002868800716D5E068012800D112E02BE1FB
:1013B000E068B8B10120C8F80000FFF7B9FD0646A3
:1013C00005E000BFFFF7B4FD801B0228C0D82868E5
:1013D0008007F7D52868216920F0F80040EAC100AD
:1013E00028600DE0C8F800A0FFF7A2FD064604E063
:1013F000FFF79EFD801B02281FD828688007F7D4BE
:101400002078000722D5824E83486169703671B119
:1014100001210160FFF78CFD074604E0FFF788FD1E
:10142000C01B022809D830688007F7D50EE0C0F845
:1014300000A0FFF77DFD074605E082E0FFF778FD9D
:10144000C01B02287DD830688007F7D42078400779
:1014500068D5DFF8BCB100270BF13C0BDBF80000CE
:10146000C0000BD4DBF8001041F08051CBF8001025
:10147000DBF80000012700F080500090674E3068D4
:10148000C00510D4306840F480703060FFF750FD24
:10149000009005E0FFF74CFD0099401A022850D853
:1014A0003068C005F6D55A4EA0686C3601280FD0BA
:1014B0000528306810D020F001003060306820F03E
:1014C00004003060A068B8B1FFF732FD00900FE073
:1014D000306840F00100F4E740F004003060F7E7C6
:1014E000FFF726FD0099411A41F28830814266D803
:1014F00030688007F4D50EE0FFF71AFD009007E092
:10150000FFF716FD0099411A41F28830814256D802
:1015100030688007F4D42FB1DBF8001021F080513F
:10152000CBF80010A069C8B33949091D0968C1F397
:10153000810102294AD00228504607D0C8F860002D
:1015400000E03CE0FFF7F4FC04463BE04746C8F807
:101550006000FFF7EDFC064605E000BFFFF7E8FC82
:10156000801B02282BD828688001F7D4D4E9070112
:101570000843A16A2A4A490802EB0141626A41EA2A
:101580008211084394F82C1040EA0161C9F8001058
:1015900001203866FFF7CCFC044606E036E000BFC9
:1015A000FFF7C6FC001B022809D828688001F7D580
:1015B0002CE000BFFFF7BCFC001B022802D903206F
:1015C000BDE8F88F28688001F4D41FE00128F7D027
:1015D000D9F80000E26900F48001914214D1226A36
:1015E00000F03F0191420FD147F6C071626A01409D
:1015F000914209D1A26A00F44031914204D1E16ADA
:1016000000F07060884201D00120D9E70020D7E7C0
:101610000438024000004742800E474200700040FC
:101620000000FFFF70B515460E46040003D094F885
:10163000490010B107E0012070BD002084F8480087
:10164000204600F01AF804F108012068FFF712F8AC
:101650003146A2682068FFF743F8D4E90102294621
:10166000236BFEF7E7FFA168206850F8212042F0C5
:10167000010240F82120002070BDFFF729BB10B502
:10168000401EB0F1807F01D3012010BD4FF0E02457
:1016900060610F21601703F02DF80020A061072082
:1016A0002061002010BD70B5040004D094F839000A
:1016B000002510B106E0012070BD84F838502046A6
:1016C00000F022F8242084F839002068C16821F451
:1016D0000051C160204602F0EBFE2068016921F450
:1016E000904101612068416921F02A01416120682F
:1016F000C16841F40051C160E563202084F83900DD
:1017000084F83A00002070BD10B586B0044614215C
:101710006846FEF79FFD14492068884221D113488E
:101720000021026842F010020260006800F0100020
:1017300005900E481438026842F001020260006809
:1017400000F0010005904FF4C06000900220CDE948
:101750000101032003900720049069460448FFF725
:10176000F1FA06B010BD00000010014044380240FC
:10177000000002402DE9F843044690F839001F4666
:1017800016460D46202850D1B5B1AEB194F83800B8
:1017900001284AD0012084F838004FF00008C4F82E
:1017A0003C80212084F83900FFF7C2FBA6848146E3
:1017B000E68484F8388026E00120BDE8F883E08CD8
:1017C000401EE084A0684B46B0F5805F4FF00002F9
:1017D0004FF080012046009703D002F0FDFEE8B9EB
:1017E0000DE002F0F9FEC8B928882168C0F30800AE
:1017F0004860206908B16D1C05E0AD1C03E021685C
:1018000015F8010B4860E08C0028D8D14B46002227
:1018100040212046009702F0DFFE08B10320CCE70C
:10182000202084F839000020C7E70220C5E7FEE742
:1018300010B5E22002F04CFA1D2002F03DFA022021
:1018400002F03AFA042002F037FA6420FFF728FA8F
:10185000E02002F03DFA012002F02EFA0A20FFF704
:101860000DFAE02002F034FA032002F025FA0C20F1
:10187000FFF704FA012002F02BFA0A20FFF7FEF925
:10188000E62002F025FA2F2002F016FAFF2002F0DF
:1018900013FAFF2002F010FAB02002F019FA20200B
:1018A00002F00AFA002002F007FA032002F004FA1C
:1018B00040F21F3002F000FA012002F0FDF940F280
:1018C000DF1002F0F9F9002002F0F6F9B42002F07E
:1018D000FFF9042002F0F0F940F21F4002F0ECF9A9
:1018E000002002F0E9F92E2002F0E6F9002002F0D3
:1018F000E3F9002002F0E0F9002002F0DDF9002019
:1019000002F0DAF9B62002F0E3F9022002F0D4F98D
:101910004FF4037002F0D0F9002002F0CDF9172047
:1019200002F0CAF9152002F0C7F9002002F0C4F94C
:10193000002002F0C1F9F02002F0CAF9032002F001
:10194000BBF9292002F0C4F9D02002F0C1F900202F
:1019500002F0B2F9BE2002F0BBF9052002F0ACF9AA
:10196000FE2002F0A9F9012002F0A6F9002002F001
:10197000A3F9002002F0A0F9002002F09DF9B820A0
:1019800002F0A6F9032002F097F9012002F094F981
:10199000BA2002F09DF9012002F08EF9BDE8104056
:1019A000642002F085B810B5ED2002F091F9012015
:1019B00002F082F9FE2002F07FF9EE2002F088F9B1
:1019C000DE2002F079F9212002F076F9F12002F010
:1019D0007FF9012002F070F9DF2002F079F9102080
:1019E00002F06AF9C42002F073F98F2002F064F962
:1019F000C62002F06DF9002002F05EF9E22002F04C
:101A00005BF9E22002F058F9E22002F055F9BF201C
:101A100002F05EF9AA2002F04FF9B02002F058F966
:101A20000D2002F049F9002002F046F90D2002F0E5
:101A300043F9002002F040F9112002F03DF90020A6
:101A400002F03AF9192002F037F9002002F034F9D7
:101A5000212002F031F9002002F02EF92D2002F0B1
:101A60002BF9002002F028F93D2002F025F9002092
:101A700002F022F95D2002F01FF9002002F01CF9AB
:101A80005D2002F019F9002002F016F9B12002F0F1
:101A90001FF9802002F010F9002002F00DF98B20D0
:101AA00002F00AF9002002F007F9962002F004F98A
:101AB000002002F001F9B22002F00AF9002002F041
:101AC000FBF8002002F0F8F8022002F0F5F8002000
:101AD00002F0F2F8032002F0EFF8002002F0ECF838
:101AE000B32002F0F5F8002002F0E6F8002002F042
:101AF000E3F8002002F0E0F8002002F0DDF800201A
:101B000002F0DAF8002002F0D7F8002002F0D4F852
:101B1000002002F0D1F8002002F0CEF8002002F000
:101B2000CBF8002002F0C8F8002002F0C5F8002031
:101B300002F0C2F8002002F0BFF8002002F0BCF86A
:101B4000002002F0B9F8002002F0B6F8002002F000
:101B5000B3F8002002F0B0F8002002F0ADF8002049
:101B600002F0AAF8002002F0A7F8002002F0A4F882
:101B7000002002F0A1F8B42002F0AAF88B2002F0B5
:101B80009BF8002002F098F8962002F095F80020CB
:101B900002F092F8A12002F08FF8002002F08CF8F9
:101BA000B52002F095F8022002F086F8002002F03D
:101BB00083F8032002F080F8002002F07DF8042072
:101BC00002F07AF8002002F077F8B62002F080F8F0
:101BD000002002F071F8002002F06EF8B72002F049
:101BE00077F8002002F068F8002002F065F83F2046
:101BF00002F062F8002002F05FF85E2002F05CF86C
:101C0000002002F059F8642002F056F8002002F09B
:101C100053F88C2002F050F8002002F04DF8AC2070
:101C200002F04AF8002002F047F8DC2002F044F805
:101C3000002002F041F8702002F03EF8002002F08F
:101C40003BF8902002F038F8002002F035F8EB2045
:101C500002F032F8002002F02FF8DC2002F02CF81D
:101C6000002002F029F8B82002F032F8002002F03B
:101C700023F8002002F020F8002002F01DF80020D8
:101C800002F01AF8002002F017F8002002F014F811
:101C9000002002F011F8002002F00EF8BA2002F045
:101CA00017F8242002F008F8002002F005F80020C0
:101CB00002F002F8002001F0FFFFC12002F008F856
:101CC000202001F0F9FF002001F0F6FF542001F080
:101CD000F3FF002001F0F0FFFF2001F0EDFF0020F6
:101CE00001F0EAFFC22001F0F3FF0A2001F0E4FF57
:101CF000002001F0E1FF042001F0DEFF002001F0F0
:101D0000DBFFC32001F0E4FF3C2001F0D5FF002001
:101D100001F0D2FF3A2001F0CFFF002001F0CCFF0C
:101D2000392001F0C9FF002001F0C6FF372001F083
:101D3000C3FF002001F0C0FF3C2001F0BDFF0020E8
:101D400001F0BAFF362001F0B7FF002001F0B4FF28
:101D5000322001F0B1FF002001F0AEFF2F2001F092
:101D6000ABFF002001F0A8FF2C2001F0A5FF002010
:101D700001F0A2FF292001F09FFF002001F09CFF4D
:101D8000262001F099FF002001F096FF242001F0A9
:101D900093FF002001F090FF242001F08DFF002030
:101DA00001F08AFF232001F087FF002001F084FF6B
:101DB0003C2001F081FF002001F07EFF362001F081
:101DC0007BFF002001F078FF322001F075FF00203A
:101DD00001F072FF2F2001F06FFF002001F06CFF77
:101DE0002C2001F069FF002001F066FF292001F09E
:101DF00063FF002001F060FF262001F05DFF00205E
:101E000001F05AFF242001F057FF002001F054FF99
:101E1000242001F051FF002001F04EFF232001F0AB
:101E20004BFF002001F048FFC42001F051FF622069
:101E300001F042FF002001F03FFF052001F03CFFD0
:101E4000002001F039FF842001F036FF002001F06E
:101E500033FFF02001F030FF002001F02DFF1820AB
:101E600001F02AFF002001F027FFA42001F024FF49
:101E7000002001F021FF182001F01EFF002001F0DA
:101E80001BFF502001F018FF002001F015FF0C206F
:101E900001F012FF002001F00FFF172001F00CFFEE
:101EA000002001F009FF952001F006FF002001F05D
:101EB00003FFF32001F000FF002001F0FDFEE6200B
:101EC00001F0FAFE002001F0F7FEC52001F000FF4E
:101ED000322001F0F1FE002001F0EEFE442001F07E
:101EE000EBFE002001F0E8FE652001F0E5FE002099
:101EF00001F0E2FE762001F0DFFE002001F0DCFEC2
:101F0000882001F0D9FE002001F0D6FEC62001F0A5
:101F1000DFFE202001F0D0FE002001F0CDFE1720D2
:101F200001F0CAFE002001F0C7FE012001F0C4FE4E
:101F3000002001F0C1FEC72001F0CAFE002001F020
:101F4000BBFE002001F0B8FE002001F0B5FE00202D
:101F500001F0B2FEC82001F0BBFE002001F0ACFE93
:101F6000002001F0A9FE002001F0A6FE002001F0F3
:101F7000A3FEC92001F0ACFE002001F09DFE002070
:101F800001F09AFE002001F097FE002001F094FE7F
:101F9000002001F091FE002001F08EFE002001F0F3
:101FA0008BFE002001F088FE002001F085FE00205D
:101FB00001F082FE002001F07FFE002001F07CFE97
:101FC000002001F079FE002001F076FE002001F0F3
:101FD00073FE002001F070FEE02001F079FE162073
:101FE00001F06AFE002001F067FE1C2001F064FE93
:101FF000002001F061FE212001F05EFE002001F0D2
:102000005BFE362001F058FE002001F055FE462010
:1020100001F052FE002001F04FFE522001F04CFE74
:10202000002001F049FE642001F046FE002001F08E
:1020300043FE7A2001F040FE002001F03DFE8B209F
:1020400001F03AFE002001F037FE992001F034FE45
:10205000002001F031FEA82001F02EFE002001F04A
:102060002BFEB92001F028FE002001F025FEC4203F
:1020700001F022FE002001F01FFECA2001F01CFE2C
:10208000002001F019FED22001F016FE002001F020
:1020900013FED92001F010FE002001F00DFEE0201B
:1020A00001F00AFE002001F007FEF32001F004FE1B
:1020B000002001F001FEE12001F00AFE162001F0EF
:1020C000FBFD002001F0F8FD1C2001F0F5FD0020D3
:1020D00001F0F2FD222001F0EFFD002001F0ECFD07
:1020E000362001F0E9FD002001F0E6FD452001F079
:1020F000E3FD002001F0E0FD522001F0DDFD0020B5
:1021000001F0DAFD642001F0D7FD002001F0D4FDDC
:102110007A2001F0D1FD002001F0CEFD8B2001F0EE
:10212000CBFD002001F0C8FD992001F0C5FD002085
:1021300001F0C2FDA82001F0BFFD002001F0BCFDB0
:10214000B92001F0B9FD002001F0B6FDC42001F076
:10215000B3FD002001F0B0FDCA2001F0ADFD00206C
:1021600001F0AAFDD22001F0A7FD002001F0A4FD9E
:10217000D82001F0A1FD002001F09EFDE02001F03B
:102180009BFD002001F098FDF32001F095FD00205B
:1021900001F092FDE22001F09BFD052001F08CFD95
:1021A000002001F089FD0B2001F086FD002001F0E8
:1021B00083FD1B2001F080FD002001F07DFD342017
:1021C00001F07AFD002001F077FD442001F074FD5C
:1021D000002001F071FD4F2001F06EFD002001F0A4
:1021E0006BFD612001F068FD002001F065FD7920A4
:1021F00001F062FD002001F05FFD882001F05CFD30
:10220000002001F059FD972001F056FD002001F05B
:1022100053FDA62001F050FD002001F04DFDB72038
:1022200001F04AFD002001F047FDC22001F044FD0D
:10223000002001F041FDC72001F03EFD002001F02B
:102240003BFDD12001F038FD002001F035FDD62006
:1022500001F032FD002001F02FFDDD2001F02CFD0A
:10226000002001F029FDF32001F026FD002001F0FF
:1022700023FDE32001F02CFD052001F01DFD0020D1
:1022800001F01AFD0A2001F017FD002001F014FDF5
:102290001C2001F011FD002001F00EFD332001F0A3
:1022A0000BFD002001F008FD442001F005FD002099
:1022B00001F002FD502001F0FFFC002001F0FCFCC9
:1022C000622001F0F9FC002001F0F6FC782001F01A
:1022D000F3FC002001F0F0FC882001F0EDFC002070
:1022E00001F0EAFC972001F0E7FC002001F0E4FC9B
:1022F000A62001F0E1FC002001F0DEFCB72001F097
:10230000DBFC002001F0D8FCC22001F0D5FC00204D
:1023100001F0D2FCC72001F0CFFC002001F0CCFC82
:10232000D12001F0C9FC002001F0C6FCD52001F04D
:10233000C3FC002001F0C0FCDD2001F0BDFC00204A
:1023400001F0BAFCF32001F0B7FC002001F0B4FC6E
:10235000E42001F0BDFC012001F0AEFC002001F002
:10236000ABFC012001F0A8FC002001F0A5FC02203C
:1023700001F0A2FC002001F09FFC2A2001F09CFC4F
:10238000002001F099FC3C2001F096FC002001F0B7
:1023900093FC4B2001F090FC002001F08DFC5D20AF
:1023A00001F08AFC002001F087FC742001F084FC1D
:1023B000002001F081FC842001F07EFC002001F06F
:1023C0007BFC932001F078FC002001F075FCA2203A
:1023D00001F072FC002001F06FFCB32001F06CFCF6
:1023E000002001F069FCBE2001F066FC002001F035
:1023F00063FCC42001F060FC002001F05DFCCD20F6
:1024000001F05AFC002001F057FCD32001F054FCED
:10241000002001F051FCDD2001F04EFC002001F015
:102420004BFCF32001F048FC002001F045FCE520C6
:1024300001F04EFC002001F03FFC002001F03CFCCC
:10244000002001F039FC002001F036FC022001F0F0
:1024500033FC002001F030FC292001F02DFC00208D
:1024600001F02AFC3C2001F027FC002001F024FCB4
:102470004B2001F021FC002001F01EFC5D2001F04A
:102480001BFC002001F018FC742001F015FC00205A
:1024900001F012FC842001F00FFC002001F00CFC84
:1024A000932001F009FC002001F006FCA22001F0BD
:1024B00003FC002001F000FCB32001F0FDFB002034
:1024C00001F0FAFBBE2001F0F7FB002001F0F4FB65
:1024D000C42001F0F1FB002001F0EEFBCD2001F063
:1024E000EBFB002001F0E8FBD32001F0E5FB00202E
:1024F00001F0E2FBDC2001F0DFFB002001F0DCFB5F
:10250000F32001F0D9FB002001F0D6FBE62001F01A
:10251000DFFB112001F0D0FB002001F0CDFB3420C7
:1025200001F0CAFB002001F0C7FB562001F0C4FBFC
:10253000002001F0C1FB762001F0BEFB002001F07D
:10254000BBFB772001F0B8FB002001F0B5FB662053
:1025500001F0B2FB002001F0AFFB882001F0ACFBE2
:10256000002001F0A9FB992001F0A6FB002001F05A
:10257000A3FBBB2001F0A0FB002001F09DFB9920F4
:1025800001F09AFB002001F097FB662001F094FB1C
:10259000002001F091FB552001F08EFB002001F09E
:1025A0008BFB552001F088FB002001F085FB4520C6
:1025B00001F082FB002001F07FFB432001F07CFB57
:1025C000002001F079FB442001F076FB002001F0AF
:1025D00073FBE72001F07CFB322001F06DFB002053
:1025E00001F06AFB552001F067FB002001F064FB5D
:1025F000762001F061FB002001F05EFB662001F017
:102600005BFB002001F058FB672001F055FB002028
:1026100001F052FB672001F04FFB002001F04CFB62
:10262000872001F049FB002001F046FB992001F0D2
:1026300043FB002001F040FBBB2001F03DFB0020EC
:1026400001F03AFB992001F037FB002001F034FB48
:10265000772001F031FB002001F02EFB442001F037
:102660002BFB002001F028FB562001F025FB002069
:1026700001F022FB232001F01FFB002001F01CFBD6
:10268000332001F019FB002001F016FB452001F07A
:1026900013FB002001F010FBE82001F019FB0020E3
:1026A00001F00AFB002001F007FB992001F004FB78
:1026B000002001F001FB872001F0FEFA002001F06C
:1026C000FBFA882001F0F8FA002001F0F5FA7720F3
:1026D00001F0F2FA002001F0EFFA662001F0ECFAC6
:1026E000002001F0E9FA882001F0E6FA002001F06C
:1026F000E3FAAA2001F0E0FA002001F0DDFABB20A5
:1027000001F0DAFA002001F0D7FA992001F0D4FAAA
:10271000002001F0D1FA662001F0CEFA002001F08D
:10272000CBFA552001F0C8FA002001F0C5FA552077
:1027300001F0C2FA002001F0BFFA442001F0BCFA17
:10274000002001F0B9FA442001F0B6FA002001F0AF
:10275000B3FA552001F0B0FA002001F0ADFAE920FB
:1027600001F0B6FAAA2001F0A7FA002001F0A4FABD
:10277000002001F0A1FA002001F09EFA002001F0F3
:10278000A7FAAA2001F098FACF2001F0A1FA0020C0
:1027900001F092FA002001F08FFA002001F08CFA8B
:1027A000002001F089FA002001F086FA002001F0F3
:1027B00083FA002001F080FA002001F07DFA002069
:1027C00001F07AFA002001F077FA002001F074FAA3
:1027D000002001F071FA002001F06EFA002001F0F3
:1027E0006BFA002001F068FA002001F065FA002081
:1027F00001F062FAF02001F06BFA002001F05CFABF
:10280000502001F059FA002001F056FA002001F0A2
:1028100053FA002001F050FAF32001F059FA002099
:1028200001F04AFAF92001F053FA062001F044FAC7
:10283000102001F041FA292001F03EFA002001F0B9
:102840003BFA3A2001F044FA552001F035FA112004
:1028500001F03EFA6420FEF711FA292001F038FA5F
:10286000352001F035FA002001F026FA512001F060
:102870002FFAFF2001F020FA532001F029FA2C2032
:1028800001F01AFA552001F023FA822001F014FA1F
:10289000BDE810402C2001F01BBA2DE9F05F4FF489
:1028A00070435521184601F029FA4FF20104AA217C
:1028B000204601F023FA651C5221284601F01EFA39
:1028C000A61C0821304601F019FAE71C0121384600
:1028D00001F014FA0D214FF4304001F00FFA0D21F0
:1028E0004BF2010001F00AFA0D214BF2020001F057
:1028F00005FA4FF436483421404601F0FFF93421FF
:102900004BF2016001F0FAF934214BF2026001F060
:10291000F5F94FF431490D21484601F0EFF94BF23A
:10292000011A0D21504601F0E9F90D214BF2021078
:1029300001F0E4F94FF4374B3421584601F0DEF949
:1029400034214BF2017001F0D9F934214BF20270BD
:1029500001F0D4F900214FF4324001F0CFF9002109
:102960004BF2012001F0CAF900214BF2022001F0E4
:10297000C5F924214FF4384001F0C0F924214BF669
:10298000010001F0BBF924214BF6020001F0B6F979
:1029900001214FF43F4001F0B1F90F214FF43340D2
:1029A00001F0ACF90F214BF2013001F0A7F90F2132
:1029B0004BF2023001F0A2F934214FF4394001F01A
:1029C0009DF934214BF6011001F098F934214BF6B2
:1029D000021001F093F908214FF4354001F08EF90F
:1029E00008214BF2015001F089F908214BF2025005
:1029F00001F084F903214FF4424001F07FF92421D2
:102A00004FF43A4001F07AF924214BF6012001F00D
:102A100075F924214BF6022001F070F900214FF4E2
:102A20003C4001F06BF978214BF6014001F066F96A
:102A300000214BF6024001F061F900214FF43D40C6
:102A400001F05CF978214BF6015001F057F90021B3
:102A50004BF6025001F052F900214FF43E4001F0D4
:102A60004DF964214BF6016001F048F900214FF463
:102A7000514001F043F933214DF2011001F03EF9CC
:102A800000214DF2021001F039F934214DF203100A
:102A900001F034F900214DF2041001F02FF93A2130
:102AA0004DF2051001F02AF900214DF2061001F057
:102AB00025F94A214DF2071001F020F900214DF2CD
:102AC000081001F01BF95C214DF2091001F016F914
:102AD00000214DF20A1001F011F981214DF20B1085
:102AE00001F00CF900214DF20C1001F007F9A621BC
:102AF0004DF20D1001F002F900214DF20E1001F01F
:102B0000FDF8E5214DF20F1001F0F8F801214DF22A
:102B1000101001F0F3F813214DF2111001F0EEF84E
:102B200001214DF2121001F0E9F854214DF2131079
:102B300001F0E4F801214DF2141001F0DFF88221D8
:102B40004DF2151001F0DAF801214DF2161001F0E6
:102B5000D5F8CA214DF2171001F0D0F802214DF23C
:102B6000181001F0CBF800214DF2191001F0C6F851
:102B700002214DF21A1001F0C1F801214DF21B1093
:102B800001F0BCF802214DF21C1001F0B7F834211D
:102B90004DF21D1001F0B2F802214DF21E1001F0AD
:102BA000ADF867214DF21F1001F0A8F802214DF297
:102BB000201001F0A3F884214DF2211001F09EF8BD
:102BC00002214DF2221001F099F8A4214DF22310B8
:102BD00001F094F802214DF2241001F08FF8B72192
:102BE0004DF2251001F08AF802214DF2261001F075
:102BF00085F8CF214DF2271001F080F802214DF227
:102C0000281001F07BF8DE214DF2291001F076F852
:102C100002214DF22A1001F071F8F2214DF22B1031
:102C200001F06CF802214DF22C1001F067F8FE2142
:102C30004DF22D1001F062F803214DF22E1001F03B
:102C40005DF810214DF22F1001F058F803214DF2DC
:102C5000301001F053F833214DF2311001F04EF8ED
:102C600003214DF2321001F049F86D214DF233107D
:102C700001F044F800214FF4524001F03FF83321B5
:102C80004DF2012001F03AF800214DF2022001F04E
:102C900035F834214DF2032001F030F800214DF2D7
:102CA000042001F02BF83A214DF2052001F026F81E
:102CB00000214DF2062001F021F84A214DF20720B3
:102CC00001F01CF800214DF2082001F017F85C21FA
:102CD0004DF2092001F012F800214DF20A2001F016
:102CE0000DF881214DF20B2001F008F800214DF282
:102CF0000C2001F003F8A6214DF20D2000F0FEFF9C
:102D000000214DF20E2000F0F9FFE5214DF20F20D9
:102D100000F0F4FF01214DF2102000F0EFFF13212D
:102D20004DF2112000F0EAFF01214DF2122000F0D7
:102D3000E5FF54214DF2132000F0E0FF01214DF298
:102D4000142000F0DBFF82214DF2152000F0D6FFA9
:102D500001214DF2162000F0D1FFCA214DF21720BB
:102D600000F0CCFF02214DF2182000F0C7FF002137
:102D70004DF2192000F0C2FF02214DF21A2000F09E
:102D8000BDFF01214DF21B2000F0B8FF02214DF2E2
:102D90001C2000F0B3FF34214DF21D2000F0AEFFE7
:102DA00002214DF21E2000F0A9FF67214DF21F20E5
:102DB00000F0A4FF02214DF2202000F09FFF8421AB
:102DC0004DF2212000F09AFF02214DF2222000F066
:102DD00095FFA4214DF2232000F090FF02214DF237
:102DE000242000F08BFFB7214DF2252000F086FF54
:102DF00002214DF2262000F081FFCF214DF2272045
:102E000000F07CFF02214DF2282000F077FFDE2148
:102E10004DF2292000F072FF02214DF22A2000F02D
:102E20006DFFF2214DF22B2000F068FF02214DF2E0
:102E30002C2000F063FFFE214DF22D2000F05EFFFC
:102E400003214DF22E2000F059FF10214DF22F20CA
:102E500000F054FF03214DF2302000F04FFF3321EA
:102E60004DF2312000F04AFF03214DF2322000F0F4
:102E700045FF6D214DF2332000F040FF00214FF45B
:102E8000534000F03BFF33214DF2013000F036FF9C
:102E900000214DF2023000F031FF34214DF20330B9
:102EA00000F02CFF00214DF2043000F027FF3A2102
:102EB0004DF2053000F022FF00214DF2063000F007
:102EC0001DFF4A214DF2073000F018FF00214DF29E
:102ED000083000F013FF5C214DF2093000F00EFFC6
:102EE00000214DF20A3000F009FF81214DF20B3034
:102EF00000F004FF00214DF20C3000F0FFFEA6218F
:102F00004DF20D3000F0FAFE00214DF20E3000F0CF
:102F1000F5FEE5214DF20F3000F0F0FE01214DF2FB
:102F2000103000F0EBFE13214DF2113000F0E6FE00
:102F300001214DF2123000F0E1FE54214DF2133028
:102F400000F0DCFE01214DF2143000F0D7FE8221AA
:102F50004DF2153000F0D2FE01214DF2163000F096
:102F6000CDFECA214DF2173000F0C8FE02214DF20D
:102F7000183000F0C3FE00214DF2193000F0BEFE03
:102F800002214DF21A3000F0B9FE01214DF21B3042
:102F900000F0B4FE02214DF21C3000F0AFFE3421EF
:102FA0004DF21D3000F0AAFE02214DF21E3000F05D
:102FB000A5FE67214DF21F3000F0A0FE02214DF268
:102FC000203000F09BFE84214DF2213000F096FE6F
:102FD00002214DF2223000F091FEA4214DF2233067
:102FE00000F08CFE02214DF2243000F087FEB72164
:102FF0004DF2253000F082FE02214DF2263000F025
:103000007DFECF214DF2273000F078FE02214DF2F7
:10301000283000F073FEDE214DF2293000F06EFE04
:1030200002214DF22A3000F069FEF2214DF22B30E0
:1030300000F064FE02214DF22C3000F05FFEFE2114
:103040004DF22D3000F05AFE03214DF22E3000F0EB
:1030500055FE10214DF22F3000F050FE03214DF2AD
:10306000303000F04BFE33214DF2313000F046FE9F
:1030700003214DF2323000F041FE6D214DF233302C
:1030800000F03CFE00214FF4544000F037FE3321A5
:103090004DF2014000F032FE00214DF2024000F0FE
:1030A0002DFE34214DF2034000F028FE00214DF2A8
:1030B000044000F023FE3A214DF2054000F01EFED0
:1030C00000214DF2064000F019FE4A214DF2074062
:1030D00000F014FE00214DF2084000F00FFE5C21CC
:1030E0004DF2094000F00AFE00214DF20A4000F0C6
:1030F00005FE81214DF20B4000F000FE00214DF253
:103100000C4000F0FBFDA6214DF20D4000F0F6FD55
:1031100000214DF20E4000F0F1FDE5214DF20F408F
:1031200000F0ECFD01214DF2104000F0E7FD13210D
:103130004DF2114000F0E2FD01214DF2124000F08D
:10314000DDFD54214DF2134000F0D8FD01214DF278
:10315000144000F0D3FD82214DF2154000F0CEFD69
:1031600001214DF2164000F0C9FDCA214DF2174071
:1031700000F0C4FD02214DF2184000F0BFFD002117
:103180004DF2194000F0BAFD02214DF21A4000F054
:10319000B5FD01214DF21B4000F0B0FD02214DF2C2
:1031A0001C4000F0ABFD34214DF21D4000F0A6FDA7
:1031B00002214DF21E4000F0A1FD67214DF21F409B
:1031C00000F09CFD02214DF2204000F097FD84218B
:1031D0004DF2214000F092FD02214DF2224000F01C
:1031E0008DFDA4214DF2234000F088FD02214DF217
:1031F000244000F083FDB7214DF2254000F07EFD14
:1032000002214DF2264000F079FDCF214DF22740FA
:1032100000F074FD02214DF2284000F06FFDDE2128
:103220004DF2294000F06AFD02214DF22A4000F0E3
:1032300065FDF2214DF22B4000F060FD02214DF2C0
:103240002C4000F05BFDFE214DF22D4000F056FDBC
:1032500003214DF22E4000F051FD10214DF22F4080
:1032600000F04CFD03214DF2304000F047FD3321CA
:103270004DF2314000F042FD03214DF2324000F0AA
:103280003DFD6D214DF2334000F038FD00214FF43B
:10329000554000F033FD33214DF2015000F02EFD7A
:1032A00000214DF2025000F029FD34214DF203506F
:1032B00000F024FD00214DF2045000F01FFD3A21E2
:1032C0004DF2055000F01AFD00214DF2065000F0BD
:1032D00015FD4A214DF2075000F010FD00214DF27E
:1032E000085000F00BFD5C214DF2095000F006FD86
:1032F00000214DF20A5000F001FD81214DF20B50EA
:1033000000F0FCFC00214DF20C5000F0F7FCA6216F
:103310004DF20D5000F0F2FC00214DF20E5000F085
:10332000EDFCE5214DF20F5000F0E8FC01214DF2DB
:10333000105000F0E3FC13214DF2115000F0DEFCC0
:1033400001214DF2125000F0D9FC54214DF21350DE
:1033500000F0D4FC01214DF2145000F0CFFC82218A
:103360004DF2155000F0CAFC01214DF2165000F04C
:10337000C5FCCA214DF2175000F0C0FC02214DF2ED
:10338000185000F0BBFC00214DF2195000F0B6FCC3
:1033900002214DF21A5000F0B1FC01214DF21B50F8
:1033A00000F0ACFC02214DF21C5000F0A7FC3421CF
:1033B0004DF21D5000F0A2FC02214DF21E5000F013
:1033C0009DFC67214DF21F5000F098FC02214DF248
:1033D000205000F093FC84214DF2215000F08EFC2F
:1033E00002214DF2225000F089FCA4214DF223501D
:1033F00000F084FC02214DF2245000F07FFCB72144
:103400004DF2255000F07AFC02214DF2265000F0DA
:1034100075FCCF214DF2275000F070FC02214DF2D7
:10342000285000F06BFCDE214DF2295000F066FCC4
:1034300002214DF22A5000F061FCF2214DF22B5096
:1034400000F05CFC02214DF22C5000F057FCFE21F4
:103450004DF22D5000F052FC03214DF22E5000F0A1
:103460004DFC10214DF22F5000F048FC03214DF28D
:10347000305000F043FC33214DF2315000F03EFC5F
:1034800003214DF2325000F039FC6D214DF23350E2
:1034900000F034FC00214FF4564000F02FFC3321A3
:1034A0004DF2016000F02AFC00214DF2026000F0B4
:1034B00025FC34214DF2036000F020FC00214DF288
:1034C000046000F01BFC3A214DF2056000F016FC90
:1034D00000214DF2066000F011FC4A214DF2076018
:1034E00000F00CFC00214DF2086000F007FC5C21AC
:1034F0004DF2096000F002FC00214DF20A6000F07C
:10350000FDFB81214DF20B6000F0F8FB00214DF234
:103510000C6000F0F3FBA6214DF20D6000F0EEFB15
:1035200000214DF20E6000F0E9FBE5214DF20F6045
:1035300000F0E4FB01214DF2106000F0DFFB1321ED
:103540004DF2116000F0DAFB01214DF2126000F043
:10355000D5FB54214DF2136000F0D0FB01214DF258
:10356000146000F0CBFB82214DF2156000F0C6FB29
:1035700001214DF2166000F0C1FBCA214DF2176027
:1035800000F0BCFB02214DF2186000F0B7FB0021F7
:103590004DF2196000F0B2FB02214DF21A6000F00A
:1035A000ADFB01214DF21B6000F0A8FB02214DF2A2
:1035B0001C6000F0A3FB34214DF21D6000F09EFB67
:1035C00002214DF21E6000F099FB67214DF21F6051
:1035D00000F094FB02214DF2206000F08FFB84216B
:1035E0004DF2216000F08AFB02214DF2226000F0D2
:1035F00085FBA4214DF2236000F080FB02214DF2F7
:10360000246000F07BFBB7214DF2256000F076FBD3
:1036100002214DF2266000F071FBCF214DF22760B0
:1036200000F06CFB02214DF2286000F067FBDE2108
:103630004DF2296000F062FB02214DF22A6000F099
:103640005DFBF2214DF22B6000F058FB02214DF2A0
:103650002C6000F053FBFE214DF22D6000F04EFB7C
:1036600003214DF22E6000F049FB10214DF22F6036
:1036700000F044FB03214DF2306000F03FFB3321AA
:103680004DF2316000F03AFB03214DF2326000F060
:1036900035FB6D214DF2336000F030FB55211846AB
:1036A00000F02CFBAA21204600F028FB52212846DE
:1036B00000F024FB0821304600F020FB00213846B2
:1036C00000F01CFBCC21484600F018FB00215046BE
:1036D00000F014FB0521404600F010FB7021584615
:1036E00000F00CFB70214BF2017000F007FB012190
:1036F0004FF4384000F002FB03214BF6010000F0CC
:10370000FDFA03214BF6020000F0F8FA03214BF614
:10371000030000F0F3FA02214FF43C4000F0EEFA0F
:1037200000214BF6014000F0E9FA00214BF602407F
:1037300000F0E4FAD0214FF4494000F0DFFA022112
:103740004CF6011000F0DAFA50214CF6021000F0AD
:10375000D5FA50214CF6031000F0D0FA50214CF667
:10376000041000F0CBFA00214FF4545000F0C6FAD8
:1037700055214FF4685000F0C1FA4FF4885000F022
:10378000A7FA7820FDF78CFABDE8F05F4FF42450DB
:1037900000F09EBA10B5CF2000F09AFA002000F099
:1037A0008BFAC12000F088FA302000F085FAED2075
:1037B00000F08EFA642000F07FFA032000F07CFA1B
:1037C000122000F079FA812000F076FAE82000F06B
:1037D0007FFA852000F070FA102000F06DFA7A2050
:1037E00000F06AFACB2000F073FA392000F064FA96
:1037F0002C2000F061FA002000F05EFA342000F086
:103800005BFA022000F058FAF72000F061FA20205D
:1038100000F052FAEA2000F05BFA002000F04CFAC7
:10382000002000F049FAC02000F052FA1B2000F0FE
:1038300043FAC12000F04CFA012000F03DFAC52007
:1038400000F046FA302000F037FA302000F034FA69
:10385000C72000F03DFAB72000F02EFA362000F025
:1038600037FA482000F028FA3A2000F031FA5520C3
:1038700000F022FAB12000F02BFA002000F01CFA30
:103880001A2000F019FAB62000F022FA0A2000F0FF
:1038900013FAA22000F010FAF22000F019FA00202A
:1038A00000F00AFA262000F013FA012000F004FAD2
:1038B000E02000F00DFA0F2000F0FEF92A2000F0C1
:1038C000FBF9282000F0F8F9082000F0F5F90E20A7
:1038D00000F0F2F9082000F0EFF9542000F0ECF9C4
:1038E000A92000F0E9F9432000F0E6F90A2000F0F1
:1038F000E3F90F2000F0E0F9002000F0DDF90020EE
:1039000000F0DAF9002000F0D7F9002000F0D4F937
:10391000E12000F0DDF9002000F0CEF9152000F0E4
:10392000CBF9172000F0C8F9072000F0C5F91120E5
:1039300000F0C2F9062000F0BFF92B2000F0BCF91E
:10394000562000F0B9F93C2000F0B6F9052000F04F
:10395000B3F9102000F0B0F90F2000F0ADF93F20CE
:1039600000F0AAF93F2000F0A7F90F2000F0A4F919
:103970002B2000F0ADF9002000F09EF9002000F0AF
:103980009BF9012000F098F93F2000F095F92A20DA
:1039900000F09EF9002000F08FF9002000F08CF973
:1039A000002000F089F9EF2000F086F9112000F0E6
:1039B0008FF97820FDF762F9BDE81040292000F06A
:1039C00087B900002DE9F04F33492C240A4688714D
:1039D0002A2592882B2645F2105B4FF4305E4FF477
:1039E00048774FF0F00949F2413A4FF4A07845F298
:1039F000103C4FF4F07358B1A1F80080A1F8029088
:103A0000524501D0624529D10C814D818E8139E02A
:103A1000A1F80090A1F80280524501D0624508D17A
:103A20000C814D818E81624531D1A1F800804B809F
:103A30002DE05A4508D1A1F808E04FF428504881FC
:103A40004FF42C50888106E0A2F5C85063381ED18F
:103A50000C814E818D810B804F8018E05A4508D132
:103A6000A1F808E04FF4285048814FF42C50888189
:103A700006E0A2F5C850633804D10C814D818E81D7
:103A80000F804B80624502D10B80A1F80280BDE817
:103A9000F04F002000F034B834000020034808B58F
:103AA0000088ADF80000BDF8000008BD0000086007
:103AB00010B50246BE2000F00BF9052000F0FCF81E
:103AC0001046FCF744FC9FED0C1B53EC112BFCF74C
:103AD000CCFBFCF749FC80B200F0EEF8012000F0CE
:103AE000EBF8FF2000F0E8F8002000F0E5F8BDE872
:103AF0001040002000F0E0B8666666666666044026
:103B0000F0B56C4C00232146A279898841F66316F2
:103B1000012A01D01AB11BE0B14202D118E0B14232
:103B200016D1082814D2DFE800F00406080A0C0EAB
:103B3000101206200CE007200AE0042008E005200F
:103B400006E0012004E0002002E0032000E0022063
:103B5000A1F5134745F2103245F21055413F05D00B
:103B6000914203D0A94201D0B14277D1082812D2A4
:103B7000DFE800F0110406080A0C0E1080230AE0AA
:103B8000402308E0C02306E0202304E0602302E095
:103B9000A02300E0E023A94202D14FF4585000E0F6
:103BA0003620914205D0A94203D0B14201D043F062
:103BB0000803194600F0A2F8A188B1420AD098067D
:103BC0002088628802D5904202D303E0904201D956
:103BD000228060806089A94241D100F079F80020FC
:103BE00000F06AF86089401C80B200F071F8002093
:103BF00000F062F86089801C80B200F069F82088CB
:103C0000401EC0F30F2000F057F86089C01C80B23E
:103C100000F05EF82078401EC0B200F04DF8A08998
:103C200000F056F8002000F047F8A089401C80B250
:103C300000F04EF8002000F03FF8A089801C80B210
:103C400000F046F86088401EC0F30F2000F034F802
:103C5000A089C01C80B200F03BF822E028E000F010
:103C600037F8002000F028F8002000F025F8208820
:103C7000401EC0F30F2000F01FF82078401EC0B295
:103C800000F01AF8A08900F023F8002000F014F8E2
:103C9000002000F011F86088401EC0F30F2000F0F3
:103CA0000BF8A078BDE8F040401EC0B200F004B8A8
:103CB000F0BD00003400002001B5BDF80000ADF8F3
:103CC0000000BDF800000149088008BD0000086040
:103CD00001B5BDF80000ADF80000BDF800000149D5
:103CE000088008BDFEFF076002480349008908807C
:103CF0007047000034000020FEFF0760024A108079
:103D0000901C018070470000FEFF07607FB5002413
:103D100015480094019402941249039401604FF4F1
:103D20008031C0E901140461047680F820400F4915
:103D3000C0E90A140125C561C46080F830404561BE
:103D4000FCF753FE08B1FCF773FC0520CDE9000534
:103D5000694602940448FCF7F3FC002801D0FCF704
:103D600067FC7FBD00200140900000200100000F93
:103D700000B58FB01C216846FCF76CFA1C2107A81F
:103D8000FCF768FA1B484FF02041102201601A49E5
:103D9000416000218160C160C0E904128161C1619C
:103DA00013020162C0E909139302C0E90B134163D6
:103DB0008163C16341640F2046230090CDE9010374
:103DC0000DF10C0C11238CE80D00CDE906100890C4
:103DD0000DF1280C0D9109908CE80D0007AA694699
:103DE0000448FDF71FFC002801D0FCF721FC0FB0B0
:103DF00000BD0000D8000020040100A02DE9F04320
:103E000087B014216846FCF725FA39480024016878
:103E100041F004010160016801F0040105910168AD
:103E200041F080010160016801F0800105910168A5
:103E300041F001010160016801F001010591016893
:103E400041F002010160016801F002010591016881
:103E500041F010010160016801F010010591016855
:103E600041F0080101600068224F00F00800059051
:103E7000002220213846FDF756F8DFF87C80012229
:103E800040214046FDF74FF8DFF8709000220221F4
:103E90004846FDF748F8012220214846FDF743F83F
:103EA000202601250096CDE9015469463846039441
:103EB000FCF748FF40200090CDE901546946404698
:103EC0000394FCF73FFF02200090CDE901546946BE
:103ED00048460394FCF736FF0320CDE90250CDE9B4
:103EE000006569464846FCF72DFF07B0BDE8F08342
:103EF00030380240001C0240000002400004024032
:103F00000C4810B50A4901604FF4E13141600021CD
:103F100081600C22C160C0E904128161C161FDF7BA
:103F2000C2FB002803D0BDE81040FCF781BB10BDE8
:103F30000010014028010020FEE7704770477047DD
:103F4000FCF7FCBF70B592B030216846FCF782F9EF
:103F500014210CA8FCF77EF91A480025016841F0ED
:103F600080510160006800F080501190164801688F
:103F700041F4404101600068022400F44040119087
:103F800001200090000401908001CDE906400F2639
:103F90000896D820CDE9090404200B906846FDF767
:103FA00093F9FDF767F84FF4A050CDE90E50E00209
:103FB000CDE90C64109005210CA8FDF793F812B020
:103FC00070BD0000403802400070004005480168A4
:103FD00041F47001016003494FF0006080390860CE
:103FE0007047000088ED00E070B50A4906460024DD
:103FF00008884D8821464543204600F03BF9FFF7ED
:1040000073FEB0B2044901E00880641CAC42FBD3EB
:1040100070BD000034000020000008602DE9F04170
:10402000354C90460D460246060AA18820462F0AC6
:104030004089A1F51343413B0CD0A1F5A643103BA9
:1040400008D0A1F5AA43103B10D0A1F5C853633B9B
:1040500025D048E0FFF73CFE3046FFF72DFED0B2FA
:10406000FFF72AFEA089FFF733FE36E0FFF730FEA8
:104070003046FFF721FE6089401C80B2FFF728FE22
:10408000D0B2FFF719FEA089FFF722FE3846FFF7EE
:1040900013FEA089401C80B2FFF71AFE20E0A17930
:1040A00019B92188891A491E8AB2FFF711FE160A2A
:1040B0003046FFF701FED0B2FFF7FEFD3046FFF7B6
:1040C000FBFDD0B2FFF7F8FDA089FFF701FE3846EF
:1040D000FFF7F2FDE8B2FFF7EFFD3846FFF7ECFD22
:1040E000E8B2FFF7E9FD054920890880891CA1F89D
:1040F0000080BDE8F081000034000020FEFF076072
:104100002DE9F0476420FCF7B9FDD320FFF7E0FD6F
:10411000FFF7C4FC554CA080FFF7C0FCA080FFF760
:10412000BDFC4FF6FF7909EA0020A080FFF7B6FC3E
:10413000A18849F241360843A08045F2103745F284
:10414000105541F66318B04247D0D420FFF7C0FDA8
:10415000FFF7A4FCA080FFF7A1FCA080FFF79EFC66
:1041600009EA00204A46A080FFF798FCA18808438E
:10417000A080B84231D04FF45A40FFF7A9FDFFF7B5
:104180008DFCA0804FF45B40FFF7A2FDFFF786FC9B
:1041900002EA0020A0804FF45C40FFF799FDFFF792
:1041A0007DFCA1880843A080B0F5004F1ED0A84236
:1041B00013D0A120FFF78CFDFFF770FCA080FFF764
:1041C0006DFC02EA0020A080FFF768FCA18808438C
:1041D000A0F5AE41A080613905D080B2B04207D1D0
:1041E000FFF7D8FA12E0A4F804800DE0A58006E0FD
:1041F000B84202D1FDF7D7FB08E0A84202D1FEF792
:104200004CFB03E0404501D1FDF712FBA088B04212
:1042100005D0B84203D0A84201D0404519D14FF093
:104220002040D0F8041121F00F01C0F80411D0F89B
:10423000041121F47061C0F80411D0F8041141F0A8
:104240000401C0F80411D0F8041141F48061C0F8F1
:1042500004110020FFF7B6FB012220210448FCF7DF
:1042600062FE4846BDE8F047FFF7BEBE34000020BE
:1042700000040240F0B53F4A0D460446060A918804
:1042800010462F0A4089A1F51343413B28D0A1F5E0
:10429000A643103B24D0A1F5C853633B2FD0A1F512
:1042A000AA43103B64D1FFF713FD3046FFF704FD2E
:1042B0005089401C80B2FFF70BFDE0B2FFF7FCFC19
:1042C0009089FFF705FD3846FFF7F6FC9089401C02
:1042D00080B2FFF7FDFCE8B2BDE8F040FFF7ECBCB0
:1042E000FFF7F6FC3046FFF7E7FCE0B2FFF7E4FC2F
:1042F0009089FFF7EDFC3846FFF7DEFCEBE791799C
:1043000029B3FFF7E5FC3046FFF7D6FCE0B2FFF734
:10431000D3FC1088401EC0F30F20FFF7CDFC1078AF
:10432000401EC0B2FFF7C8FC9089FFF7D1FC3846A9
:10433000FFF7C2FCE8B2FFF7BFFC5088401EC0F395
:104340000F20FFF7B9FC9078401EC0B2C4E7118877
:10435000091B491E8CB2FFF7BBFC0020FFF7ACFC29
:104360000020FFF7A9FC200AFFF7A6FCE0B2D9E77E
:10437000F0BD0000340000202DE9FF4F1D460C4623
:104380008A46580700D0012000EBD500690810FBD1
:1043900001F0203A00F0FF09D0B20026DFF8A4B007
:1043A00002904BE00C2D11D0102D14D0182D17D0E9
:1043B000202D45D12449029801EBC0104FF0000890
:1043C000875D380613D52148026814E00298204919
:1043D00000EB400008E01F49029801EB0010EDE7F8
:1043E00002981D4900EBC00001EB8000E6E70D9844
:1043F00028B91648426821460098FFF70FFE780654
:10440000070E641CBBF80200A4B2A04218D9A4EBAA
:104410000A00A84209D100985446401C80B200907E
:10442000BBF8001081420BD906E008F1010000F052
:10443000FF08B8F1080FC4D3761CF6B24E45B1D3CD
:10444000BDE8FF8F34000020186400080000002041
:10445000584C0008CC500008BC5600082DE9F84F15
:10446000044600F0FF0910190D46DDE90AB61FFAEF
:1044700080F8581987B24FF0000A12E0444503D380
:1044800005EB0B004C4685B2BD420FD25B46294678
:104490002046CDF800A0FFF76FFF04EB5B0084B26D
:1044A000761C3278A2F120005E28E7D9BDE8F88FAB
:1044B0002DE9F041044600680169E26821F44051A9
:1044C000114301612169A068E269084361691143F0
:1044D00008432168CA6849F20C639A430243CA60E0
:1044E00020684169A26921F4407111434161E0698A
:1044F000192764253226B0F5004F354A3549206822
:104500004FF0000806D0884201D0904236D1FCF727
:1045100099FE35E0884201D0904202D1FCF792FE2C
:1045200001E0FCF77FFE61684A18A0FB070148EB39
:104530000803FBF757FE0146B0FBF5F00201B1FBA3
:10454000F5F06FF01803584301EB800006EBC00054
:10455000B0FBF5F000F0F80002EB4002B1FBF5F023
:10456000584301EB800006EBC000B0FBF5F000F013
:104570000700216810448860BDE8F081FCF752FE16
:1045800061688B0F8A00A0FB0701FBF72BFE014639
:10459000B0FBF5F06FF01802504301EB800006EB22
:1045A0000010B0FBF5F000F0F002B1FBF5F002EB0B
:1045B0000012B1FBF5F06FF01803584301EB8000D7
:1045C00006EB0010B0FBF5F000F00F00D1E70000A3
:1045D00000140140001001402DE9F04198461746B3
:1045E0000E460446069D1DE0681C1BD02DB1FCF74D
:1045F0009FFCA0EB0800A84214D92068C16821F4F0
:10460000D071C1602068416921F001014161202021
:1046100084F8390084F83A00002084F83800032038
:10462000BDE8F0812068006836EA000004D0002070
:10463000B842D9D00020F3E70120F9E77CB5174A4A
:104640000A20B2F9021091FBF0F300FB131491FB66
:10465000F0F393FBF0F500FB1535642391FBF3F1C8
:1046600091FBF0F300FB1313CDE90054B2F90020E5
:104670000BA1134800F02AF8084942F210742346AF
:104680000F22091D0F48FDF775F802B02346BDE85B
:10469000704040220A490B48FDF76CB80800002022
:1046A00056616C75653A25647C7C7C7C7C566F6CAD
:1046B000746167653A25642E256425645600000000
:1046C0004200002028010020FEE700000FB4084B44
:1046D00010B504A902AA039800F02CF8044602A918
:1046E000002000F058FA204610BC5DF814FB0000D2
:1046F000974B00080907090E002804DB00F1E020B1
:1047000080F80014704700F00F0000F1E02080F8FE
:10471000141D704702E008C8121F08C1002AFAD110
:1047200070477047002001E001C1121F002AFBD131
:10473000704700002DE9FF4F8DB00F46054600265B
:1047400006E025280BD0DDE90F1290476D1C761C82
:1047500028780028F5D111B03046BDE8F08F00244C
:10476000A246A1460122EC4900E0044315F8013FAE
:10477000203B02FA03F00842F7D128782A2810D00B
:104780006FF02F022878A0F13001092914D80AEB24
:104790008A0102EB410144F0020400EB010A6D1CA6
:1047A000F0E701CF5FEA000A03D544F40054CAF1F0
:1047B000000A44F002046D1C28782E2817D115F841
:1047C000010F44F004042A280ED06FF02F0228783D
:1047D000A0F1300109290AD809EB890102EB410156
:1047E00000EB01096D1CF2E757F8049B6D1C28785B
:1047F0006C280FD006DC4C2817D068280DD06A280A
:1048000014D104E0742810D07A280FD10DE044F4BC
:1048100000140AE044F4801401E044F44014697880
:10482000814202D104F580146D1C6D1C2A786E2A19
:104830001FD00CDC632A31D004DC002A8BD0582A2C
:1048400011D1A3E0642A68D0692A0CD165E0732AEB
:104850002ED004DC6F2A73D0702A04D19BE0752A15
:104860006FD0782A6ED01046DDE90F129047761C83
:1048700050E1C4F30250022806D0032809D00428CE
:1048800001CF09D0066045E101CFF117C0E9006111
:1048900040E101CF06803DE106703BE117F8040BD3
:1048A0008DF8000000208DF80100EB46012003E0A8
:1048B00057F804BB4FF0FF3061074FF0000102D4FE
:1048C0000DE008F10101884649450FDA8045F8DB23
:1048D0001BF808100029F4D108E008F1010188460E
:1048E0008142FADB1BF808100029F6D1DDE90F231D
:1048F000AAEB08008146214600F036F9304400EB6F
:10490000080604E0DDE90F121BF8010B9047B8F12F
:104910000108F7D221464846F7E00A21C4F30253C2
:104920004FF0000B0891022B04D001CFC117032BCD
:1049300009D00AE0FF1D27F00707F7E8020108E0A9
:1049400032E01FE020E000B2C117042B01D140B2D9
:10495000C117031E71F1000307DA4FF0000CD0EB12
:104960000C006CEB01012D2302E0230504D52B2361
:104970008DF82430012303E0E30701D02023F7E77B
:10498000984658E00A2110E010210EE010204FF068
:10499000000B08900CE010214FF0000B44F00404D1
:1049A0004FF00809089103E008214FF0000B08912F
:1049B000C4F30253022B04D001CF0021032B06D0F5
:1049C00006E0FF1D27F00707F7E8020103E080B2C9
:1049D000042B00D1C0B24FF0000823072BD5702A5A
:1049E00007D0DDF820C08CF0100C5CEA0B0C05D071
:1049F0000EE040238DF82430012308E050EA010343
:104A000006D030238DF824308DF8252002239846D7
:104A1000DDF820C08CF0080C5CEA0B0C0BD150EADE
:104A2000010301D1630706D530238DF824304FF000
:104A30000108A9F10109582A04D038A20B9208AA4A
:104A40000A920BE03AA2F9E75B46089AFBF7CAFB29
:104A50000B9B9B5C0A9A521E0A92137050EA010249
:104A6000F2D10A98ADEB000000F1200B600702D5EF
:104A700024F4803401E04FF00109D94502DDA9EBAF
:104A80000B0000E0002000EB0B0141440890AAEB72
:104A9000010AE00306D4DDE90F232146504600F069
:104AA00063F806444FF0000908E009A911F809006D
:104AB000DDE90F12904709F10109761CC145F4DBCD
:104AC000E0030CD5DDE90F232146504600F04CF8F9
:104AD000064404E0DDE90F1230209047761C089967
:104AE000481E08900029F5DC08E00A980A99007829
:104AF000491C0A91DDE90F129047761CBBF10001B9
:104B0000ABF1010BF1DC21465046DDE90F2300F04B
:104B100019F806446D1C1BE60928010030313233B8
:104B200034353637383961626364656600000000E9
:104B300030313233343536373839414243444546D3
:104B4000000000002DE9F041044600251E461746EE
:104B5000880404D405E039462020B0476D1C641E4B
:104B6000F9D52846BDE8F0812DE9F041044600253D
:104B70001E469046C80301D5302700E02027880450
:104B800004D505E041463846B0476D1C641EF9D592
:104B90002846BDE8F0810A68531C0B60107070470E
:104BA0001CB5FCF7D3F9FFF7CDF9FFF727F9FFF7AD
:104BB000ADF8FFF7DDF8FFF7A3F9FFF7A1FA1F48FB
:104BC0001FA182882148FFF781FD204DDFF88090EA
:104BD0001026DFF8808040F2FF7AA5F140072024FC
:104BE0004FF4387B02214846FCF796F90120FCF788
:104BF00045F85046FFF7F8F9FBF75EFCFFF71EFD9E
:104C0000CDE900651023C8225A210A20FFF726FCAF
:104C1000CDE9004720235A4696210A20FFF71EFCC3
:104C2000CDE9004820234FF42F72F0217820FFF7C0
:104C300015FC4FF4FA70FCF721F8D3E7340000209C
:104C40004C43442049443A25303458008200002027
:104C5000000402400C0000200000000000000000E2
:104C600000000000000000003F40000000000000C5
:104C700000003000400030004000000009000BC080
:104C80003D000BC03D00090018C024407FE02240D9
:104C900031800000180024C01B000D8032400180CC
:104CA00003801C4027401C8007400040100060002B
:104CB00000000000000000000000000000001F8055
:104CC000204040200000402020401F8000000000C5
:104CD000090006001F80060009000000040004000F
:104CE0003F8004000400000000100060000000008D
:104CF00000000000040004000400040004000000A0
:104D0000000000400000000000000000002001C082
:104D100006003800400000001F8020402040204056
:104D20001F800000000010403FC000400000000055
:104D300018C021402240244018400000108020402C
:104D4000244024401B80000002000D0011003FC0E1
:104D5000014000003C802440244024402380000087
:104D60001F80244024403440038000003000200095
:104D700027C03800200000001B802440244024402D
:104D80001B8000001C0022C0224022401F80000027
:104D900000000000084000000000000000000000CB
:104DA0000460000000000000000004000A00110080
:104DB00020804040090009000900090009000000A6
:104DC00000004040208011000A000400180020006C
:104DD00023402400180000001F8020402740294065
:104DE0001F400000004007C039000F0001C0004014
:104DF00020403FC0244024401B8000001F802040F2
:104E0000204020403080000020403FC02040204013
:104E10001F80000020403FC024402E4030C00000D2
:104E200020403FC024402E00300000000F001080C2
:104E3000204022403380020020403FC00400040094
:104E40003FC02040204020403FC020402040000084
:104E50000060202020203FC02000200020403FC0D4
:104E600024400B0030C0204020403FC02040004084
:104E7000004000C03FC03C0003C03C003FC00000F9
:104E800020403FC00C4023003FC020001F80204036
:104E9000204020401F80000020403FC024402400CC
:104EA000180000001F802140214020E01FA00000CA
:104EB00020403FC02440260019C0004018C02440B4
:104EC0002440224031800000300020403FC020407C
:104ED0003000000020003F80004000403F80200064
:104EE00020003E0001C0070038002000380007C045
:104EF0003C0007C038000000204039C0060039C01F
:104F0000204000002000384007C03840200000004A
:104F1000304021C02640384020C000000000000082
:104F20007FE0402040200000000070000C00038063
:104F3000004000000000402040207FE00000000012
:104F400000002000400020000000000000100010C1
:104F500000100010001000100000000040000000D1
:104F600000000000000002800540054003C0004032
:104F700020003FC004400440038000000000038084
:104F80000440044006400000000003800440244028
:104F90003FC0004000000380054005400340000082
:104FA000000004401FC0244024402000000002E014
:104FB000055005500650042020403FC00440040026
:104FC00003C000400000044027C000400000000073
:104FD00000100010041027E00000000020403FC037
:104FE0000140070004C00440204020403FC0004072
:104FF0000040000007C0040007C0040003C0000018
:10500000044007C00440040003C0004000000380C7
:105010000440044003800000041007F004500440E2
:1050200003800000000003800440045007F00010DB
:10503000044007C0024004000400000000000640D5
:105040000540054004C00000000004001F8004402B
:1050500000400000040007800040044007C00040FA
:105060000400070004C0018006000400060001C01F
:10507000070001C006000000044006C0010006C091
:10508000044000000410071004E001800600040042
:105090000000044005C0064004400000000000007D
:1050A00004007BE040200000000000000000FFF052
:1050B00000000000000040207BE004000000000031
:1050C0004000800040002000200040000000000060
:1050D00000000000000000000000000000000000D0
:1050E00000001FCC000C00000000000000000800C1
:1050F000300060000800300060000000022003FC67
:105100001E20022003FC1E200220000000000E18BA
:1051100011043FFF10840C78000000000F00108481
:105120000F3800C0077818840078000000780F84DA
:1051300010C411240E9800E40084000808006800E0
:1051400070000000000000000000000000000000EF
:10515000000007E018182004400200000000400290
:105160002004181807E00000000000000240024080
:1051700001800FF0018002400240000000800080AA
:1051800000800FF800800080008000000001000D0A
:10519000000E000000000000000000000000008081
:1051A0000080008000800080008000800000000CF3
:1051B000000C0000000000000000000000000006DD
:1051C000001800600180060018002000000007F0B1
:1051D000080810041004080807F000000000080484
:1051E00008041FFC000400040000000000000E0C76
:1051F00010141024104411840E0C000000000C1830
:1052000010041104110412880C700000000000E06A
:105210000320042408241FFC0024000000001F9821
:10522000108411041104108810700000000007F0B1
:1052300008881104110418880070000000001C0088
:10524000100010FC13001C001000000000000E38BD
:1052500011441084108411440E380000000007002F
:10526000088C10441044088807F00000000000007B
:105270000000030C030C0000000000000000000010
:105280000001010600000000000000000000008096
:10529000014002200410080810040000022002202F
:1052A0000220022002200220022000000000100440
:1052B00008080410022001400080000000000E00D9
:1052C0001200100C106C10800F00000003E00C188E
:1052D00013E4142417C4082807D000000004003C7D
:1052E00003C41C40074000E4001C000410041FFC21
:1052F0001104110411040E880070000003E00C1862
:1053000010041004100410081C10000010041FFCEE
:10531000100410041004080807F0000010041FFC1B
:105320001104110417C410040818000010041FFC15
:105330001104110017C010000800000003E00C1851
:105340001004100410441C780040000010041FFCDE
:1053500010840080008010841FFC100400001004E2
:1053600010041FFC100410040000000000030001E2
:10537000100110011FFE10001000000010041FFC9F
:10538000110403801464181C1004000010041FFC96
:105390001004000400040004000C000010041FFCB2
:1053A0001F0000FC1F001FFC1004000010041FFC65
:1053B0000C04030000E010181FFC100007F00808A0
:1053C000100410041004080807F0000010041FFC6B
:1053D00010841080108010800F00000007F0081863
:1053E00010241024101C080A07F2000010041FFCEF
:1053F0001104110011C011300E0C000400000E1C2D
:1054000011041084108410441C380000180010008F
:1054100010041FFC100410001800000010001FF8FA
:1054200010040004000410041FF8100010001E00F7
:1054300011E0001C007013801C0010001FC0103C05
:1054400000E01F0000E0103C1FC000001004180C1A
:10545000163401C001C01634180C100410001C00D2
:10546000130400FC13041C00100000000804101CAE
:105470001064108413041C041018000000000000C5
:1054800000007FFE400240024002000000003000A9
:105490000C0003800060001C0003000000004002BC
:1054A000400240027FFE00000000000000000000FB
:1054B00020004000400040002000000000010001EA
:1054C0000001000100010001000100010000400096
:1054D00040002000000000000000000000000098D4
:1054E000012401440144014400FC000410001FFC9D
:1054F00000880104010400880070000000000070B2
:10550000008801040104010400880000000000700C
:1055100000880104010411081FFC0004000000F8C9
:10552000014401440144014400C80000000001049A
:1055300001040FFC1104110411001800000000D632
:1055400001290129012901C90106000010041FFCDD
:10555000008401000100010400FC000400000104BB
:10556000190419FC000400040000000000000003FE
:1055700000010101190119FE0000000010041FFCC8
:105580000024004001B4010C0104000000001004DC
:1055900010041FFC0004000400000000010401FCD2
:1055A0000104010001FC0104010000FC010401FCF4
:1055B000008401000100010400FC0004000000F868
:1055C000010401040104010400F80000010101FFCD
:1055D00000850104010400880070000000000070D4
:1055E000008801040104010501FF00010104010418
:1055F00001FC00840104010001800000000000CCD7
:10560000012401240124012401980000000001006C
:10561000010007F80104010400000000010001F886
:10562000000400040004010801FC000401000180E2
:105630000170000C001001600180010001F0010CFC
:10564000003001C00030010C01F001000000010435
:10565000018C00740170018C0104000001010181C2
:105660000171000E0018016001800100000001843A
:10567000010C013401440184010C00000000000011
:105680000000000001003EFC40024002000000005B
:1056900000000000FFFF00000000000000004002CA
:1056A00040023EFC0100000000000000000060001D
:1056B000800080004000400020002000000000002A
:1056C00000000000000000000000000000000000DA
:1056D00000000000000000000000000000000000CA
:1056E0000000000000000000000000000000000FAB
:1056F00080380FFE380F80380000000000000000E6
:105700000000000000000000000001000006000092
:105710000C00003800003100000600000C000038CA
:105720000000300000000000000000006180006701
:10573000F807F9800061800061800061800061806D
:105740000067F807F9800061800000000000000099
:10575000000001C0E003E0F00630080418081FFF55
:10576000FE040E080787F00381E00000000000003F
:1057700001F000060C00040408060C7001F9C000DA
:105780000E00003BE000EC18070808040C180003AA
:10579000E00000000001E00007F003F818041C0816
:1057A00004170807E1D003C0E00023B0003C080064
:1057B000200800001000000000000001000031007F
:1057C000003200001C00000000000000000000008B
:1057D00000000000000000000000000000000000C9
:1057E0000000000000000000000000007F0001FF3A
:1057F000C00780F00C001810000420000200000018
:105800000000002000021000040C00180780F001C6
:10581000FFC0007F0000000000000000000000004A
:10582000000000000000000042000066000066006A
:10583000003C0000180003FFC0001800003C0000FE
:10584000660000660000420000000000080000083A
:105850000000080000080000080001FFC000080068
:105860000008000008000008000008000000000018
:10587000000100003100003200001C0000000000A8
:105880000000000000000000000000000000000018
:1058900000000000080000080000080000080000E8
:1058A00008000008000008000008000008000008C8
:1058B0000000000000000000000000003800003878
:1058C00000003800000000000000000000000000A0
:1058D00000000000000000000000000000060000C2
:1058E0001C000070000180000E0000380000C000A5
:1058F0000700001C00003000000000000000000055
:105900007F8001FFE0038070060018040008040097
:105910000806001803807001FFE0007F800000008F
:105920000000000000000100080100080100080359
:10593000FFF807FFF800000800000800000800005A
:105940000000000000000001C03802C058040098A8
:10595000040118040218040418061C1803F818019E
:10596000E0F800000000000000000001C0E003C0FB
:10597000F004000804080804080806180803F418CE
:1059800001E7F00001E0000000000000000000005E
:105990000300000D000011000061000081080301F8
:1059A0000807FFF80FFFF8000108000108000000D9
:1059B0000000000000E007FCD006080806100806FA
:1059C0001008061008061838060FF00607C0000079
:1059D00000000000000000003F8001FFE003843071
:1059E000020818041008041008041008071810030F
:1059F0000FF00007C000000000000000000003C01E
:105A0000000700000600000600F80607F806180068
:105A100006E0000700000600000000000000000192
:105A2000E1E003F7F0063410041808041808040C29
:105A300008040C0806161803F3F001C1E00000008A
:105A400000000000F80003FC3003063804020804DC
:105A500002080402080404100308F001FFC0007FDC
:105A60000000000000000000000000000000000036
:105A7000000000007038007038007038000000002E
:105A80000000000000000000000000000000000016
:105A90000000000000000000301A00301C00000070
:105AA00000000000000000000000000000000000F6
:105AB00000000008000014000022000041000080E7
:105AC00080010040020020040010080008000000CF
:105AD0000000000021000021000021000021000042
