:020000040800F2
:1000000010050020C1010008DB0F0008610F000887
:10001000D90F0008F1020008491300080000000091
:10002000000000000000000000000000DF0F0008DA
:10003000F302000800000000DD0F0008E10F0008D7
:10004000DB010008DB010008DB010008DB01000820
:10005000DB010008DB010008DB010008DB01000810
:10006000DB010008DB010008DB010008DB01000800
:10007000DB010008DB010008DB010008DB010008F0
:10008000DB010008DB010008DB010008DB010008E0
:10009000DB010008DB010008DB010008DB010008D0
:1000A000DB010008DB010008DB010008DB010008C0
:1000B000DB010008DB010008DB010008DB010008B0
:1000C000DB010008DB010008DB010008DB010008A0
:1000D000DB0100083D130008DB010008DB0100081C
:1000E000DB010008DB010008DB010008DB01000880
:1000F000DB010008DB010008DB010008DB01000870
:10010000DB010008DB010008DB010008DB0100085F
:10011000DB010008DB010008DB010008DB0100084F
:10012000DB010008DB010008DB010008DB0100083F
:10013000DB010008DB010008DB010008DB0100082F
:10014000DB010008DB010008DB010008DB0100081F
:10015000DB010008DB010008DB010008DB0100080F
:10016000DB010008DB010008DB010008DB010008FF
:10017000DB010008DB010008DB01000800000000D3
:10018000DB010008DB010008DB010008DB010008DF
:10019000DB010008DB010008DB010008DB010008CF
:1001A000DB010008DB010008DB010008DFF80CD0F0
:1001B00000F08CF800480047091A000810050020DC
:1001C0000648804706480047FEE7FEE7FEE7FEE7F1
:1001D000FEE7FEE7FEE7FEE7FEE7FEE76D1000083C
:1001E000AD0100082DE9F05F0546002092469B46D0
:1001F00088460646814640241BE02846414647463D
:10020000224600F053F853465A46C01A914110D383
:1002100011461846224600F03AF82D1A67EB0108FD
:100220004F4622460120002100F031F817EB00096B
:100230004E41201EA4F10104DFDC484631462A4627
:100240004346BDE8F09F40EA01039B0703D009E065
:1002500008C9121F08C0042AFAD203E011F8013BB2
:1002600000F8013B521EF9D27047D2B201E000F80B
:10027000012B491EFBD270470022F6E710B513464A
:100280000A4604461946FFF7F0FF204610BD202A13
:1002900004DB203A00FA02F1002070479140C2F1DD
:1002A000200320FA03F3194390407047202A04DB0F
:1002B000203A21FA02F00021704721FA02F3D040DF
:1002C000C2F120029140084319467047064C074D81
:1002D00006E0E06840F0010394E807009847103416
:1002E000AC42F6D3FFF766FF441B0008641B00080E
:1002F000FEE77047704790F83510022903D080213F
:10030000416501207047052180F8351000680168BB
:1003100021F00101016000207047000070B5044623
:1003200000F0F8F80546601C02D004480078044448
:1003300000F0F0F8401BA042FAD370BD0800002086
:100340002DE9F84F00224FF0010803254FF00F0E62
:100350000B6808FA02F42340A3426ED14E68012EC6
:1003600005D0022E03D0112E01D0122E12D1866894
:100370004FEA420C05FA0CF7BE43CF6807FA0CF7B8
:10038000374387604668A6430C79C4F30014944051
:1003900034434460C668570005FA07FC8C6826EAB7
:1003A0000C06BC403443C4604C68022C01D0122CB3
:1003B00013D1D40800EB8404A346D4F8209054074A
:1003C0004FEAD46A0EFA0AF629EA06090E6906FA15
:1003D0000AF646EA0906CBF8206004680E7924EA9A
:1003E0000C0406F00306BE40264306604C68E40099
:1003F0006FD53B4C266846F480462660246822F080
:10040000030604F480440094364C3444A446D4F8E3
:1004100008489607360F0EFA06F7BC43324FB8422B
:1004200001D100272EE0314FB84201D1012729E048
:100430002F4FB84202D1022724E04AE02D4FB842A4
:1004400001D103271EE02C4FB84201D1042719E047
:100450002A4FB84201D1052714E0294FB84201D1F3
:1004600006270FE0274FB84201D107270AE0264FA1
:10047000B84201D1082705E0244FB84201D109272D
:1004800000E00A27B7402743CCF80878204E3468AC
:100490004F689C43FF0300D51C4334601C4E361D3F
:1004A00034684F689C43BF0300D51C433460184E2A
:1004B000083634684F689C43FF0200D51C43346003
:1004C000134E0C3634684F689C43BF0200D51C4362
:1004D0003460521C102AFFF43BAFBDE8F88F0000D7
:1004E0004438024000300140000002400004024055
:1004F00000080240000C02400010024000140240BC
:1005000000180240001C024000200240002402406B
:10051000003C01400148806870470000080000204E
:100520000248816802781144816070470800002009
:100530000B4810B5016841F400710160016841F495
:1005400080610160016841F480710160032000F066
:1005500071F8002000F006F800F024F8002010BD2B
:10056000003C024070B50D4D04464FF47A71287876
:10057000B1FBF0F00A490968B1FBF0F000F03EFB76
:1005800048B9102C07D200222146501E00F032F844
:1005900000206C6070BD012070BD000008000020CC
:1005A000140000200B4882B0016841F480410160D2
:1005B000006800F4804000900648001F016841F088
:1005C00080510160006800F080500090052002B06A
:1005D00000F030B844380240002809DB00F01F0268
:1005E000012191404009800000F1E020C0F8001195
:1005F00070470000F0B40E4B1B680C46C3F3022397
:10060000C3F10705042D00D90425191D072901D2BE
:10061000002300E0DB1E012606FA05F1491E2140F9
:1006200099409E40761E16403143F0BC00F09EBEBD
:100630000CED00E0064900F0070208684FF6FF03E2
:10064000184040EA0220034A104308607047000047
:100650000CED00E00000FA052DE9F84317480168A9
:1006600041F0805101600068154F00F08050012674
:1006700000903E64FFF74EFF05464FF47A78114C28
:1006800005E000BFFFF746FF401B40450DD86068FE
:10069000C003F7D57E64FFF73DFF0546464607E0F9
:1006A000FFF738FF401BB04202D90320BDE8F883B2
:1006B00060688003F4D50020F8E70000403802406D
:1006C00000000E42007000402DE9F0470E46050084
:1006D00065D0DFF81481D8F80000F7B200F00F0001
:1006E000B04207D288F80070D8F8000000F00F0080
:1006F000B04254D128683D4C810712D5400703D53C
:10070000206840F4E05020602878000703D5206876
:1007100040F4604020602068A96820F0F0000843A1
:1007200020602878C0072DD0304968680839012832
:1007300012D0022813D0032811D009688907002994
:100740002DDA216821F0030101432160FFF7E2FE69
:10075000814641F2883A0EE009688903EFE70968AB
:100760008901ECE7FFF7D6FEA0EB0901514502D95C
:100770000320BDE8F0872068696800F00C00B0EB4A
:10078000810FEFD1D8F80010404601F00F01B142BF
:1007900007D90770006800F00F00B04201D00120B7
:1007A000E7E72878400705D52068E96820F4E0509D
:1007B000084320602878000706D52068296920F4BE
:1007C000604040EAC100206000F038F82168084A23
:1007D000C1F30311515CC84006490860064800682F
:1007E000FFF7C0FE0020C4E7003C0240083802408A
:1007F0002C1B0008140000200C00002004480549B0
:1008000000680968044AC1F38221515CC8407047FE
:1008100014000020083802403C1B00080448054929
:1008200000680968044AC1F34231515CC84070470E
:1008300014000020083802403C1B0008154810B581
:10084000006810F00C02144813D01449042A0FD089
:10085000082A0ED10F4C241F2268236802F03F02A1
:100860005B0207D52068C0F38810A0FB010106E0F9
:10087000084610BD2168C1F38811A1FB00010023C7
:10088000FFF7B0FC2168C1F30141491C4900B0FBEE
:10089000F1F010BD083802400024F40040787D01DA
:1008A0002DE9F84F04006ED02078DFF83C93C007A4
:1008B000A9F104054AD009F104000168C1F38101DE
:1008C000012908D00068C0F3810002280AD1D9F8B4
:1008D0000000400206D52868800337D560680028EC
:1008E000E1D033E06068B0F5803F10D0B0F5A02FC4
:1008F000286810D020F480302860286820F48020F8
:1009000028606068A8B1FFF705FE06460DE028687C
:1009100040F48030F4E740F480202860F7E700BF1F
:10092000FFF7F8FD801B642873D828688003F7D58B
:100930000CE0FFF7EFFD064605E000BFFFF7EAFD1C
:10094000801B6428F0D828688003F7D42078DFF86B
:100950009C8280074FF0000A3ED5A348001D016825
:1009600011F00C0F08D00068C0F3810002280BD1F1
:10097000D9F80000400207D42868800716D5E0683F
:10098000012800D112E02BE1E068B8B10120C8F8DD
:100990000000FFF7BFFD064605E000BFFFF7BAFD08
:1009A000801B0228C0D828688007F7D528682169ED
:1009B00020F0F80040EAC10028600DE0C8F800A06F
:1009C000FFF7A8FD064604E0FFF7A4FD801B022800
:1009D0001FD828688007F7D42078000722D5824ED8
:1009E00083486169703671B101210160FFF792FDA2
:1009F000074604E0FFF78EFDC01B022809D83068C7
:100A00008007F7D50EE0C0F800A0FFF783FD07468A
:100A100005E082E0FFF77EFDC01B02287DD830682C
:100A20008007F7D42078400768D5DFF8BCB10027ED
:100A30000BF13C0BDBF80000C0000BD4DBF800101E
:100A400041F08051CBF80010DBF80000012700F0E6
:100A500080500090674E3068C00510D4306840F474
:100A600080703060FFF756FD009005E0FFF752FD03
:100A70000099401A022850D83068C005F6D55A4E61
:100A8000A0686C3601280FD00528306810D020F0FF
:100A900001003060306820F004003060A068B8B118
:100AA000FFF738FD00900FE0306840F00100F4E7F8
:100AB00040F004003060F7E7FFF72CFD0099411A81
:100AC00041F28830814266D830688007F4D50EE064
:100AD000FFF720FD009007E0FFF71CFD0099411A89
:100AE00041F28830814256D830688007F4D42FB163
:100AF000DBF8001021F08051CBF80010A069C8B3DA
:100B00003949091D0968C1F3810102294AD0022827
:100B1000504607D0C8F8600000E03CE0FFF7FAFC60
:100B200004463BE04746C8F86000FFF7F3FC064682
:100B300005E000BFFFF7EEFC801B02282BD82868D9
:100B40008001F7D4D4E907010843A16A2A4A490879
:100B500002EB0141626A41EA8211084394F82C10C9
:100B600040EA0161C9F8001001203866FFF7D2FCA5
:100B7000044606E036E000BFFFF7CCFC001B02286D
:100B800009D828688001F7D52CE000BFFFF7C2FC28
:100B9000001B022802D90320BDE8F88F28688001D5
:100BA000F4D41FE00128F7D0D9F80000E26900F47E
:100BB0008001914214D1226A00F03F0191420FD18D
:100BC00047F6C071626A0140914209D1A26A00F4FD
:100BD0004031914204D1E16A00F07060884201D056
:100BE0000120D9E70020D7E704380240000047423F
:100BF000800E4742007000400000FFFF10B5401E0D
:100C0000B0F1807F01D3012010BD4FF0E02460617E
:100C10000F21601700F0AAFB0020A06107202061CF
:100C2000002010BD7047000070B5026804461068CF
:100C3000D168536910F00F0F52D003F0010501F491
:100C400090762E435FD0C20705D0CA0503D5E26B6C
:100C500042F00102E263420705D5DA0703D0E26BF6
:100C600042F00202E263820705D5DA0703D0E26BA5
:100C700042F00402E263020707D501F020022A4392
:100C800003D0E26B42F00802E263E26B002A33D049
:100C9000800604D5880602D5204600F00BFA2068AD
:100CA0004069E16BC0F38010090700D428B32046E7
:100CB00000F0F2F92068416949061AD5416921F02E
:100CC00040014161606BA0B11B490165606BFFF79A
:100CD00012FB002810D0606B016DBDE87040084722
:100CE000830610D58B060ED52046BDE8704000F077
:100CF000E1B92046FFF796FF70BD2046FFF792FF4F
:100D00000020E06370BD030606D50B0604D520461F
:100D1000BDE8704000F0AEBA4006F3D54806F1D504
:100D2000D168204621F04001D160202184F839109B
:100D300000F015F970BD00008910000870B50400BE
:100D400004D094F83900002510B106E0012070BDF0
:100D500084F83850204600F023F8242084F8390025
:100D60002068C16821F40051C160204600F0EEF90E
:100D70002068016921F4904101612068416921F0F6
:100D80002A0141612068C16841F40051C160E563F6
:100D9000202084F8390084F83A00002070BD00005B
:100DA00010B586B0044614216846FFF765FA184965
:100DB0002068884229D117480021026842F01002B9
:100DC0000260006800F010000590124814380268B4
:100DD00042F001020260006800F0010005904FF44B
:100DE000C06000900220CDE901010320039007209C
:100DF000049069460848FFF7A3FA00220121252044
:100E0000FFF7F8FB2520FFF7E7FB06B010BD000059
:100E100000100140443802400000024090F83A308F
:100E2000202B22D1F9B1F2B190F83830012B1CD02F
:100E300081628285C2850021C163222280F83A2026
:100E400080F838100168CA6842F48072CA6001688C
:100E50004A6942F001024A610068C16841F020011C
:100E6000C1600020704701207047022070470000D9
:100E700010B509490068096888420BD10122074969
:100E8000074800F079FDBDE81040012203490248FF
:100E9000FFF7C4BF10BD0000D000002003000020F9
:100EA0001C0000202DE9F843044690F839001F4645
:100EB00016460D46202850D1B5B1AEB194F8380091
:100EC00001284AD0012084F838004FF00008C4F807
:100ED0003C80212084F83900FFF71CFBA684814662
:100EE000E68484F8388026E00120BDE8F883E08CB1
:100EF000401EE084A0684B46B0F5805F4FF00002D2
:100F00004FF080012046009703D000F0E4F9E8B9E3
:100F10000DE000F0E0F9C8B928882168C0F30800A6
:100F20004860206908B16D1C05E0AD1C03E0216834
:100F300015F8010B4860E08C0028D8D14B46002200
:100F400040212046009700F0C6F908B10320CCE705
:100F5000202084F839000020C7E70220C5E7704749
:100F6000FEE700000D4808B5016841F0040101608A
:100F7000016801F004010091016841F08001016005
:100F8000016801F080010091016841F001010160F8
:100F9000006800F00100009008BD000030380240F9
:100FA0000C4810B50A4901604FF4E131416000215D
:100FB00081600C22C160C0E904128161C161FFF748
:100FC000BDFE002803D0BDE81040FFF793B910BD67
:100FD00000100140D0000020FEE7704770477047C6
:100FE000FFF79EBA70B592B030216846FFF744F91A
:100FF00014210CA8FFF740F91A480025016841F0B8
:1010000080510160006800F080501190164801681E
:1010100041F4404101600068022400F44040119016
:1010200001200090000401908001CDE906400F26C8
:101030000896D820CDE9090404200B906846FFF7F4
:101040002FFCFFF709FB4FF4A050CDE90E50E00252
:10105000CDE90C64109005210CA8FFF735FB12B008
:1010600070BD000040380240007000400548016833
:1010700041F47001016003494FF00060803908605D
:101080007047000088ED00E010B5806B0021C1853D
:10109000C184FFF7C7FD10BD0168CA6822F49072D1
:1010A000CA6001684A6922F001024A61202180F881
:1010B0003A10704710B590F83A10222901D002205A
:1010C00010BD8168B1F5805F11D001690029016808
:1010D0001FD0496801F07F03816A4A1C82620B704D
:1010E000C18D491E0904090CC18518D02BE0026985
:1010F000816A002A0268526805D0D2B20A80816AE9
:10110000491C8162ECE7C2F308020A80816A891CEB
:10111000F7E74A68816A4B1C83620A70E0E701685E
:10112000CA6822F02002CA600168CA6822F480728C
:10113000CA6001684A6922F001024A61202180F8F0
:101140003A10FFF795FE002010BD00002DE9F04198
:10115000044600680169E26821F4405111430161CD
:101160002169A068E2690843616911430843216865
:10117000CA6849F20C639A430243CA602068416915
:10118000A26921F4407111434161E0691927642586
:101190003226B0F5004F354A354920684FF0000837
:1011A00006D0884201D0904236D1FFF737FB35E0B8
:1011B000884201D0904202D1FFF730FB01E0FFF7F7
:1011C0001DFB61684A18A0FB070148EB0803FFF705
:1011D00009F80146B0FBF5F00201B1FBF5F06FF044
:1011E0001803584301EB800006EBC000B0FBF5F09C
:1011F00000F0F80002EB4002B1FBF5F0584301EBC0
:10120000800006EBC000B0FBF5F000F0070021689D
:1012100010448860BDE8F081FFF7F0FA61688B0F39
:101220008A00A0FB0701FEF7DDFF0146B0FBF5F0E9
:101230006FF01802504301EB800006EB0010B0FB8A
:10124000F5F000F0F002B1FBF5F002EB0012B1FB9B
:10125000F5F06FF01803584301EB800006EB001027
:10126000B0FBF5F000F00F00D1E7000000140140E2
:101270000010014090F83910212901D00220704758
:101280008168B1F5805F016A0BD04A1C0262026876
:1012900009785160C18C491E0904090CC1840ED023
:1012A00017E009880268C1F308015160016900294B
:1012B000016A02D0491C0162ECE7891CFBE7016866
:1012C000CA6822F08002CA600068C16841F040012B
:1012D000C160002070472DE9F041984617460E4640
:1012E0000446069D1DE0681C1BD02DB1FFF712F9C6
:1012F000A0EB0800A84214D92068C16821F4D0717D
:10130000C1602068416921F001014161202084F819
:10131000390084F83A00002084F838000320BDE842
:10132000F0812068006836EA000004D00020B8424E
:10133000D9D00020F3E70120F9E700000148FFF7CA
:1013400073BC0000D0000020FEE700000FB4054B86
:1013500010B503A9044A029800F028F810BC5DF803
:1013600014FB000011180008180000200907090EDE
:10137000002804DB00F1E02080F80014704700F042
:101380000F0000F1E02080F8141D704702E008C84B
:10139000121F08C1002AFAD170477047002001E0EF
:1013A00001C1121F002AFBD1704700002DE9FF4F39
:1013B0008DB00F460546002606E025280BD0DDE956
:1013C0000F1290476D1C761C28780028F5D111B0BB
:1013D0003046BDE8F08F0024A246A1460122EC4928
:1013E00000E0044315F8013F203B02FA03F00842F5
:1013F000F7D128782A2810D06FF02F022878A0F192
:101400003001092914D80AEB8A0102EB410144F0AA
:10141000020400EB010A6D1CF0E701CF5FEA000A4D
:1014200003D544F40054CAF1000A44F002046D1CD0
:1014300028782E2817D115F8010F44F004042A2823
:101440000ED06FF02F022878A0F1300109290AD8B8
:1014500009EB890102EB410100EB01096D1CF2E788
:1014600057F8049B6D1C28786C280FD006DC4C289C
:1014700017D068280DD06A2814D104E0742810D041
:101480007A280FD10DE044F400140AE044F48014EB
:1014900001E044F440146978814202D104F58014DB
:1014A0006D1C6D1C2A786E2A1FD00CDC632A31D08B
:1014B00004DC002A8BD0582A11D1A3E0642A68D01A
:1014C000692A0CD165E0732A2ED004DC6F2A73D010
:1014D000702A04D19BE0752A6FD0782A6ED010460E
:1014E000DDE90F129047761C50E1C4F30250022848
:1014F00006D0032809D0042801CF09D0066045E1B1
:1015000001CFF117C0E9006140E101CF06803DE164
:1015100006703BE117F8040B8DF8000000208DF8F1
:101520000100EB46012003E057F804BB4FF0FF3009
:1015300061074FF0000102D40DE008F10101884677
:1015400049450FDA8045F8DB1BF808100029F4D173
:1015500008E008F1010188468142FADB1BF8081017
:101560000029F6D1DDE90F23AAEB080081462146C8
:1015700000F036F9304400EB080604E0DDE90F1214
:101580001BF8010B9047B8F10108F7D221464846F5
:10159000F7E00A21C4F302534FF0000B0891022B2D
:1015A00004D001CFC117032B09D00AE0FF1D27F09B
:1015B0000707F7E8020108E032E01FE020E000B290
:1015C000C117042B01D140B2C117031E71F10003F2
:1015D00007DA4FF0000CD0EB0C006CEB01012D236F
:1015E00002E0230504D52B238DF82430012303E0EA
:1015F000E30701D02023F7E7984658E00A2110E0DE
:1016000010210EE010204FF0000B08900CE010218C
:101610004FF0000B44F004044FF00809089103E078
:1016200008214FF0000B0891C4F30253022B04D0A1
:1016300001CF0021032B06D006E0FF1D27F007078E
:10164000F7E8020103E080B2042B00D1C0B24FF0F2
:10165000000823072BD5702A07D0DDF820C08CF0B6
:10166000100C5CEA0B0C05D00EE040238DF8243002
:10167000012308E050EA010306D030238DF824301E
:101680008DF8252002239846DDF820C08CF0080C48
:101690005CEA0B0C0BD150EA010301D1630706D5BC
:1016A00030238DF824304FF00108A9F10109582AA0
:1016B00004D038A20B9208AA0A920BE03AA2F9E7EA
:1016C0005B46089AFEF78EFD0B9B9B5C0A9A521EA6
:1016D0000A92137050EA0102F2D10A98ADEB0000B1
:1016E00000F1200B600702D524F4803401E04FF0B4
:1016F0000109D94502DDA9EB0B0000E0002000EB59
:101700000B0141440890AAEB010AE00306D4DDE98D
:101710000F232146504600F063F806444FF00009BD
:1017200008E009A911F80900DDE90F12904709F155
:101730000109761CC145F4DBE0030CD5DDE90F237C
:101740002146504600F04CF8064404E0DDE90F1253
:1017500030209047761C0899481E08900029F5DC37
:1017600008E00A980A990078491C0A91DDE90F12ED
:101770009047761CBBF10001ABF1010BF1DC214677
:101780005046DDE90F2300F019F806446D1C1BE6F6
:101790000928010030313233343536373839616247
:1017A000636465660000000030313233343536370B
:1017B0003839414243444546000000002DE9F041DC
:1017C000044600251E461746880404D405E0394621
:1017D0002020B0476D1C641EF9D52846BDE8F08175
:1017E0002DE9F041044600251E469046C80301D568
:1017F000302700E02027880404D505E0414638461C
:10180000B0476D1C641EF9D52846BDE8F081000084
:1018100013B500980A2806D147F23053012206A1D9
:101820000648FFF73FFB4FF6FF7301226946034866
:10183000FFF738FB00981CBD0D000000D000002011
:1018400098B10D4A016891420FD18169D24391420A
:101850000BD1416849B1816839B10269C0688242DF
:1018600007D0904203D9811A03E000207047101A74
:10187000091A481E70470000EFBEADDE78B10E4A6F
:10188000016891420BD18169D243914207D14168ED
:1018900029B182681AB10169C068814202D14FF052
:1018A0000000704702D9A1EB00007047A0EB0100D7
:1018B000A2EB000070470000EFBEADDE70B515462C
:1018C0000E4604000CD05EB155B11C21FEF7D4FCCD
:1018D0000448A560C4E90006C043A061012070BDB2
:1018E000002070BDEFBEADDE2DE9F04113460400CF
:1018F0000E463CD01F4A2068904238D1A069D2439E
:10190000904234D1606888B3A06878B376B36BB383
:101910002046FFF7B3FF984200D31846070026D0B1
:10192000D4E902100D1ABD4200D33D4661682A4633
:1019300001443046FEF787FCE0687F1B2844E060E6
:1019400005D070193A466168FEF77DFCE760D4E97E
:101950000201814201D30020E06063691BB1EA19F2
:10196000002120469847E819BDE8F081FFE70020F4
:10197000FAE70000EFBEADDE2DE9F04113460400AA
:101980000E463CD01F4A2068904238D1A069D2430D
:10199000904234D1606888B3A06878B376B36BB3F3
:1019A0002046FFF74DFF984200D31846070026D087
:1019B000A16820690D1ABD4200D33D4661682A46E0
:1019C00008443146FEF73FFC20697F1B2844206114
:1019D00005D071193A466068FEF735FC2761A168A9
:1019E0002069884201D30020206163691BB1EA1994
:1019F000012120469847E819BDE8F081FFE7002063
:101A0000FAE70000EFBEADDEFEF792FDFFF7EAFA5F
:101A1000FFF7A8FAFFF7C4FA29A0FFF797FC2C49B3
:101A20009622A1F11C00FFF749FF012802D029A04E
:101A3000FFF78CFC01222E492E48FFF7EFF92C4CC2
:101A4000E41E2DE020793F282AD12949204801228F
:101A5000491C1C38FFF748FF10F0FF00607004D0ED
:101A60002179217024A0FFF771FC002010E02049AB
:101A700017480122491C1C38FFF736FF10F0FF0001
:101A8000607003D0217924A0FFF760FCA078401C8F
:101A9000A0702178C0B28842E9D322A0FFF756FC9B
:101AA00013490B480122491C1C38FFF71DFF10F099
:101AB000FF006070C6D1C820FEF730FCF0E70000E0
:101AC00054657374204C7752420D0A0900000000DF
:101AD00038000020757361727431206C7772622057
:101AE000696E6974206661696C2E0D0A0000000041
:101AF00003000020D0000020796F757220646174AB
:101B000061206861732025642062797465287329D7
:101B10003A0D0A09000000005B3078253032785D0C
:101B2000200000006F7665720D0A000000000000C2
:101B3000000000000102030406070809000000007D
:101B400001020304641B0008000000201C000000C8
:101B50008C130008801B00081C000020F404000007
:101B60009C130008000000000000000001000000BD
:101B700010000000000000000024F400000000003D
:04000005080001AD41
:00000001FF
