:020000040800F2
:1000000080040020C1010008A7160008C9130008D9
:10001000A516000881040008B119000800000000BE
:10002000000000000000000000000000AB16000807
:100030008304000800000000A9160008AD1600089F
:10004000DB010008DB010008DB010008DB01000820
:10005000DB010008DB010008DB010008DB01000810
:10006000DB010008DB010008DB010008DB01000800
:10007000DB010008DB010008DB010008DB010008F0
:10008000DB010008DB010008DB010008DB010008E0
:10009000DB010008DB010008DB010008DB010008D0
:1000A000DB010008DB010008DB010008DB010008C0
:1000B000DB010008DB010008DB010008DB010008B0
:1000C000DB010008DB010008DB010008DB010008A0
:1000D000DB010008A5190008DB010008DB010008AE
:1000E000DB010008DB010008DB010008DB01000880
:1000F000DB010008DB010008DB010008DB01000870
:10010000DB010008DB010008DB010008DB0100085F
:10011000DB010008DB010008DB010008DB0100084F
:10012000DB010008DB010008DB010008DB0100083F
:10013000DB010008DB010008DB010008DB0100082F
:10014000DB010008DB010008DB010008DB0100081F
:10015000DB010008DB010008DB010008DB0100080F
:10016000DB010008DB010008DB010008DB010008FF
:10017000DB010008DB010008DB01000800000000D3
:10018000DB010008DB010008DB010008DB010008DF
:10019000DB010008DB010008DB010008DB010008CF
:1001A000DB010008DB010008DB010008DFF80CD0F0
:1001B00000F054F900480047E91C000880040020C2
:1001C0000648804706480047FEE7FEE7FEE7FEE7F1
:1001D000FEE7FEE7FEE7FEE7FEE7FEE73917000869
:1001E000AD0100082DE9F05F0546002092469B46D0
:1001F00088460646814640241BE02846414647463D
:10020000224600F0BDF853465A46C01A914110D319
:1002100011461846224600F0A4F82D1A67EB010893
:100220004F4622460120002100F09BF817EB000901
:100230004E41201EA4F10104DFDC484631462A4627
:100240004346BDE8F09FD2B201E000F8012B491E01
:10025000FBD270470022F6E710B513460A46044663
:100260001946FFF7F0FF204610BD2DE9F04D81EA59
:10027000030404F0004B21F0004514464FF0000A3F
:1002800023F0004150EA050220D054EA01021DD0BB
:10029000C5F30A570246C5F31303C1F31300C1F3B4
:1002A0000A5640F4801543F48013A7EB0608101B90
:1002B000D64608F2FD3873EB050002D308F10108B9
:1002C00001E092185B41B8F1000F03DA002001460B
:1002D000BDE8F08D00204FF48011064684460EE004
:1002E000171B73EB050705D3121B63EB05030643CE
:1002F0004CEA010C49084FEA300092185B4150EA81
:100300000107EDD152EA030012D082EA040083EA29
:100310000501084305D0101BAB4106D20122002382
:1003200006E000224FF0004302E06FF0010253109C
:100330001AEB06004CEB085110EB0A0041EB0B01E5
:10034000BDE8F04D00F02CB80EB540F233410291FB
:100350000021CDE900110A460B4600F030F803B049
:1003600000BD202A04DB203A00FA02F10020704789
:100370009140C2F1200320FA03F3194390407047E3
:10038000202A04DB203A21FA02F00021704721FAEA
:1003900002F3D040C2F12002914008431946704751
:1003A00010B5141E73F1000408DA401C41F100017D
:1003B00092185B411A4301D120F0010010BD2DE9D4
:1003C000F04D92469B4611B1B1FA81F202E0B0FACB
:1003D00080F220329046FFF7C4FF04460F4640EA01
:1003E0000A0041EA0B0153465A46084313D011460E
:1003F00053EA010019D0C8F140025046FFF7C0FF90
:1004000005460E46504659464246FFF7AAFF0843A6
:1004100005D0012004E020463946BDE8F08D0020DB
:10042000054346EAE0762C4337430A986305E40A1D
:10043000A0EB08000022FD0A44EA47540A3002D526
:1004400000200146E9E7010510196941DDE9084589
:1004500000196941BDE8F04DA2E70000064C074DC8
:1004600006E0E06840F0010394E807009847103484
:10047000AC42F6D3FFF79EFE501D0008701D000829
:10048000FEE7704770472DE9F0418846642430B19B
:10049000012808D002280AD003280FD10BE000273A
:1004A000012608250AE002270326042506E0042782
:1004B0000526022502E006270726012518212A2005
:1004C00000F092F806E018212A2000F08DF8641E52
:1004D00024B28CB12842F6D074B139462A2000F0FB
:1004E00083F8040431462A2000F07EF82043C8F83F
:1004F00000000120BDE8F0810020FBE770B57F21FE
:100500002A2000F071F804467E212A2000F06CF8C1
:10051000054601461EA001F04DFA214620A001F03B
:1005200049FAA5F5A840493804D023A001F042FAC1
:10053000002070BD00F07EF841F28831032000F009
:1005400033F9C821032000F047F9012202210320DA
:1005500000F076F8002000F0FAF8002000F0BFF874
:10056000002000F0ABF8002000F0E0F805220221A6
:10057000012000F00AF90B21032000F0C1F800204F
:1005800000F040F912A001F015FA012070BD000042
:100590004465766963652049443A307825780000DF
:1005A0004D414E5546414354555245525F494420B2
:1005B0003A30782578000000464443323231342006
:1005C000496E6974204661696C65642121000000F0
:1005D0004644433232313420496E69742053756386
:1005E000636573732121000070B50D46044600F069
:1005F000B5FF6006000E00F081FF00F0EFFF284617
:1006000000F07CFF00F0EAFF00F0A8FF012000EB03
:100610004400C0B200F072FF00F0E0FF012000F0E3
:1006200039FF0402002000F035FF044300F0B6FF5C
:10063000204670BD1C214FF400422A2000F0F3B880
:1006400070B504464FF6FF7000EA0135C2F30900A9
:100650000543164801551046FFF776FE41EC100B96
:1006600053EC102B9FED120B51EC100BFFF7FDFD1F
:10067000114A02EBC402C2E9000164B1012C0DD0A1
:10068000022C0ED0032C0FD12A461721BDE8704052
:100690002A2000F0C8B82A461421F7E72A46152177
:1006A000F4E72A461621F1E770BD0000180000208B
:1006B00000000000882A81416000002010B5044637
:1006C0001A212A20FFF790FF20F400720CB142F4A7
:1006D00000721A21BDE810402A2000F0A4B810B51D
:1006E00004461A212A20FFF77FFF20F400620CB194
:1006F00042F400621A21BDE810402A2000F093B8AD
:100700004FF6FF7202EAC12248B1012809D002283F
:1007100009D0032809D121212A2000F084B81E2104
:10072000FAE71F21F8E72021F6E7704710B50446E5
:100730001A212A20FFF758FF20F040020CB142F0A6
:1007400040021A21BDE810402A2000F06CB810B514
:1007500004461A212A20FFF747FF20F080020CB13F
:1007600042F080021A212A2000F05DF819212A2087
:10077000FFF73AFF20F001020CB142F0010219210B
:10078000BDE810402A2000F04EB838B1C00340EA5E
:100790004130104380B240F4027201E042F4027230
:1007A0001B212A2000F03FB8FF2914D950B101289D
:1007B0000BD002280CD003280DD10A460B212A2089
:1007C00000F031B80A460821F9E70A460921F6E7A0
:1007D0000A460A21F3E7704750B101280BD00228DE
:1007E0000CD003280DD10A4613212A2000F01BB893
:1007F0000A461021F9E70A461121F6E70A461221B6
:10080000F3E7704710B504461A212A20FFF7ECFEE3
:1008100020F400520CB142F400521A21BDE81040FD
:100820002A20AFF3008070B514460E46054600F04E
:1008300095FE6806000E00F061FE00F0CFFE304627
:1008400000F05CFE00F0CAFE200A00F057FE00F047
:10085000C5FEE0B200F052FE00F0C0FEBDE8704000
:1008600000F09CBE90F83510022903D0802141652C
:1008700001207047052180F835100068016821F0DB
:10088000010101600020704770B5044600F010F9C6
:100890000546601C02D004480078044400F008F9C2
:1008A000401BA042FAD370BD0800002010B50446DA
:1008B00000F072FA0849B0FBF1F000F073FC601E22
:1008C000FFF7E2FF00F068FA4FF47A71B0FBF1F045
:1008D000BDE8104000F066BC40420F002DE9F84F23
:1008E00000224FF0010803254FF00F0E0B6808FAA5
:1008F00002F42340A3426ED14E68012E05D0022E91
:1009000003D0112E01D0122E12D186684FEA420C6C
:1009100005FA0CF7BE43CF6807FA0CF73743876038
:100920004668A6430C79C4F30014944034434460F1
:10093000C668570005FA07FC8C6826EA0C06BC401E
:100940003443C4604C68022C01D0122C13D1D4085B
:1009500000EB8404A346D4F8209054074FEAD46AED
:100960000EFA0AF629EA06090E6906FA0AF646EAB6
:100970000906CBF8206004680E7924EA0C0406F01E
:100980000306BE40264306604C68E4006FD53B4C2E
:10099000266846F480462660246822F0030604F4A4
:1009A00080440094364C3444A446D4F80848960752
:1009B000360F0EFA06F7BC43324FB84201D100277A
:1009C0002EE0314FB84201D1012729E02F4FB84224
:1009D00002D1022724E04AE02D4FB84201D103277B
:1009E0001EE02C4FB84201D1042719E02A4FB8422B
:1009F00001D1052714E0294FB84201D106270FE0A5
:100A0000274FB84201D107270AE0264FB84201D14B
:100A1000082705E0244FB84201D1092700E00A2742
:100A2000B7402743CCF80878204E34684F689C4381
:100A3000FF0300D51C4334601C4E361D34684F68DC
:100A40009C43BF0300D51C433460184E08363468FD
:100A50004F689C43FF0200D51C433460134E0C3694
:100A600034684F689C43BF0200D51C433460521C5D
:100A7000102AFFF43BAFBDE8F88F00004438024075
:100A80000030014000000240000402400008024023
:100A9000000C024000100240001402400018024006
:100AA000001C02400020024000240240003C0140A3
:100AB00001488068704700000800002002488168F3
:100AC0000278114481607047080000200B4810B57F
:100AD000016841F400710160016841F480610160C6
:100AE000016841F480710160032000F071F800207A
:100AF00000F006F800F024F8002010BD003C024091
:100B000070B50D4D04464FF47A712878B1FBF0F0C2
:100B10000A490968B1FBF0F000F044FB48B9102C19
:100B200007D200222146501E00F032F800206C60EF
:100B300070BD012070BD00000800002014000020DE
:100B40000B4882B0016841F480410160006800F404
:100B5000804000900648001F016841F0805101600C
:100B6000006800F080500090052002B000F030B81E
:100B700044380240002809DB00F01F0201219140A7
:100B80004009800000F1E020C0F80011704700002B
:100B9000F0B40E4B1B680C46C3F30223C3F10705E8
:100BA000042D00D90425191D072901D2002300E0D6
:100BB000DB1E012606FA05F1491E214099409E40A0
:100BC000761E16403143F0BC00F004BF0CED00E08F
:100BD000064900F0070208684FF6FF03184040EA94
:100BE0000220034A10430860704700000CED00E04B
:100BF0000000FA052DE9F8431748016841F08051DB
:100C000001600068154F00F08050012600903E649E
:100C1000FFF74EFF05464FF47A78114C05E000BF10
:100C2000FFF746FF401B40450DD86068C003F7D56D
:100C30007E64FFF73DFF0546464607E0FFF738FFB5
:100C4000401BB04202D90320BDE8F88360688003EE
:100C5000F4D50020F8E700004038024000000E42C2
:100C6000007000402DE9F0470E46050065D0DFF822
:100C70001481D8F80000F7B200F00F00B04207D29C
:100C800088F80070D8F8000000F00F00B04254D18E
:100C900028683D4C810712D5400703D5206840F4F1
:100CA000E05020602878000703D5206840F46040B9
:100CB00020602068A96820F0F000084320602878B0
:100CC000C0072DD0304968680839012812D00228A1
:100CD00013D0032811D00968890700292DDA21686B
:100CE00021F0030101432160FFF7E2FE814641F25A
:100CF000883A0EE009688903EFE709688901ECE7A3
:100D0000FFF7D6FEA0EB0901514502D90320BDE84B
:100D1000F0872068696800F00C00B0EB810FEFD11C
:100D2000D8F80010404601F00F01B14207D9077012
:100D3000006800F00F00B04201D00120E7E72878FA
:100D4000400705D52068E96820F4E050084320609A
:100D50002878000706D52068296920F4604040EA19
:100D6000C100206000F03EF82168084AC1F3031179
:100D7000515CC8400649086006480068FFF7C0FE9D
:100D80000020C4E7003C024008380240381D00083B
:100D9000140000200C00002001480068704700008B
:100DA000140000200448054900680968044AC1F39A
:100DB0008221515CC840704714000020083802406E
:100DC000481D00080448054900680968044AC1F341
:100DD0004231515CC840704714000020083802407E
:100DE000481D0008154810B5006810F00C021448A2
:100DF00013D01449042A0FD0082A0ED10F4C241FF7
:100E00002268236802F03F025B0207D52068C0F326
:100E10008810A0FB010106E0084610BD2168C1F35F
:100E20008811A1FB00010023FFF7DCF92168C1F361
:100E30000141491C4900B0FBF1F010BD08380240E7
:100E40000024F40040787D012DE9F84F04006ED0B5
:100E50002078DFF83C93C007A9F104054AD009F1D6
:100E600004000168C1F38101012908D00068C0F3C2
:100E7000810002280AD1D9F80000400206D528686E
:100E8000800337D560680028E1D033E06068B0F5B2
:100E9000803F10D0B0F5A02F286810D020F480300B
:100EA0002860286820F4802028606068A8B1FFF7D7
:100EB000FFFD06460DE0286840F48030F4E740F47A
:100EC00080202860F7E700BFFFF7F2FD801B642851
:100ED00073D828688003F7D50CE0FFF7E9FD0646D4
:100EE00005E000BFFFF7E4FD801B6428F0D8286808
:100EF0008003F7D42078DFF89C8280074FF0000A47
:100F00003ED5A348001D016811F00C0F08D0006801
:100F1000C0F3810002280BD1D9F80000400207D4A9
:100F20002868800716D5E068012800D112E02BE17F
:100F3000E068B8B10120C8F80000FFF7B9FD064627
:100F400005E000BFFFF7B4FD801B0228C0D8286869
:100F50008007F7D52868216920F0F80040EAC10031
:100F600028600DE0C8F800A0FFF7A2FD064604E0E7
:100F7000FFF79EFD801B02281FD828688007F7D442
:100F80002078000722D5824E83486169703671B19E
:100F900001210160FFF78CFD074604E0FFF788FDA3
:100FA000C01B022809D830688007F7D50EE0C0F8CA
:100FB00000A0FFF77DFD074605E082E0FFF778FD22
:100FC000C01B02287DD830688007F7D420784007FE
:100FD00068D5DFF8BCB100270BF13C0BDBF8000053
:100FE000C0000BD4DBF8001041F08051CBF80010AA
:100FF000DBF80000012700F080500090674E306859
:10100000C00510D4306840F480703060FFF750FDA8
:10101000009005E0FFF74CFD0099401A022850D8D7
:101020003068C005F6D55A4EA0686C3601280FD03E
:101030000528306810D020F001003060306820F0C2
:1010400004003060A068B8B1FFF732FD00900FE0F7
:10105000306840F00100F4E740F004003060F7E74A
:10106000FFF726FD0099411A41F28830814266D887
:1010700030688007F4D50EE0FFF71AFD009007E016
:10108000FFF716FD0099411A41F28830814256D887
:1010900030688007F4D42FB1DBF8001021F08051C4
:1010A000CBF80010A069C8B33949091D0968C1F31C
:1010B000810102294AD00228504607D0C8F86000B2
:1010C00000E03CE0FFF7F4FC04463BE04746C8F88C
:1010D0006000FFF7EDFC064605E000BFFFF7E8FC07
:1010E000801B02282BD828688001F7D4D4E9070197
:1010F0000843A16A2A4A490802EB0141626A41EAAF
:101100008211084394F82C1040EA0161C9F80010DC
:1011100001203866FFF7CCFC044606E036E000BF4D
:10112000FFF7C6FC001B022809D828688001F7D504
:101130002CE000BFFFF7BCFC001B022802D90320F3
:10114000BDE8F88F28688001F4D41FE00128F7D0AB
:10115000D9F80000E26900F48001914214D1226ABA
:1011600000F03F0191420FD147F6C071626A014021
:10117000914209D1A26A00F44031914204D1E16A5E
:1011800000F07060884201D00120D9E70020D7E745
:101190000438024000004742800E47420070004081
:1011A0000000FFFF10B5401EB0F1807F01D3012089
:1011B00010BD4FF0E02460610F21601700F00AFCC1
:1011C0000020A06107202061002010BD70470000B2
:1011D00070B5026804461068D168536910F00F0FAB
:1011E00052D003F0010501F490762E435FD0C20780
:1011F00005D0CA0503D5E26B42F00102E263420763
:1012000005D5DA0703D0E26B42F00202E2638207FF
:1012100005D5DA0703D0E26B42F00402E26302076D
:1012200007D501F020022A4303D0E26B42F0080206
:10123000E263E26B002A33D0800604D5880602D52B
:10124000204600F09DFA20684069E16BC0F38010F1
:10125000090700D428B3204600F084FA20684169C9
:1012600049061AD5416921F040014161606BA0B186
:101270001B490165606BFFF7F5FA002810D0606B21
:10128000016DBDE870400847830610D58B060ED56A
:101290002046BDE8704000F073BA2046FFF796FF85
:1012A00070BD2046FFF792FF0020E06370BD03068B
:1012B00006D50B0604D52046BDE8704000F040BBC3
:1012C0004006F3D54806F1D5D168204621F040010B
:1012D000D160202184F8391000F075F870BD00004D
:1012E0005517000870B5040004D094F839000025A3
:1012F00010B106E0012070BD84F83850204600F09F
:1013000023F8242084F839002068C16821F40051B2
:10131000C160204600F080FA2068016921F4904104
:1013200001612068416921F02A0141612068C1689A
:1013300041F40051C160E563202084F8390084F84D
:101340003A00002070BD000010B586B0044614219C
:101350006846FEF77FFF18492068884229D1174860
:101360000021026842F010020260006800F01000E4
:10137000059012481438026842F0010202600068C9
:1013800000F0010005904FF4C06000900220CDE90C
:101390000101032003900720049069460848FFF7E5
:1013A0009DFA002201212520FFF7F2FB2520FFF7FF
:1013B000E1FB06B010BD00000010014044380240BF
:1013C0000000024070477047FEE7000070B50D4C0A
:1013D0000025C4F890520C48016821F44061016076
:1013E000016841F480610160C4F89452022004F560
:1013F0002474FFF75BFA012020600220FFF756FA01
:10140000256070BD00804342001C02400E4810B5AC
:10141000016886B041F0800101600068012400F09D
:10142000800005903020CDE900040220CDE9024083
:1014300069460648FFF752FA0548C0F89442C0F8DA
:10144000904206B010BD000030380240001C02403F
:101450000080434270B50D4C0025C4F890520C48F2
:10146000016821F440610160016841F4806101601C
:101470000126C4F89462022004F52474FFF716FADA
:1014800026600220FFF712FA256070BD00804342FB
:10149000001C02402DE9F0478146164800240168EF
:1014A00021F44061016001680160134E2546274622
:1014B0004FF00108C6F890720220FFF7F7F9C6F85E
:1014C00090826006040ED6F8140208B1641CE4B2DF
:1014D0000120FFF7EBF96D1CEDB2082DEAD3B9F14D
:1014E000000F04D0FFF772FF2046BDE8F087FFF73A
:1014F000B1FFF9E7001C0240008043422DE9F041B2
:1015000006461448016821F440610160016841F415
:1015100080610160104C0027C4F890723D464FF086
:101520000108F009C4F894027006060E0220FFF7C5
:10153000BDF9C4F890820220FFF7B8F9C4F89072A0
:101540000220FFF7B3F96D1CEDB2082DE9D3BDE819
:10155000F0810000001C02400080434270B50D483D
:10156000016821F440610160016841F4806101601B
:10157000094C0120C4F89402C4F89002042004F538
:101580002474FFF793F9002565600420FFF78EF9B6
:10159000256070BD001C02400080434270B50D48BC
:1015A000016821F440610160016841F480610160DB
:1015B000094C0020C4F89002C4F89402042004F5F9
:1015C0002474FFF773F9012525600420FFF76EF9F5
:1015D000656070BD001C02400080434270B5124837
:1015E0000024016821F440610160016801600F4D31
:1015F0000126C5F894623046FFF758F9C5F89062A5
:101600000120FFF753F907E0641CE4B2FA2C03D978
:10161000FFF7C4FF012070BDD5F814020028F3D1F4
:10162000C5F8900270BD0000001C024000804342DB
:101630000D4808B5016841F004010160016801F03E
:1016400004010091016841F080010160016801F02E
:1016500080010091016841F001010160006800F023
:101660000100009008BD0000303802400C4810B561
:101670000A4901604FF4E1314160002181600C2290
:10168000C160C0E904128161C161FFF72BFE00282F
:1016900003D0BDE81040FEF7F5BE10BD00100140BC
:1016A0001C000020FEE7704770477047FFF706BA3E
:1016B00070B592B030216846FEF7CCFD14210CA81D
:1016C000FEF7C8FD1A480025016841F0805101600D
:1016D000006800F0805011901648016841F44041C4
:1016E00001600068022400F4404011900120009045
:1016F000000401908001CDE906400F260896D8200D
:10170000CDE9090404200B906846FFF79DFBFFF725
:1017100071FA4FF4A050CDE90E50E002CDE90C640F
:10172000109005210CA8FFF79DFA12B070BD0000C3
:1017300040380240007000400548016841F47001E3
:10174000016003494FF00060803908607047000075
:1017500088ED00E010B5806B0021C185C184FFF7E2
:1017600035FD10BD0168CA6822F49072CA60016834
:101770004A6922F001024A61202180F83A1070473C
:1017800010B590F83A10222901D0022010BD8168CE
:10179000B1F5805F11D00169002901681FD0496847
:1017A00001F07F03816A4A1C82620B70C18D491E61
:1017B0000904090CC18518D02BE00269816A002A4E
:1017C0000268526805D0D2B20A80816A491C8162DF
:1017D000ECE7C2F308020A80816A891CF7E74A68CD
:1017E000816A4B1C83620A70E0E70168CA6822F0D4
:1017F0002002CA600168CA6822F48072CA60016867
:101800004A6922F001024A61202180F83A10FFF76C
:10181000D9FD002010BD00002DE9F041044600680C
:101820000169E26821F44051114301612169A06816
:10183000E26908436169114308432168CA6849F2B3
:101840000C639A430243CA6020684169A26921F48B
:10185000407111434161E069192764253226B0F5D2
:10186000004F354A354920684FF0000806D08842BD
:1018700001D0904236D1FFF7A5FA35E0884201D079
:10188000904202D1FFF79EFA01E0FFF78BFA616800
:101890004A18A0FB070148EB0803FEF7A3FC01462A
:1018A000B0FBF5F00201B1FBF5F06FF018035843FF
:1018B00001EB800006EBC000B0FBF5F000F0F80093
:1018C00002EB4002B1FBF5F0584301EB800006EB60
:1018D000C000B0FBF5F000F00700216810448860FC
:1018E000BDE8F081FFF75EFA61688B0F8A00A0FB0C
:1018F0000701FEF777FC0146B0FBF5F06FF0180228
:10190000504301EB800006EB0010B0FBF5F000F057
:10191000F002B1FBF5F002EB0012B1FBF5F06FF055
:101920001803584301EB800006EB0010B0FBF5F004
:1019300000F00F00D1E7000000140140001001404A
:1019400090F83910212901D0022070478168B1F543
:10195000805F016A0BD04A1C0262026809785160FC
:10196000C18C491E0904090CC1840ED017E00988F6
:101970000268C1F30801516001690029016A02D0BF
:10198000491C0162ECE7891CFBE70168CA6822F088
:101990008002CA600068C16841F04001C160002057
:1019A000704700000148FFF713BC00001C00002036
:1019B000FEE700000FB4054B10B503A9044A0298D6
:1019C00000F028F810BC5DF814FB0000D51C0008DE
:1019D000040000200907090E002804DB00F1E020C4
:1019E00080F80014704700F00F0000F1E02080F84C
:1019F000141D704702E008C8121F08C1002AFAD15E
:101A000070477047002001E001C1121F002AFBD17E
:101A1000704700002DE9FF4F8DB09B460F460446EE
:101A2000002606E025280BD05A460F999047641CE3
:101A3000761C20780028F5D111B03046BDE8F08F33
:101A40000025A8460122984900E0054314F8013F0B
:101A5000203B02FA03F00842F7D120782E2817D154
:101A600014F8010F45F004052A280ED06FF02F025C
:101A70002078A0F1300109290AD808EB880102EB8F
:101A8000410100EB0108641CF2E757F8048B641C69
:101A900020786C280DD004DC4C2812D06A2811D193
:101AA00004E074280DD07A280CD10AE045F4001522
:101AB00007E0617845F48015814202D1641C05F588
:101AC0008015641C2278692A45D008DC002AB3D02E
:101AD000582A69D0632A10D0642A08D13BE0702AC2
:101AE00067D0732A13D0752A5CD0782A5CD0104650
:101AF0005A460F999047761CD3E017F8040B8DF8DF
:101B0000000000208DF80100E946012003E057F8AD
:101B1000049B4FF0FF3069074FF0000501D40AE045
:101B20006D1C45450DDA8542FADB19F805100029D0
:101B3000F6D106E06D1C8542FCDB19F80510002982
:101B4000F8D12E4404E019F8010B5A460F9990473A
:101B50006D1EF8D2A5E00A200021CDE90801C5F3E9
:101B6000025002280DD001CFC117031E71F10003EE
:101B70000DDA4FF0000CD0EB0C006CEB01012D23C3
:101B800008E0FF1D27F00707F7E80201EDE72B0546
:101B900004D52B238DF8283001233BE0EB0739D007
:101BA0002023F7E70A2000E010200021CDE90801FA
:101BB00007E01020002145F00405CDE908014FF0B1
:101BC0000808C5F3025002280FD001CF00214FF0C2
:101BD000000A2B071FD5702A0DD0DDE908C38CF051
:101BE000100C5CEA030C0CD015E0FF1D27F0070772
:101BF000F7E80201EBE740228DF828204FF0010AB8
:101C00000BE050EA010306D030238DF828308DF820
:101C1000292002239A46582A04D024A20DF1200933
:101C20000B9209E026A2F9E7DDE90823FEF7DAFACC
:101C30000B9B9B5C09F8013D50EA0102F4D1ADEB2E
:101C4000090020300890680701D44FF00108089976
:101C5000884502DDA8EB010000E000208046002559
:101C600006E00AA85A46405D0F9990476D1C761C05
:101C70005545F6DB04E030205A460F999047761C14
:101C8000B8F10001A8F10108F5DC05E019F8010B35
:101C90005A460F999047761C0899481E08900029CB
:101CA000F4DC641CC5E60000092801003031323341
:101CB0003435363738396162636465660000000088
:101CC0003031323334353637383941424344454672
:101CD0000000000003490A685206FCD5C2B24A60FF
:101CE0007047000000100140FEF7F0FEFFF7E0FC37
:101CF000FFF79EFCFFF7BAFCFFF788FBFEF7FEFB41
:101D000008A0FFF757FE094D4FF4FA740749032066
:101D1000FEF7B9FB06A02968FFF74CFE2046FEF748
:101D2000B3FDF3E768656C6C6F00000000000020F5
:101D30004348333D25640A00000000000000000015
:101D40000102030406070809000000000102030461
:101D5000701D0008000000201C000000F41900089D
:101D60008C1D00081C00002064040000041A0008F8
:101D70000000000000000000010000001000000052
:0C1D8000000000000024F400000000003F
:04000005080001AD41
:00000001FF
