:020000040800F2
:10000000500F0020C1010008CF1C0008411B000850
:10001000CD1C000805080008D922000800000000D7
:10002000000000000000000000000000C11D0008EA
:100030000708000800000000D11C0008C31D0008CC
:10004000DB010008DB010008DB010008DB01000820
:10005000DB010008DB010008DB010008DB01000810
:10006000DB010008DB010008DB010008DB01000800
:10007000DB010008DB010008DB010008DB010008F0
:10008000DB010008DB010008DB010008DB010008E0
:10009000DB010008DB010008DB010008DB010008D0
:1000A000DB010008DB010008DB010008DB010008C0
:1000B0006D1E0008DB010008DB010008DB01000801
:1000C000DB010008DB010008DB010008DB010008A0
:1000D000DB0100085D220008DB010008DB010008ED
:1000E000DB010008DB010008DB010008DB01000880
:1000F000DB010008DB010008DB010008DB01000870
:10010000DB010008DB010008DB010008DB0100085F
:10011000DB010008DB010008DB010008DB0100084F
:10012000DB010008DB010008DB010008DB0100083F
:10013000DB010008DB010008DB010008DB0100082F
:10014000DB010008DB010008DB010008DB0100081F
:10015000DB010008DB010008DB010008DB0100080F
:10016000DB010008DB010008DB010008DB010008FF
:10017000DB010008DB010008DB01000800000000D3
:10018000DB010008DB010008DB010008DB010008DF
:10019000DB010008DB010008DB010008DB010008CF
:1001A000DB010008DB010008DB010008DFF80CD0F0
:1001B00000F07CFA00480047E9440008500F002096
:1001C0000648804706480047FEE7FEE7FEE7FEE7F1
:1001D000FEE7FEE7FEE7FEE7FEE7FEE7511E00084A
:1001E000AD0100082DE9F05F0546002092469B46D0
:1001F00088460646814640241BE02846414647463D
:10020000224600F08BF853465A46C01A914110D34B
:1002100011461846224600F072F82D1A67EB0108C5
:100220004F4622460120002100F069F817EB000933
:100230004E41201EA4F10104DFDC484631462A4627
:100240004346BDE8F09F40EA01039B0703D009E065
:1002500008C9121F08C0042AFAD203E011F8013BB2
:1002600000F8013B521EF9D27047D2B201E000F80B
:10027000012B491EFBD270470022F6E710B513464A
:100280000A4604461946FFF7F0FF204610BD10B598
:10029000044604E00B7800F8013B03B1491C521EF0
:1002A000F8D2204610BD421C10F8011B0029FBD1DA
:1002B000801A704730B505460020034600E05B1CFD
:1002C000934205D2EC5CC85C201A01D1002CF6D117
:1002D00030BD30B50B46014600202022012409E044
:1002E00021FA02F59D4205D303FA02F5491B04FAEF
:1002F00002F52844151EA2F10102F1DC30BD202ACE
:1003000004DB203A00FA02F1002070479140C2F16C
:10031000200320FA03F3194390407047202A04DB9E
:10032000203A21FA02F00021704721FA02F3D0406E
:10033000C2F1200291400843194670472DE9FE4F53
:10034000804681EA0300C00F0C46009021F0004176
:1003500023F00045B8EB0200A94105D240462146F2
:1003600090461C460B46024623F00040104347D0FF
:10037000270DC7F30A00C3F30A510290401A0190F7
:1003800040286BDAC3F3130040F4801B00989246B8
:1003900020B10023D2EB030A63EB0B0B0198594603
:1003A000C0F140025046FFF7AAFF06460D465046F0
:1003B0005946019A00F08CF910EB080061410024C5
:1003C00087EA115284EAE7731A4340D0009A62B375
:1003D000019A012A4FEA075215DC001B61EB02016A
:1003E0004FF0004202EA0752CDE90042001C41F5FD
:1003F000801132462B4600F08CF903B0BDE8F08F37
:1004000040462146F9E7001B61EB0201001C41F563
:10041000801300185B412018A2F5001747EB030179
:1004200040EAD570B6196D4111E06D084FEA360605
:1004300045EAC0754FEA0752001B61EB0201001C40
:1004400041F5801149084FEA300000195141324608
:100450002B4603B0BDE8F04F00F04CB900980122E4
:1004600040000023D0EB020263EBE07300982146CA
:100470004FEAE074B8EB000061EB0401E9E783F0B8
:1004800000435BE781F0004158E72DE9FE4F81EA28
:10049000030404F0004421F0004100944FF0000BED
:1004A00023F0004350EA01045ED052EA03045BD01B
:1004B000C3F30A54C1F30A552C44A4F2F334019453
:1004C000A0FB0254C1F3130141F48011C3F31303E1
:1004D00043F4801301FB024400FB034E840A970A95
:1004E00044EA815447EA8357A4FB076802958D0AC2
:1004F00005FB07854FEA932C04FB0C542705029D4E
:100500004FEA065847EA1637B5EB08056EEB070CBD
:10051000870E920E47EA811742EA8312A7FB020177
:10052000B6EB0B0164EB00042B0D43EA0C335E18B1
:1005300044EB1C50DA465146E7FB0201C5F31304B5
:100540004FEA0B3343EA14534FEA0432019C43EA67
:100550000603A4F10C040294009CCDE900B400F061
:10056000D8F803B0BDE8F08F00200146F9E72DE987
:10057000F04D81EA030404F0004B21F000451446DD
:100580004FF0000A23F0004150EA050220D054EA5F
:1005900001021DD0C5F30A570246C5F31303C1F388
:1005A0001300C1F30A5640F4801543F48013A7EBFF
:1005B0000608101BD64608F2FD3873EB050002D37F
:1005C00008F1010801E092185B41B8F1000F03DA6D
:1005D00000200146BDE8F08D00204FF48011064652
:1005E00084460EE0171B73EB050705D3121B63EB64
:1005F000050306434CEA010C49084FEA3000921803
:100600005B4150EA0107EDD152EA030012D082EAC1
:10061000040083EA0501084305D0101BAB4106D254
:100620000122002306E000224FF0004302E06FF0B9
:10063000010253101AEB06004CEB085110EB0A00B4
:1006400041EB0B01BDE8F04D00F054B8C1F30A5284
:10065000C1F3130140F2FF3341F480119A4202DAF0
:1006600000200146704740F233439A42A2F23342DF
:1006700002DC5242FFF752BEFFF741BE30B5041E06
:1006800071F1000404DB4FF00044404264EB0101CF
:10069000141E73F1000405DB1C464FF00043524268
:1006A00063EB0403994208BF904230BD064C074DEE
:1006B00006E0E06840F0010394E807009847103432
:1006C000AC42F6D3FFF776FD207F0008407F00089C
:1006D000202A06DBCB17203A41FA02F043EAE07306
:1006E00006E041FA02F3D040C2F1200291400843F3
:1006F0001946704710B5141E73F1000408DA401C47
:1007000041F1000192185B411A4301D120F0010030
:1007100010BD2DE9F04D92469B4611B1B1FA81F220
:1007200002E0B0FA80F220329046FFF7E8FD04467E
:100730000F4640EA0A0041EA0B0153465A46084375
:1007400013D0114653EA010019D0C8F140025046B7
:10075000FFF7E4FD05460E46504659464246FFF770
:10076000CEFD084305D0012004E020463946BDE80F
:10077000F08D0020054346EAE0762C4337430A9883
:100780006305E40AA0EB08000022FD0A44EA47548E
:100790000A3002D500200146E9E701051019694138
:1007A000DDE9084500196941BDE8F04DA2E770B5E3
:1007B0008C1810F8015B15F0070301D110F8013B0C
:1007C0002A1106D110F8012B03E010F8016B01F893
:1007D000016B5B1EF9D12B0705D40023521E0DD4EB
:1007E00001F8013BFAE710F8013BCB1A921C03E039
:1007F00013F8015B01F8015B521EF9D5A142D8D371
:10080000002070BDFEE77047704790F83510022950
:1008100003D08021416501207047052180F8351003
:100820000068016821F001010160002070470000AC
:1008300070B5044600F002F90546601C02D0044879
:100840000078044400F0FAF8401BA042FAD370BDCF
:100850000C0300202DE9F84F00224FF0010803257A
:100860004FF00F0E0B6808FA02F42340A3426ED13A
:100870004E68012E05D0022E03D0112E01D0122E6B
:1008800012D186684FEA420C05FA0CF7BE43CF68D6
:1008900007FA0CF7374387604668A6430C79C4F320
:1008A0000014944034434460C668570005FA07FCBE
:1008B0008C6826EA0C06BC403443C4604C68022CA9
:1008C00001D0122C13D1D40800EB8404A346D4F831
:1008D000209054074FEAD46A0EFA0AF629EA06096C
:1008E0000E6906FA0AF646EA0906CBF820600468A3
:1008F0000E7924EA0C0406F00306BE402643066087
:100900004C68E4006FD53B4C266846F48046266070
:10091000246822F0030604F480440094364C3444E6
:10092000A446D4F808489607360F0EFA06F7BC43DB
:10093000324FB84201D100272EE0314FB84201D1E9
:10094000012729E02F4FB84202D1022724E04AE0D4
:100950002D4FB84201D103271EE02C4FB84201D1E0
:10096000042719E02A4FB84201D1052714E0294F86
:10097000B84201D106270FE0274FB84201D107271F
:100980000AE0264FB84201D1082705E0244FB842BB
:1009900001D1092700E00A27B7402743CCF808789F
:1009A000204E34684F689C43FF0300D51C433460DD
:1009B0001C4E361D34684F689C43BF0300D51C4352
:1009C0003460184E083634684F689C43FF0200D5E7
:1009D0001C433460134E0C3634684F689C43BF028E
:1009E00000D51C433460521C102AFFF43BAFBDE815
:1009F000F88F0000443802400030014000000240FF
:100A00000004024000080240000C024000100240B6
:100A10000014024000180240001C02400020024066
:100A200000240240003C01400069084000D0012041
:100A300070470AB1816170470904FBE7014880688B
:100A4000704700000C0300200248816802781144BE
:100A5000816070470C0300200B4810B5016841F419
:100A600000710160016841F480610160016841F436
:100A700080710160032000F071F8002000F006F89A
:100A800000F024F8002010BD003C024070B50D4D70
:100A900004464FF47A712878B1FBF0F00A490968EE
:100AA000B1FBF0F000F0A9FC48B9102C07D20022ED
:100AB0002146501E00F032F800206C6070BD01200D
:100AC00070BD00000C030020180300200B4882B00A
:100AD000016841F480410160006800F480400090AA
:100AE0000648001F016841F080510160006800F075
:100AF00080500090052002B000F030B84438024029
:100B0000002809DB00F01F0201219140400980000C
:100B100000F1E020C0F8001170470000F0B40E4B67
:100B20001B680C46C3F30223C3F10705042D00D94B
:100B30000425191D072901D2002300E0DB1E012630
:100B400006FA05F1491E214099409E40761E164046
:100B50003143F0BC01F0FABB0CED00E0064900F0B7
:100B6000070208684FF6FF03184040EA0220034AD4
:100B700010430860704700000CED00E00000FA052B
:100B80002DE9F8431748016841F080510160006881
:100B9000154F00F08050012600903E64FFF74EFF95
:100BA00005464FF47A78114C05E000BFFFF746FF89
:100BB000401B40450DD86068C003F7D57E64FFF741
:100BC0003DFF0546464607E0FFF738FF401BB042B1
:100BD00002D90320BDE8F88360688003F4D50020C3
:100BE000F8E700004038024000000E42007000406C
:100BF0002DE9F0470E46050065D0DFF81481D8F8DE
:100C00000000F7B200F00F00B04207D288F8007081
:100C1000D8F8000000F00F00B04254D128683D4CD5
:100C2000810712D5400703D5206840F4E0502060CA
:100C30002878000703D5206840F4604020602068D1
:100C4000A96820F0F000084320602878C0072DD064
:100C5000304968680839012812D0022813D00328C7
:100C600011D00968890700292DDA216821F00301D4
:100C700001432160FFF7E2FE814641F2883A0EE02F
:100C800009688903EFE709688901ECE7FFF7D6FEF9
:100C9000A0EB0901514502D90320BDE8F087206887
:100CA000696800F00C00B0EB810FEFD1D8F80010AC
:100CB000404601F00F01B14207D90770006800F00B
:100CC0000F00B04201D00120E7E72878400705D5A2
:100CD0002068E96820F4E050084320602878000785
:100CE00006D52068296920F4604040EAC1002060F0
:100CF00000F038F82168084AC1F30311515CC8407C
:100D00000649086006480068FFF7C0FE0020C4E7F7
:100D1000003C024008380240686E000818030020BA
:100D2000100300200448054900680968044AC1F31B
:100D30008221515CC84070471803002008380240E7
:100D4000786E00080448054900680968044AC1F340
:100D50004231515CC84070471803002008380240F7
:100D6000786E0008154810B5006810F00C021448A1
:100D700013D01449042A0FD0082A0ED10F4C241F77
:100D80002268236802F03F025B0207D52068C0F3A7
:100D90008810A0FB010106E0084610BD2168C1F3E0
:100DA0008811A1FB00010023FFF71CFA2168C1F3A1
:100DB0000141491C4900B0FBF1F010BD0838024068
:100DC0000024F40040787D012DE9F84F04006ED036
:100DD0002078DFF83C93C007A9F104054AD009F157
:100DE00004000168C1F38101012908D00068C0F343
:100DF000810002280AD1D9F80000400206D52868EF
:100E0000800337D560680028E1D033E06068B0F532
:100E1000803F10D0B0F5A02F286810D020F480308B
:100E20002860286820F4802028606068A8B1FFF757
:100E300005FE06460DE0286840F48030F4E740F4F3
:100E400080202860F7E700BFFFF7F8FD801B6428CB
:100E500073D828688003F7D50CE0FFF7EFFD06464E
:100E600005E000BFFFF7EAFD801B6428F0D8286882
:100E70008003F7D42078DFF89C8280074FF0000AC7
:100E80003ED5A348001D016811F00C0F08D0006882
:100E9000C0F3810002280BD1D9F80000400207D42A
:100EA0002868800716D5E068012800D112E02BE100
:100EB000E068B8B10120C8F80000FFF7BFFD0646A2
:100EC00005E000BFFFF7BAFD801B0228C0D82868E4
:100ED0008007F7D52868216920F0F80040EAC100B2
:100EE00028600DE0C8F800A0FFF7A8FD064604E062
:100EF000FFF7A4FD801B02281FD828688007F7D4BD
:100F00002078000722D5824E83486169703671B11E
:100F100001210160FFF792FD074604E0FFF78EFD17
:100F2000C01B022809D830688007F7D50EE0C0F84A
:100F300000A0FFF783FD074605E082E0FFF77EFD96
:100F4000C01B02287DD830688007F7D4207840077E
:100F500068D5DFF8BCB100270BF13C0BDBF80000D3
:100F6000C0000BD4DBF8001041F08051CBF800102A
:100F7000DBF80000012700F080500090674E3068D9
:100F8000C00510D4306840F480703060FFF756FD23
:100F9000009005E0FFF752FD0099401A022850D852
:100FA0003068C005F6D55A4EA0686C3601280FD0BF
:100FB0000528306810D020F001003060306820F043
:100FC00004003060A068B8B1FFF738FD00900FE072
:100FD000306840F00100F4E740F004003060F7E7CB
:100FE000FFF72CFD0099411A41F28830814266D802
:100FF00030688007F4D50EE0FFF720FD009007E091
:10100000FFF71CFD0099411A41F28830814256D801
:1010100030688007F4D42FB1DBF8001021F0805144
:10102000CBF80010A069C8B33949091D0968C1F39C
:10103000810102294AD00228504607D0C8F8600032
:1010400000E03CE0FFF7FAFC04463BE04746C8F806
:101050006000FFF7F3FC064605E000BFFFF7EEFC7B
:10106000801B02282BD828688001F7D4D4E9070117
:101070000843A16A2A4A490802EB0141626A41EA2F
:101080008211084394F82C1040EA0161C9F800105D
:1010900001203866FFF7D2FC044606E036E000BFC8
:1010A000FFF7CCFC001B022809D828688001F7D57F
:1010B0002CE000BFFFF7C2FC001B022802D903206E
:1010C000BDE8F88F28688001F4D41FE00128F7D02C
:1010D000D9F80000E26900F48001914214D1226A3B
:1010E00000F03F0191420FD147F6C071626A0140A2
:1010F000914209D1A26A00F44031914204D1E16ADF
:1011000000F07060884201D00120D9E70020D7E7C5
:101110000438024000004742800E47420070004001
:101120000000FFFF90F85100704770B5040005D033
:101130000025A56294F8510010B106E0012070BDB1
:1011400084F85050204600F031F8022084F8510015
:101150002068016821F040010160D4E901010843E1
:10116000D4E903121143084361690843218B01F458
:1011700000710843E1690843216A0843A16A0843F2
:1011800021680860A069042101EA1040616A0843EF
:10119000216848602068C16921F40061C16165650A
:1011A000012084F85100002070BD000010B586B009
:1011B000044614216846FFF75FF814492068884206
:1011C00021D113480021026842F4801202600068B5
:1011D00000F4801005900E481438026842F0200296
:1011E0000260006800F0200005904FF460700090ED
:1011F0000220CDE9010103200390052004906946F7
:101200000448FFF727FB06B010BD00000050014066
:1012100044380240001402402DE9F84F044690F88B
:10122000500000270A9E1D4692468B464FF001094A
:1012300001280ED0012084F85000FFF7FFFB804604
:1012400094F85100616801280CD0B1F5827F07D174
:1012500002E00220BDE8F88FA16809B9042801D096
:101260000227C2E0BBF1000F27D0BAF1000F24D053
:101270001DB394F85100042802D0052084F85100D1
:1012800000206065C4F838A0E587A587C4F830B0B1
:10129000E586A5862064606420680168490603D459
:1012A000016841F040010160E068B0F5006F6068DE
:1012B00005D0E8B3012D46D07FE0012795E008B1C5
:1012C000012D39D1206B21680088C860206B801CFB
:1012D0002063E08E401EE0862EE02068816889074A
:1012E0000FD5E18E69B1B9F1010F0AD1216B0988DF
:1012F000C160206B801C2063E08E401EE0864FF0B2
:10130000000920688168C9070CD0E18F51B1C0681D
:10131000A16B0880A06B801CA063E08F401EE0875B
:101320004FF00109FFF78AFBA0EB0800B04200E094
:1013300009E001D3701C50D1E08E0028CDD1E08FA0
:101340000028CAD13FE0206B216800780873206B29
:10135000401C2063E08E401EE0862EE020688168FD
:1013600089070FD5E18E69B1B9F1010F0AD1216B5F
:1013700009780173206B401C2063E08E401EE086DC
:101380004FF0000920688168C9070CD0E18F51B186
:10139000C068A16B0870A06B401CA063E08F401E6A
:1013A000E0874FF00109FFF749FBA0EB0800B042CE
:1013B00002D3701C01D010E07EB1E08E0028CDD1A8
:1013C000E08F0028CAD142463146204600F082FC18
:1013D00028B101272020606507E0032705E0A06809
:1013E00018B92068C16880680090012084F8510015
:1013F000002084F8500038462CE710B5401EB0F1AC
:10140000807F01D3012010BD4FF0E02460610F21E7
:10141000601700F09BFF0020A061072020610020E2
:1014200010BD70477047000070B590F83C20012A4D
:1014300032D0012480F83C40022280F83D2003682D
:101440005A689D6822F070060A6832435A60134B4E
:1014500002689A4214D0B2F1804F11D0104B9A42D8
:101460000ED0104B9A420BD00F4B9A4208D00F4B24
:101470009A4205D00E4B9A4202D00E4B9A4204D1AA
:10148000496825F080031943916080F83D400021B0
:1014900080F83C10084670BD022070BD000001407D
:1014A0000004004000080040000C0040000401401F
:1014B000004001400018004010B5040003D094F82B
:1014C0003D0010B107E0012010BD002084F83C0071
:1014D000204600F00DF8022084F83D00211D206810
:1014E00000F0CAFC012084F83D00002010BD00007F
:1014F00008B50068B0F1804F12D10A48016841F088
:10150000010101600068002200F00100009001214B
:101510001C20FFF703FBBDE808401C20FFF7F0BAD2
:1015200008BD0000403802400168CA6842F001026C
:10153000CA600068816801F00701062903D00168CC
:1015400041F0010101600020704770B5044690F839
:101550003C00012817D0012584F83C50022084F873
:101560003D002068826822F0770222F47F42826088
:101570000868502830D00DDC20284DD005DC98B309
:1015800010283BD148E0022070BD302844D04028CC
:1015900034D139E0602828D0702806D0B0F5805FBB
:1015A0002CD0B0F5005F29D10AE0CB68D1E9012148
:1015B000206800F0C5FC2068816841F0770109E0EF
:1015C000CB68D1E90121206800F0BAFC206881686D
:1015D00041F48041816011E0CA684968206800F0E8
:1015E000C1FC5021206807E016E0CA6849682068FD
:1015F00000F0C9FC6021206800F0ACFC84F83D508C
:10160000002084F83C0070BDCA684968206800F07A
:10161000A9FC40212068EFE7226801461046EBE76D
:10162000704770B50446006801694FF00005C94372
:10163000890715D4C168C943890711D4E91E01611E
:1016400001202077206880698007204602D0FFF7BC
:10165000E7FF04E000F098F8204600F096F82577C0
:1016600020680169C943490717D4C168C9434907BC
:1016700013D46FF004010161022020772068806993
:1016800010F4407F204602D0FFF7CAFF04E000F0CC
:101690007BF8204600F079F8257720680169C94376
:1016A000090716D4C168C943090712D46FF00801AD
:1016B0000161042020772068C0698007204602D09D
:1016C000FFF7AEFF04E000F05FF8204600F05DF8A1
:1016D000257720680169C943C90617D4C168C94381
:1016E000C90613D46FF0100101610820207720682B
:1016F000C06910F4407F204602D0FFF791FF04E05C
:1017000000F042F8204600F040F825772068016993
:10171000C943C90708D1C168C943C90704D1891E93
:101720000161204600F032F820680169C9430906CA
:1017300009D4C168C943090605D46FF0800101616D
:101740002046FFF76EFE20680169C943490609D4A7
:10175000C168C943490605D46FF0400101612046C4
:1017600000F01EF820680169C94389060BD4C168DE
:10177000C943890607D46FF0200101612046BDE806
:101780007040FFF74FBE70BD704770470349006857
:101790000968884201D101F08BBD7047C405002063
:1017A0007047704770B5026804461068D168536985
:1017B00010F00F0F52D003F0010501F490762E4384
:1017C0005FD0C20705D0CA0503D5E26B42F0010223
:1017D000E263420705D5DA0703D0E26B42F002026A
:1017E000E263820705D5DA0703D0E26B42F0040218
:1017F000E263020707D501F020022A4303D0E26B1F
:1018000042F00802E263E26B002A33D0800604D57E
:10181000880602D5204600F0DEFB20684069E16BB7
:10182000C0F38010090700D428B3204600F0C5FBA0
:101830002068416949061AD5416921F0400141619A
:10184000606BA0B11B490165606BFEF7DEFF0028ED
:1018500010D0606B016DBDE870400847830610D55D
:101860008B060ED52046BDE8704000F0B4BB204684
:10187000FFF797FF70BD2046FFF793FF0020E0635E
:1018800070BD030606D50B0604D52046BDE87040A2
:1018900000F080BC4006F3D54806F1D5D16820465B
:1018A00021F04001D160202184F8391000F047F97F
:1018B00070BD0000AB1F000870B5040004D094F8A0
:1018C0003900002510B106E0012070BD84F83850C1
:1018D000204600F023F8242084F839002068C168ED
:1018E00021F40051C160204600F0C0FB206801696E
:1018F00021F4904101612068416921F02A01416190
:101900002068C16841F40051C160E563202084F87B
:10191000390084F83A00002070BD000010B586B090
:10192000044614216846FEF7A7FC20492068884237
:101930003AD11F480021026842F01002026000689C
:1019400000F0100005901A481438026842F00102B5
:101950000260006800F0010005904FF4C060009044
:101960000220CDE90101032003900720049069467D
:101970001048FEF76FFF002201212520FFF7CEF867
:101980002520FFF7BDF84FF480720B490B4804F097
:1019900089F80B480168CA6842F02002CA600068F2
:1019A000C16841F01001C16006B010BD00100140D7
:1019B0004438024000000240440600204407002052
:1019C000040600202DE9F843044690F83A009946B1
:1019D00016460D46202852D1BDB1B6B194F8380054
:1019E00001284CD0012084F838000027E76322202A
:1019F00084F83A002C34FFF721F824F8026B804673
:101A000024F80A6B04F8387931E00120BDE8F88346
:101A1000E08D401EE085A0684346B0F5805F4FF042
:101A200000024FF020012046CDF8009004D000F0D5
:101A3000E2FB98B10320E9E700F0DDFB0028F9D1D3
:101A4000206900282068406803D0C1B225F8011B36
:101A50000DE0C0F3080125F8021B08E0206900280A
:101A60002068406801D000F07F0005F8010BE08D90
:101A70000028CDD1202084F83A000020C6E70220BB
:101A8000C4E770472DE9F843044690F839001F4633
:101A900016460D46202850D1B5B1AEB194F83800A5
:101AA00001284AD0012084F838004FF00008C4F81B
:101AB0003C80212084F83900FEF7C0FFA6848146CF
:101AC000E68484F8388026E00120BDE8F883E08CC5
:101AD000401EE084A0684B46B0F5805F4FF00002E6
:101AE0004FF080012046009703D000F084FBE8B956
:101AF0000DE000F080FBC8B928882168C0F3080019
:101B00004860206908B16D1C05E0AD1C03E0216848
:101B100015F8010B4860E08C0028D8D14B46002214
:101B200040212046009700F066FB08B10320CCE777
:101B3000202084F839000020C7E70220C5E770475D
:101B4000FEE7000070B586B014216846FEF794FBEE
:101B500022480025016841F004010160016801F09C
:101B600004010591016841F020010160016801F064
:101B700020010591016841F080010160016801F0D8
:101B800080010591016841F0010101600068144E77
:101B900000F001000590012240213046FEF749FF88
:101BA0004FF40050CDE900050124694602940D4828
:101BB000FEF750FE4020CDE900040320CDE90240AD
:101BC00069463046FEF746FE0C20CDE90005694621
:101BD00002940548FEF73EFE06B070BD3038024064
:101BE0000014024000080240001C02400F4810B5DB
:101BF0000D4901604FF48271416000218160C16034
:101C00004FF400720161C0E90512C16101624162D5
:101C100081620A21C162FFF788FA002803D0BDE87B
:101C20001040FEF7F1BD10BD005001406C050020D2
:101C300010B586B0002416480094019402940394D1
:101C400004944FF08041059401604AF6C771C0E9E1
:101C500001140421C0E903148461FFF72DFC08B1CD
:101C6000FEF7D2FD4FF48050009069460848FFF718
:101C70006CFC08B1FEF7C8FD049404A9044805945F
:101C8000FFF7D2FB002801D0FEF7BEFD06B010BD65
:101C9000C40500200C4810B50A4901604FF4E13139
:101CA0004160002181600C22C160C0E904128161A1
:101CB000C161FFF701FE002803D0BDE81040FEF728
:101CC000A3BD10BD0010014004060020FEE77047D0
:101CD0007047000038B504461248134B0068B0FB4B
:101CE000F3F04FF47A73584300906068B0F5827F48
:101CF0000DD10B46009200228021204600F016F8FC
:101D000070B1606D40F020006065032038BD009820
:101D100030B1401E009020688068C0430006F6D5B0
:101D2000002038BD1803002000366E012DE9F04177
:101D30001D4617460E460446DDF8188008E0681C6C
:101D400006D0FEF77BFEA0EB0800A8420BD255B1EF
:101D50002068806836EA000030D00020B842EED11A
:101D60000020BDE8F0812068416821F0E001416079
:101D70006068B0F5827F0BD1A068B0F5004F02D04B
:101D8000B0F5806F04D12068016821F04001016046
:101D9000A06AB0F5005F09D12068016821F4005104
:101DA00001602068016841F400510160012084F85D
:101DB0005100002084F850000320D2E70120CDE735
:101DC0007047FEF741BE000070B592B03021684602
:101DD000FEF752FA14210CA8FEF74EFA1A48002515
:101DE000016841F080510160006800F0805011905E
:101DF0001648016841F4404101600068022400F483
:101E00004040119001200090000401908001CDE934
:101E100006400F260896D820CDE9090404200B902F
:101E20006846FEF7D1FFFEF7ABFE4FF4A050CDE9B8
:101E30000E50E002CDE90C64109005210CA8FEF7CD
:101E4000D7FE12B070BD0000403802400070004064
:101E50000548016841F47001016003494FF00060DA
:101E6000803908607047000088ED00E00148FFF706
:101E7000D8BB0000C4050020F0B50268254C264DF3
:101E8000264E274F274B4FF0804CA04209D060458B
:101E900007D0A84205D0B04203D0B84201D0984242
:101EA00004D122F0700E4A6842EA0E02A0421BD012
:101EB000604519D0A84217D0B04215D0B84213D00F
:101EC000984211D0184DA8420ED0184DA8420BD000
:101ED000174DA84208D0174DA84205D0164DA8426C
:101EE00002D0164DA84203D122F44075CA682A4395
:101EF0004D6922F080022A4302608A68C2620A6841
:101F00008262A04201D0984201D109690163012196
:101F10004161F0BD000001400004004000080040A5
:101F2000000C00400004014000400140004401401A
:101F30000048014000180040001C00400020004004
:101F400010B5846842EA032224F47F440A43224302
:101F5000826010BD826822F070020A4342F00701DD
:101F60008160704710B5036A046A24F001040462BA
:101F7000846924F0F00444EA021423F00A020A43BC
:101F80008461026210BD10B5036A23F0100303627E
:101F90008369046A23F4704343EA023224F0A00305
:101FA00043EA01118261016210BD10B5806B00210E
:101FB000C185C184FFF7F5FB10BD0168CA6822F432
:101FC0009072CA6001684A6922F001024A612021C8
:101FD00080F83A10704710B590F83A10222901D0D5
:101FE000022010BD8168B1F5805F11D00169002920
:101FF00001681FD0496801F07F03816A4A1C826230
:102000000B70C18D491E0904090CC18518D02BE045
:102010000269816A002A0268526805D0D2B20A8039
:10202000816A491C8162ECE7C2F308020A80816A76
:10203000891CF7E74A68816A4B1C83620A70E0E7F3
:102040000168CA6822F02002CA600168CA6822F4E6
:102050008072CA6001684A6922F001024A61202147
:1020600080F83A10FFF70DFD002010BD2DE9F0417A
:10207000044600680169E26821F44051114301619E
:102080002169A068E2690843616911430843216836
:10209000CA6849F20C639A430243CA6020684169E6
:1020A000A26921F4407111434161E0691927642557
:1020B0003226B0F5004F354A354920684FF0000808
:1020C00006D0884201D0904236D1FEF73BFE35E083
:1020D000884201D0904202D1FEF734FE01E0FEF7C3
:1020E00021FE61684A18A0FB070148EB0803FEF7D0
:1020F00079F80146B0FBF5F00201B1FBF5F06FF0A5
:102100001803584301EB800006EBC000B0FBF5F06C
:1021100000F0F80002EB4002B1FBF5F0584301EB90
:10212000800006EBC000B0FBF5F000F0070021686E
:1021300010448860BDE8F081FEF7F4FD61688B0F04
:102140008A00A0FB0701FEF74DF80146B0FBF5F051
:102150006FF01802504301EB800006EB0010B0FB5B
:10216000F5F000F0F002B1FBF5F002EB0012B1FB6C
:10217000F5F06FF01803584301EB800006EB0010F8
:10218000B0FBF5F000F00F00D1E7000000140140B3
:102190000010014090F83910212901D00220704729
:1021A0008168B1F5805F016A0BD04A1C0262026847
:1021B00009785160C18C491E0904090CC1840ED0F4
:1021C00017E009880268C1F308015160016900291C
:1021D000016A02D0491C0162ECE7891CFBE7016837
:1021E000CA6822F08002CA600068C16841F04001FC
:1021F000C160002070472DE9F041984617460E4611
:102200000446069D1DE0681C1BD02DB1FEF716FC90
:10221000A0EB0800A84214D92068C16821F4D0714D
:10222000C1602068416921F001014161202084F8EA
:10223000390084F83A00002084F838000320BDE813
:10224000F0812068006836EA000004D00020B8421F
:10225000D9D00020F3E70120F9E700003EB51A4885
:10226000FFF7A0FA184D28680068184CC043800694
:1022700012D442F21073012201A92846FFF7A2FBF3
:10228000012201A9124803F05BFC2078401C207059
:1022900029686FF02000086028680068C043C00605
:1022A00010D403208DF8000020788DF80100002064
:1022B000207002226946074803F042FC2868016842
:1022C000406802903EBD0000040600200803002084
:1022D0004407002038040020FEE700000FB4054B3F
:1022E00010B503A9044A029800F012F910BC5DF879
:1022F00014FB0000E93F0008B40300207CB504464D
:1023000000201D46164600290BD0491ECDE900418C
:10231000044B6A462946304600F0FAF8009A00213C
:1023200011707CBD3F2C000837B514460846064B9B
:102330006A46214600F0ECF804466946002000F0A9
:1023400089FC20463EBD0000552C00080907090EF7
:10235000002804DB00F1E02080F80014704700F052
:102360000F0000F1E02080F8141D704702E008C85B
:10237000121F08C1002AFAD170477047002001E0FF
:1023800001C1121F002AFBD1704700002DE9FF5F39
:1023900082B00021DDE90430020DDDF840B00343D6
:1023A00018D044F61050A2F2FF324243151411988F
:1023B00001281FD0A5EB0B00401C5FEA000A4FF07C
:1023C00000064E4FDFF83891B046504615D5CAF199
:1023D000000413E0119801244AA3012801D16FEAF7
:1023E0000B010298119AC0E90031C0E9024206B01F
:1023F000BDE8F09FCBF10000DFE704460021404A32
:10240000491842EB0450CDE9001012E0E00707D074
:1024100032463B4640464946FEF737F880468946F5
:1024200032463B4610461946FEF72FF806460F4641
:102430006410002CEAD1DDE90401DDE90023BAF1E2
:10244000000F06DAFEF721F842464B46FEF71DF86C
:1024500005E0FEF78CF842464B46FEF788F8044646
:102460000E460022284BFEF709F903D84FF0FF3043
:10247000014607E00022254B20463146FDF75EFF6E
:10248000FEF7E4F8102409E0002C0ADB0A220023FE
:10249000FDF7A8FE039B30321A55641E50EA010274
:1024A000F2D1641C039AC4F111031444119A012A55
:1024B00003D0012208430DD10AE0084304D00020D4
:1024C0004FF0110B119072E7A3EB0B056D1E0DE0A1
:1024D0005B4504DD4FF0000205F1010504E003DA7D
:1024E0004FF00002A5F10105002AECD002981199E5
:1024F000C0E90231C0E9004579E70000000014405E
:102500000000F03F300000000000F0430000E03F1A
:102510002DE9FF4F95B09B468946064600250FE200
:10252000252877D100242746F84A0121059400E0A8
:10253000044316F8013F203B01FA03F01042F7D1A3
:1025400030782A2811D06FF02F033078A0F13002B4
:10255000092A16D8059A44F0020402EB820203EB22
:1025600042021044761C0590EFE759F8042B0592BF
:10257000002A03DA504244F40054059044F0020467
:10258000761C30782E2816D116F8010F44F004047A
:102590002A280DD06FF02F023078A0F13003092BDC
:1025A00009D807EB870302EB4303C718761CF3E750
:1025B00059F8047B761C30786C280FD006DC4C2848
:1025C00017D068280DD06A2814D104E0742810D0E0
:1025D0007A280FD10DE044F400140AE044F480148A
:1025E00001E044F440147278824202D104F5801470
:1025F000761C761C307866280BD013DC582877D0F0
:1026000009DC002875D04528F6D04628F4D04728A4
:102610001AD19DE118E0632835D0642879D0652867
:1026200012D195E1702873D008DC6728F1D06928B1
:102630006FD06E280DD06F2806D1B5E073282CD04E
:10264000752875D0782874D05A46179990476D1C14
:1026500075E1C4F30250022809D003280DD0D9F83F
:10266000001004280DD00D6009F1040967E1D9F8C4
:102670000010EA17C1E90052F6E7D9F800100D8002
:10268000F2E70D70F0E719F8041B8DF80010002038
:102690008DF80100EA46012003E059F804AB4FF041
:1026A000FF3061074FF0000102D40DE008F1010195
:1026B0008846B9420FDA8045F8DB1AF8081000297D
:1026C000F4D108E008F1010188468142FADB1AF8EA
:1026D00008100029F6D105985B46A0EB08072146B3
:1026E0003846179A00F094FA284400EB080507E0F2
:1026F0004DE029E10DE01AF8010B5A461799904771
:10270000B8F10108F7D25B4621463846179A13E123
:1027100042E00A220092C4F302524FF0000A022A59
:1027200008D059F804CB032A4FEAEC710AD00DE027
:1027300029E02AE009F1070121F00702F2E802C1CD
:10274000914609E00FFA8CFC4FEAEC71042A03D1A0
:102750004FFA8CFC4FEAEC71002907DA0A46002197
:10276000DCF1000C61EB02012D2202E0220504D510
:102770002B228DF80420012203E0E20701D0202261
:10278000F7E7904659E00A2102E010220DE01021FF
:102790004FF0000A00910BE010224FF0000A44F0C5
:1027A00004040827009203E008224FF0000A009278
:1027B000C4F30252022A05D059F804CB0021032A9F
:1027C00008D009E009F1070121F00702F2E802C18F
:1027D000914605E01FFA8CFC042A01D10CF0FF0C95
:1027E0004FF00008220728D5702806D0009B83F000
:1027F000100353EA0A0305D00EE040228DF80420AE
:10280000012208E05CEA010206D030228DF80420A3
:102810008DF8050002229046009B83F0080353EADE
:102820000A030AD15CEA010201D1620705D5302210
:102830008DF804204FF001087F1E582804D034A0E2
:1028400003900EA802900DE036A0F9E753466046CB
:10285000009AFDF7C7FC84460398825C0298401EEC
:10286000029002705CEA0100F0D1029806A9081AF1
:1028700000F1200A600702D524F4803400E001272B
:10288000574502DDA7EB0A0000E0002000EB0A013B
:10289000009005984144401A0590E00306D45B4639
:1028A0002146179A059800F0B3F90544002706E081
:1028B00001A85A46C05D179990476D1C7F1C47457B
:1028C000F6DBE0030CD55B462146179A059800F02D
:1028D0009FF9054404E030205A46179990476D1C33
:1028E0000099481E00900029F5DC08E00298029942
:1028F0005A460078491C0291179990476D1CBAF10D
:102900000001AAF1010AF1DC65E1000009280100DB
:102910003031323334353637383961626364656655
:102920000000000030313233343536373839414217
:10293000434445460000000000F058F90544761C69
:10294000307800287FF4ECAD19B02846BDE8F08F50
:10295000620700D4062709F1070222F0070CFCE801
:102960000223E14603F000485FEA080C02D00FF2B0
:10297000702C0DE05FEA045C02D50FF2682C07E0D2
:102980005FEAC47C02D00FF2602C01E0AFF2700C61
:102990004FF0FF3823F00043CDF850C065280CD02D
:1029A00006DC452809D046281DD047283DD13DE00A
:1029B000662818D067287ED138E00021112F01DB6E
:1029C000112000E0781CCDE9000106A90EA8FFF750
:1029D000DDFCDDE90F010E9A03910021009207F161
:1029E000010A04914DE04FF000400097CDE901103D
:1029F00006A90EA8FFF7CAFCDDE90F0203920E9BA1
:102A000011990022DDF80CA00093049211B9791CF1
:102A100000EB010AB7EB0A0004D4C0F1FF3007F164
:102A2000010A0490AAEB0700019044E0012F00DAAC
:102A300001270021112F01DD112000E03846CDE9EA
:102A4000000106A90EA8FFF7A1FCDDE90F010E9A0F
:102A50000391002104910092BA4621070CD40399F6
:102A6000514500DA8A46BAF1010F05DD009AAAF154
:102A70000101515C302908D0B84202DA10F1040F8C
:102A800006DA0121CDE9011015E0AAF10101E9E71B
:102A9000002805DC049901440491AAEB000102E03E
:102AA000411C514500DD8A460499401A401C0190A2
:102AB0004FF000400290200704D40198504501DBFC
:102AC000CDF8048000208DF84F0002980DF14F07DB
:102AD000B0F1004F25D02B200E9002984FF0020845
:102AE00000280CDA404202902D200E9007E00A21C7
:102AF0000298FDF7EEFB3031029007F8011DB8F1A6
:102B00000001A8F10108F2DC02980028EFD1791E3B
:102B10000E980870307800F0200040F0450007F86B
:102B2000020D12A8C01B00F107081498007800B12C
:102B3000012000EB0A01019801EBE0710598414486
:102B4000401A401E0590E00306D45B462146179AC2
:102B5000059800F05DF805441498007818B15A46BD
:102B6000179990476D1CE00324D55B462146179AC0
:102B7000059800F04DF805441CE00498002807DB98
:102B8000DDE90301884203DD0098405C179901E00C
:102B9000179930205A469047049805F10105401CCA
:102BA00004900198401E019004D12E205A46179996
:102BB00090476D1CBAF10001AAF1010ADDDC05E0C5
:102BC00017F8010B5A46179990476D1CB8F1000190
:102BD000A8F10108F4DC5B462146179A0598ABE69C
:102BE0002D0000002B000000200000002DE9F04126
:102BF000044600251E461746880404D405E03946DD
:102C00002020B0476D1C641EF9D52846BDE8F08130
:102C10002DE9F041044600251E469046C80301D523
:102C2000302700E02027880404D505E041463846D7
:102C3000B0476D1C641EF9D52846BDE8F0814A688E
:102C4000002A06D00A68531C0B6010704868401EAA
:102C5000486070470A68531C0B6010707047000092
:102C60002DE9FE4F0E465FEA00084E491D46174605
:102C700008F120094FF0010A0ED098F8340000281E
:102C800013D0D8F81000F119814217D946A003F0EB
:102C9000FBFB0520BDE8FE8F00914DA34EA240F244
:102CA000BD2155A003F0CCFBFEE7009159A34AA239
:102CB00040F2BE2150A003F0C3FBFEE7D9F8081094
:102CC000484601B18847F0070CD028463146012319
:102CD00000906D1C761C1A46404601F005FE04006B
:102CE00054D17F1E0121404603F0C2F804004DD1AB
:102CF000AD208DF804000DF1040B34E0BAF1000FA3
:102D000013D05C46621C3146404601F061FC98F8E5
:102D1000350008B1052200E004222878A054A1184B
:102D2000687848704FF0000A06E028788DF80500B2
:102D3000687801228DF80600002000900023D9F861
:102D40000440484601A9921CA047040003D035A0C6
:102D500003F09AFB1AE0404603F0BEFF040015D1D1
:102D6000AD1CB61CBF1E022FC8D20021404603F086
:102D70007FF804000AD1012F0CD101231A463146F5
:102D80004046009501F0B0FD040003D0002140460C
:102D900003F06EF8D9F80C10484601B18847204678
:102DA00078E70000817100084572726F723A204620
:102DB0006C61736820616464726573732069732049
:102DC0006F7574206F6620626F756E642E00000050
:102DD000666C6173680000002825732920686173A0
:102DE00020617373657274206661696C656420612B
:102DF000742025732E0000002E2E5C5061636B61E1
:102E000067655C736675645C7372635C7366756436
:102E10002E630000666C6173682D3E696E69745F95
:102E20006F6B00004572726F723A20466C61736876
:102E30002077726974652053504920636F6D6D75FA
:102E40006E6963617465206572726F722E00000096
:102E5000F8B514460D46064668460121FF22FDF7E7
:102E600004FA22462946304600F046FFF8BD00002D
:102E7000F3B585B0064600214FF0FF30CDE90201E1
:102E80001848CDE9000104AB03AA0491304602F0D2
:102E9000CBFE154D0498012438B1CDE9005402ABA6
:102EA00006AA0221304602F0BFFE0398B8B102998B
:102EB000491C14D1012802D80C4F787840B1CDE9D3
:102EC000005402AB06AA0121304602F0ADFE06E036
:102ED00007A240F2254111A000F058FE7C70029834
:102EE00007B0F0BD7F5C0008412F0008A40300205C
:102EF0005472696767657220612047432063686583
:102F0000636B20616674657220616C6C6F63204531
:102F10004E56206661696C65642E0A002E2E5C5048
:102F200061636B6167655C65617379666C61736829
:102F30005C7372635C65665F656E762E630000008D
:102F400003785BB1036909688B4207D9817801294D
:102F500006D0022902D10449497809B100207047FE
:102F60004069106001207047A403002008B501F0FB
:102F7000B3F80021072828D2DFE800F00406080A89
:102F80001622240011A01EE018A01CE01EA01AE0CA
:102F900001208DF800008DF80110022269462248B8
:102FA00002F0CEFD21A00EE002208DF800008DF889
:102FB0000110024669461C4802F0C2FD23A002E04F
:102FC0002AA000E032A0FFF789F908BD2D2D2D3E83
:102FD000206B65793120707265737320646F776E32
:102FE00021203C2D2D2D0D0A000000002A2A2A3E0A
:102FF000206B6579312070726573732075702120A4
:103000003C2A2A2A0D0A00002D2D2D3E206B6579C1
:103010003120707265737320726570656174212050
:103020003C2D2D2D0D0A0000380400202D2D2D3EA5
:10303000206B6579312073696E676C6520636C69FC
:10304000636B21203C2D2D2D0D0A00002D2D2D3ED2
:10305000206B65793120646F75626C6520636C69E3
:10306000636B21203C2D2D2D0D0A00002D2D2D3EB2
:10307000206B657931206C6F6E6720707265737399
:1030800020737461727421203C2D2D2D0D0A0000D7
:103090002A2A2A3E206B657931206C6F6E6720707A
:1030A0007265737320686F6C6421203C2A2A2A0D94
:1030B0000A00000000EB81008260704770B5044692
:1030C00040688047E1784A0702D02288521C22805B
:1030D000B0EBD11F0CD04FF0005202EBB1114FEA10
:1030E000B161C1F3C202E170032A04D360F3C711D6
:1030F00021F03800E070E078002500F00701062993
:103100001ED2DFE801F0031E407D1D94C0F3801144
:10311000B1EBD01FA07820F0F0000FD1A070A16813
:1031200009B1204688472580A07820F00F00401C78
:10313000A070E07820F00700401C11E08030A07003
:1031400070BDC0F38011B1EBD01F0BD0A07820F080
:10315000F0001030A070E168B9B32046884760E005
:10316000E07070BD2088C828FBD9A07820F0F0005E
:103170005030A070E16909B120468847E07820F01E
:103180000700401DECE7C0F38011B1EBD01F1DD14B
:10319000A07820F0F000A070A16809B1204688470F
:1031A000A0784FF0805101EB30104FEA307020F0E2
:1031B000F0002030A070216909B1204688472580A1
:1031C000E07820F00700C01CCAE72AE020883C28ED
:1031D000C7D9A07800F00F01012902D0022906D03A
:1031E0003AE020F0F0003030A070616904E020F097
:1031F000F0004030A070A16971B3204688472BE0F1
:10320000C0F38011B1EBD01FABD0A07820F0F0005C
:103210001030A070E16809B12046884720883C281A
:103220001AD22580E07820F00700801C98E7C0F3D0
:103230008011B1EBD01FA07820F0F00008D16030F1
:10324000A070216A00298CD02046BDE87040084754
:103250001030A070E168CFE7E07820F007007FE74A
:1032600070B50D46164604462821FDF705F8A078EE
:1032700020F0F0008030A0706560A8470146E0783B
:1032800061F3C71066F38610E07070BD074A1168DD
:103290000B4605E0814202D14FF0FF307047496A8A
:1032A0000029F7D143621060002070479C03002082
:1032B000054810B5046803E02046FFF7FFFE646A86
:1032C000002CF9D110BD00009C03002038B5044645
:1032D0004178007809B1032802D001281AD017E0FC
:1032E000A17804F110020F4800F078FC204601F0AC
:1032F000C1F938B10C4A40F2BB610CA0A36800F0E0
:1033000045FC0DE012A240F2B96108A000F03EFCBD
:10331000002038BD052306226946206B03F040FDDE
:10332000012038BD347E0008D07E00082E2E5C506F
:1033300061636B6167655C65617379666C61736815
:103340005C7372635C65665F656E762E6300000079
:103350005265636F766572792074686520454E56B4
:10336000207375636365737366756C2E0A000000C5
:1033700010B5017839B18078032804D103490120C0
:10338000487000F051FE002010BD0000A403002092
:1033900070B50446007860B90D460748616800F0D2
:1033A0001DFC28684FF0FF31401C2860606800F069
:1033B000AFFD002070BD0000F07D00082DE9F04356
:1033C00087B0064600208DF818001C4691468846B6
:1033D00008467569FCF767FF202807D9202146A019
:1033E00000F0FCFB042007B0BDE8F083FF221821A9
:1033F0006846FCF73AFF4B4801904046FCF753FF04
:10340000C0B28DF810002044183005940290B0F539
:103410007F6F04D944A000F0E1FB0620E3E7681CBD
:1034200006D13046029901F029FA0546401C60D0C9
:1034300006AA3046029903F0C3FB04005AD10822C1
:1034400004A900F0EBF903909DF81020414600F02C
:10345000E5F903904946059A00F0E0F96F460390BC
:10346000012306223946284603F09AFC040005D1C0
:103470001422391D281D00F03FFC0446002C39D1D0
:1034800005F118009DF8102041460746FFF7E0FCC3
:1034900004469DF8180038B99DF8100005990844B5
:1034A000C119706803F0BAFB9DF810102A46404617
:1034B00003F02EFBF4B99DF8100049463844059AF4
:1034C000FFF7C6FC040015D10223062269462846F0
:1034D00003F066FC04000DD19DF8180050B11AA24B
:1034E00040F25A5122A000F051FB2A4901204870B5
:1034F00000E00624204676E74572726F723A205447
:10350000686520454E56206E616D65206C656E675E
:103510007468206973206D6F7265207468616E2015
:1035200025640A004B5634304572726F723A20544B
:10353000686520454E562073697A6520697320744A
:103540006F6F206269670A0054726967676572204D
:103550006120474320636865636B20616674657210
:10356000206372656174656420454E562E0A000022
:103570002E2E5C5061636B6167655C656173796673
:103580006C6173685C7372635C65665F656E762EF2
:1035900063000000A40300202DE9F04190B015461F
:1035A0000C00804604D101A900F023FC68B101ACF5
:1035B000244E206BA5B104230622694603F0F0FBDC
:1035C000F1780546294313D024E043461EA240F279
:1035D0003F4123A000F0DAFA042010B0BDE8F081EA
:1035E00003230622694603F0DBFB0546012012E0B7
:1035F000B8F100004FF0FF3705D0FCF754FE01464C
:103600003A46404604E02CB1A1783A4604F1100055
:1036100003F07EFA0020F070206B040B2403641C7E
:103620006DB904226946204602F0EEF8012806D161
:10363000022304226946204603F0B2FB05462846D1
:10364000CBE70000A40300204E6F7420666F756EF8
:1036500064202725732720696E20454E562E0A00C8
:103660002E2E5C5061636B6167655C656173796682
:103670006C6173685C7372635C65665F656E762E01
:1036800063000000F0B50446007891B000283CD0FB
:10369000A078022801D0032837D1606803230422D0
:1036A0000FA9401C03F07CFB4FF0FF3605AD40F244
:1036B000D9470D9617E001A801F04AFD9DF80500D5
:1036C00088B19DF80400022801D003280BD101A87D
:1036D00000F0D0FF38B100959DF806300CA23946B5
:1036E00016A000F053FA01A9204600F035FD0D9018
:1036F000401CE0D13146606800F00AFC18A240F29C
:10370000DE410EA0636800F041FA11B00020F0BD68
:103710004572726F723A204D6F76656420746865E9
:1037200020454E562028252E2A732920666F7220A8
:103730004743206661696C65642E0A002E2E5C503A
:1037400061636B6167655C65617379666C61736801
:103750005C7372635C65665F656E762E6300000065
:10376000436F6C6C656374206120736563746F7262
:1037700020403078253038580A0000007CB5104DC4
:1037800000200090287808B100207CBD694601A87F
:1037900000F096FA040005D1DDE9001000F050F8C1
:1037A000040008D007A109A000F018FA104800F0A2
:1037B00015FA20467CBD0120287002A10DA0F3E778
:1037C000A0030020342E312E393900004561737971
:1037D000466C6173682056257320697320696E6991
:1037E0007469616C697A65206661696C2E0A0000F3
:1037F000A47D000845617379466C61736820562585
:103800007320697320696E697469616C697A6520D7
:10381000737563636573732E0A00000010B5C043AF
:10382000064B07E011F8014B4440E4B253F8244042
:1038300084EA1020521EF5D2C04310BDC4730008A4
:10384000F8B520B11A4C22785AB10020F8BD1948B9
:10385000009019A31BA240F2027122A000F096F979
:10386000FEE70022284D531E45F83230521C042A30
:10387000FAD3254D0022803D05EBC206521C736031
:10388000102AF9D300226260C4E902104FF40050FC
:10389000134600901DA240F21C7112A000F076F9B0
:1038A00000F016F90028D1D101212170F8BD0000E7
:1038B000A4030020B573000864656661756C745FCD
:1038C000656E760028257329206861732061737303
:1038D000657274206661696C65642061742025736B
:1038E0002E0A00002E2E5C5061636B6167655C657B
:1038F000617379666C6173685C7372635C65665F43
:10390000656E762E63000000580A0020454E562052
:103910007374617274206164647265737320697377
:10392000203078253038582C2073697A65206973E7
:103930002025642062797465732E0A002DE9F04118
:10394000274C284888B0E168002639B1A16871B1D8
:1039500000F064F94FF0FF38656819E0009022A389
:1039600025A240F205612CA000F010F9FEE70090BE
:1039700032A321A240F2066127A000F007F9FEE77A
:103980004146284600F0C4FA060023D105F58055CB
:10399000606800F500508542F2D3002517E000BFB3
:1039A000E06805EB450700EB870083681BB94068BA
:1039B000FCF779FC0346CDF81880E06800EB87013E
:1039C0004A6850F8271001A8FFF7F8FC6D1CA068A2
:1039D0008542E5D300F024F908B03046BDE8F08117
:1039E000A4030020A273000864656661756C745FAF
:1039F000656E765F7365740028257329206861738E
:103A000020617373657274206661696C65642061FE
:103A1000742025732E0A00002E2E5C5061636B61AA
:103A200067655C65617379666C6173685C7372630A
:103A30005C65665F656E762E630000006465666196
:103A4000756C745F656E765F7365745F73697A65B4
:103A500000000000F0B5044615488FB01D46007800
:103A600016460F4678B100F0D9F820460024694682
:103A700000F0BFF9A8B10DB1039828600398B042D7
:103A800007D2044606E00BA000F0A8F800200FB013
:103A9000F0BD344647B1224639460D9800F01CF976
:103AA00002E00DB10020286000F0BAF82046EEE7F1
:103AB000A4030020454E562069736E277420696E5A
:103AC000697469616C697A65204F4B2E0A000000A9
:103AD00070B5002698B0194C01201696A0701848B1
:103AE000CDE900063546334616AA314610A802F045
:103AF0009BF81698022804D112A000F06FF8FFF787
:103B00001DFF00F08BF81F48CDE9000500231A4681
:103B1000194610A802F088F800221B4B114602A893
:103B200000F036F9607810B100F07EFAF4E7A57085
:103B300000F076F818B0304670BD0000A4030020F5
:103B4000913300085761726E696E673A20416C6C60
:103B500020736563746F72206865616465722063A9
:103B60006865636B206661696C65642E20536574BB
:103B700020697420746F2064656661756C742E0A08
:103B80000000000071330008CD3200080FB40A466F
:103B900010B5014605AC09A000F0C0F822460C485B
:103BA0000499FEF7C1FB0A490AA000F0B7F80AA081
:103BB000FEF794FB10BC5DF814FB00005B466C61E3
:103BC00073685D2825733A256C6429200000000085
:103BD00055090020257300000D0000000FB40AA055
:103BE00010B503AC00F09AF8224609480299FEF796
:103BF0009BFB074907A000F091F807A0FEF76EFBBA
:103C000010BC5DF814FB00005B466C6173685D00DE
:103C100055090020257300000D00000072B67047A2
:103C200062B67047F8B50E460546002402F0BAFBAE
:103C3000290508D00848009008A310A2682117A001
:103C4000FFF7A4FFFEE73246294602F09BFA00B1D7
:103C500001242046F8BD00003C73000861646472D2
:103C600020252045465F45524153455F4D494E5FF3
:103C700053495A45203D3D20300000002825732936
:103C80002068617320617373657274206661696C6A
:103C900065642061742025732E0A00002E2E5C506E
:103CA00061636B6167655C65617379666C6173689C
:103CB0005C706F72745C65665F706F72742E630007
:103CC00010B5044A026002200024086002F06EFB76
:103CD000204610BD247300082DE9F04117460D461B
:103CE0000646002402F05EFB2B463A46314602F0BF
:103CF000E9FB2046BDE8F0812DE9F04117460D466D
:103D00000646002402F04EFB2B463A46314602F0AE
:103D100087FD00B103242046BDE8F0810FB410B543
:103D200003AA05480299FEF7FFFA034903A0FEF72C
:103D3000D5FA10BC5DF814FB55090020257300006E
:103D400070B506460A4814460D46007858B1FFF78C
:103D500065FF22462946304602F030F80446FFF758
:103D60005FFF204670BD03A0FFF738FF072070BD3E
:103D7000A4030020454E562069736E277420696E97
:103D8000697469616C697A65204F4B2E0A000000E6
:103D90002DE9F04186B04FF0FF361D4617468846A4
:103DA000044601961DE00022694601F0DFFAC0B921
:103DB000BDB19DF80100022801D0032811D126636E
:103DC00008E0204601F0C4F93A4641462046A8479B
:103DD00000280BD12146684600F0BEF92063401C44
:103DE000EFD1684600F0E0F9411CDCD106B0BDE837
:103DF000F0812DE9F0410C460746FCF754FA0646DF
:103E0000014604F13002384600F06AF928B1204634
:103E100001F09EF90120BDE8F0812146384600F00E
:103E200025F8050004D031463846226B02F070FEBA
:103E30002846F0E770B504460D4616460846FCF7DE
:103E400032FA0246A07890420AD1607840B12078D8
:103E5000022805D1294604F11000FCF72BFA08B11D
:103E6000002070BD0120307070BD000038B50C46D8
:103E700000218DF800100146034B6A462046FFF7EB
:103E800087FF9DF8000038BD353E00082DE9F0435E
:103E900089B00E46044605466FF30B0008A900F0F2
:103EA0009DF94FF0FF3968B3089884422CD029E07F
:103EB000202269462046FFF70FFF00206B46134F74
:103EC0001CE000BF191813F800C091F801800CEB3A
:103ED000082C91F80280C9784FEA084808EB016184
:103EE0006144B94207D1121FAA4204D32044001FE3
:103EF00009B0BDE8F083401C1C2802D22218B2424F
:103F0000E0D31C34B442D3D34846F1E74B563430A7
:103F100070B5044686B00E46000509D019480090D9
:103F200019A31FA240F2AD3125A0FFF72FFEFEE737
:103F30004FF480512046FFF775FE05001FD1FF2288
:103F4000102101A8FCF791F90122042101A801F038
:103F500079FF012204210DF1050001F073FF2148D2
:103F6000CDE90206681E0490102201A92046FFF741
:103F7000C3FE054604F58051204602F04FFE06B010
:103F8000284670BD94730008616464722025205334
:103F90004543544F525F53495A45203D3D20300020
:103FA00028257329206861732061737365727420FA
:103FB0006661696C65642061742025732E0A0000B7
:103FC0002E2E5C5061636B6167655C656173796619
:103FD0006C6173685C7372635C65665F656E762E98
:103FE000630000004546343013B500980A2806D116
:103FF00047F23053012206A10648FDF743FD4FF674
:10400000FF73012269460348FDF73CFD00981CBD83
:104010000D00000004060020007810B10868401C64
:10402000086000207047000010B58AB000241148D5
:10403000CDE90004234608AA0121089402A801F052
:10404000F3FD012000900CA240F2F24117A0089B62
:10405000FFF79CFD0898012808D81D48CDE9000409
:1040600000231A46194602A801F0DEFD19484470E3
:104070000AB010BD194000085468652072656D6172
:10408000696E20656D70747920736563746F72203A
:1040900069732025642C2047432074687265736817
:1040A0006F6C642069732025642E0A002E2E5C50EC
:1040B00061636B6167655C65617379666C61736888
:1040C0005C7372635C65665F656E762E63000000EC
:1040D00085360008A403002080780009704700009E
:1040E0002DE9F047904689460A468246014688B047
:1040F0000020FFF793FB070C164D002405EBC406C8
:104100007068411C0ED035F83410B9420AD1202213
:1041100069461830FFF7E0FD4A4669465046FCF70D
:10412000C9F830B1641C102CE8D3002008B0BDE8F9
:10413000F08705EBC4004168C8F8001070884FF69E
:10414000EF71884202D34FF6FF7000E010307080AC
:104150000120EBE7D809002070B5054640780C46F1
:104160004FF0FF3601281CD0206B411C09D0696834
:1041700001F58052904214D862782AB1A2681044A6
:1041800003E06868103070BD401C01F57F61FFF7E7
:104190007DFE696801F58051814202D3A168002942
:1041A000F1D1304670BD00000B49024640684968B5
:1041B000431C0CD0D268531C0BD000EB023000BF64
:1041C00001F50051884201D34FF0FF307047084697
:1041D000704700F58050F3E7A403002010B5094BA9
:1041E000002200BF53F83240844206D119B103EBDC
:1041F000C20040680860012010BD521C042AF1D39F
:10420000002010BD580A002070B5491E00220B4640
:10421000802409E000EBD1052E7801F0070524FA8F
:1042200005F52E4202D0521C491EF3D2981A70BDD9
:10423000F8B5684D040013D002F0D0FA00286ED112
:10424000606AA8B12069002500281AD0A08A002839
:1042500017D0A069002814D0207F002811D06AE070
:104260005DA35FA2FC2166A0009502F0E9F8FEE7DD
:104270006AA35BA240F2091161A0009502F0E0F888
:10428000FEE7204601F020F800286DD1204602F01C
:10429000B9F900B3A560206D2061B4F84800012889
:1042A00017D00120A082606DA06194F8580020779B
:1042B0005FF0010004EBC002516D31B1A3698B4284
:1042C00003D9A16192F858102177401C0428F1D33A
:1042D00029E00220E6E7554A267B002000EB400358
:1042E00002EBC3010F79B7421AD14F7994F80DC090
:1042F000674515D18F7994F80EC0674510D100EB52
:10430000400052F83000A06002EBC30080682061DA
:104310008889A0820869A061087D207703E023E0F6
:10432000401C1628DAD32069D0B1A08AC0B1A06998
:10433000B0B1207FA0B13D4A002094F80C10803A23
:1043400002EBC0031B798B420FD152F8301079B1C8
:10435000A268002A1BD036A0236902F095F80BE072
:104360003EA002F091F80120F8BD401C1028E7D3D0
:1043700048A0216902F088F8204601F08BFA002855
:10438000F2D1217D490707D5002201210FE04BA082
:10439000226902F079F8EFE7217BC2290CD1617B19
:1043A000202909D1A17B162906D1002211462046D9
:1043B00002F04CFA0028D7D12169B1F1807F05D9EC
:1043C0002046BDE8F840012101F06ABC84F8355070
:1043D000F8BD000028710008666C61736800000079
:1043E00028257329206861732061737365727420B6
:1043F0006661696C65642061742025732E0000007D
:104400002E2E5C5061636B6167655C736675645CDE
:104410007372635C736675642E630000666C61730F
:10442000682D3E7370692E7772000000186F0008C7
:1044300046696E64206120257320257320666C61B7
:10444000736820636869702E2053697A65206973E8
:1044500020256C642062797465732E005761726E3A
:10446000696E673A205468697320666C61736820CE
:10447000646576696365206973206E6F7420666F6A
:10448000756E64206F72206E6F7420737570706F1C
:1044900072742E0046696E64206120666C617368D8
:1044A00020636869702E2053697A6520697320251E
:1044B0006C642062797465732E00000046696E6436
:1044C000206120257320666C6173682063686970C1
:1044D0002E2053697A6520697320256C64206279E7
:1044E0007465732E00000000FCF7B6FAFDF76CFC53
:1044F000FDF728FBFDF77AFBFDF7CCFBFDF798FBFA
:1045000017A0FDF7EBFE2249802201F1800001F0A7
:10451000C9FA0120FCF78CF9FFF730F90120FCF70C
:1045200087F91C48017811B11BA0FDF7D7FE0022C6
:1045300023492448FEF794FE234A03212148FEF72D
:10454000B9FD214A04211F48FEF7B4FD1D48FEF7BE
:104550009DFE1E48FCF7E8FF00F038F9FCE700007C
:104560004D756C7469427574746F6E2B52696E6709
:104570004275666665722B534655442B45617379C7
:10458000466C61736820546573742E2E2E0D0A00DC
:10459000B80300200000002045617379466C617308
:1045A0006820696E6974206661696C2C20456645D7
:1045B0007272436F6465203D2025642E720A0000EC
:1045C00045510008440500206D2F0008C405002057
:1045D00038B5144B30B172B190F83500002813D0C3
:1045E000042312E0009310A311A24FF4797118A0D4
:1045F00001F026FFFEE700931CA30DA240F2E53177
:1046000013A001F01DFFFEE7032300201C1AE400A5
:10461000083C21FA04F41454401CC0B29842F5D36B
:1046200038BD0000DE710008666C61736800000030
:104630002825732920686173206173736572742063
:104640006661696C65642061742025732E0000002A
:104650002E2E5C5061636B6167655C736675645C8C
:104660007372635C736675642E63000061727261BD
:10467000790000002DE9F04704460078A2B04FF021
:10468000000A022804D1002221461046FEF784FFCA
:1046900003A8A168FEF7ECFB0646401C14D0354881
:1046A00004F11008817899B1242109A8FBF7E4FDF1
:1046B000A278414609A8FBF7EAFD13A909A8FFF76C
:1046C000D5FB00284ED103E0062022B0BDE8F087DC
:1046D000A16800220D4603A802F072FA0123062207
:1046E00012A9304602F05CFB2F1F002517E000BF27
:1046F00005F12000B84201D2202000E0781B81465D
:10470000216B281D08444A4609A9FFF7E5FA7019EC
:104710004A4609A9001DFFF7EFFA82464D44BD4203
:10472000E6D30223062212A9304602F039FBA07814
:10473000E168014406F118000144300B000302F067
:104740006DFAA1783246404602F0E2F9206BCDF8CE
:104750000080CDE90106A37807A240F29E4112A095
:10476000FFF714FA012221460020FEF715FF5046FC
:10477000ABE70000A40300204D6F766564207468E9
:104780006520454E562028252E2A73292066726FF3
:104790006D2030782530385820746F2030782530DF
:1047A00038582E0A000000002E2E5C5061636B61A9
:1047B00067655C65617379666C6173685C7372636D
:1047C0005C65665F656E762E6300000008B51E4866
:1047D00001F0ECF8002821D0022269461A4801F0C5
:1047E000FFF89DF80000012827D0022828D00328D0
:1047F00014D115499DF801200C31144801F0F0F84E
:1048000011499DF801000C31012808D0022806D07A
:1048100000220A540EA000BFFDF760FD08BD4878D5
:104820000A78303800EB80006FF02F0101EB400078
:1048300011180C4841600CA0EEE702F01FFA08BD09
:1048400002F0FEF808BD00003804002044070020F4
:10485000B7C7CAE4C8EBD6BDD5C5CAFDC1BFA3BAA8
:1048600025730A0000000020D0A3D7BCD6BDD5C553
:10487000CAFDC1BFCEAAA3BA25640A002DE9F04142
:104880000E4D0F468046002440F2AE463946404663
:10489000FEF7EEFA411C0ED1697800290BD0002CEE
:1048A00009D13B46064A314606A0FFF76FF9FFF7EC
:1048B000BBFB0124EAE7BDE8F0810000A40300206F
:1048C000807E00082E2E5C5061636B6167655C65BD
:1048D000617379666C6173685C7372635C65665F53
:1048E000656E762E630000002DE9F84F06004E48F5
:1048F0001C46154689464FF0000806F120070DD0EA
:10490000012C14D0B4F5807F11D0009047A351A2A0
:104910004FF41A7157A001F093FDFEE700905CA3DD
:104920004CA240F2662153A001F08AFDFEE796F802
:10493000341051B1316909EB050088420ED956A0F7
:1049400001F0A2FD0520BDE8F88F00905CA341A214
:1049500040F26A2147A001F073FDFEE7B968DFF875
:1049600070B1002954D03846884751E001213046C3
:1049700001F07EFA5FEA00084CD102208BF80000BB
:104980000BF1010249463046FFF722FE96F835004A
:1049900008B1052000E00420B9FBF4F1804604FBD7
:1049A000119068B1B9FBF4F104FB1190201AA842F0
:1049B0000AD2B9FBF4F104FB1190A4EB000A04E065
:1049C000A54201D9A24600E0AA46A5EB0A05D144BA
:1049D0000BEB080052460A99FBF735FC00200090CB
:1049E0000346D7F804C008EB0A0239493846E047C5
:1049F0005FEA000803D037A001F046FD0AE0304628
:104A000002F06AF95FEA000804D10A9850440A905B
:104A1000002DABD10021304601F02AFAF96809B126
:104A20003846884740468EE7697100087772697496
:104A3000655F6772616E203D3D2031207C7C207770
:104A4000726974655F6772616E203D3D2032353654
:104A500000000000282573292068617320617373AA
:104A6000657274206661696C6564206174202573C9
:104A70002E0000002E2E5C5061636B6167655C73D5
:104A80006675645C7372635C736675642E630000A4
:104A9000666C6173680000004572726F723A20465E
:104AA0006C6173682061646472657373206973203C
:104AB0006F7574206F6620626F756E642E00000043
:104AC000666C6173682D3E696E69745F6F6B000080
:104AD000500800204572726F723A20466C6173680C
:104AE0002077726974652053504920636F6D6D752E
:104AF0006E6963617465206572726F722E000000CA
:104B000030B50C4687B00821002204920592244A51
:104B100058B1002C11D0082304AA00F033FD00285E
:104B200013D020A001F0B0FC2BE000922BA32DA20B
:104B3000962134A001F084FCFEE7009239A329A25B
:104B4000972130A001F07CFCFEE79DF81030237027
:104B50009DF8112062709DF81210A1709DF813004D
:104B6000E070059D012925F07F45656003D9314836
:104B700001F08AFC05E0092806D201462E4801F022
:104B800083FC002007B030BD00910395CDE90120E2
:104B90002A4AAD211BA001F053FC0120F2E70000DE
:104BA000277200084572726F723A2043616E277453
:104BB0002072656164204A454445432062617369FF
:104BC0006320666C61736820706172616D657465E5
:104BD00072206865616465722E000000666C617306
:104BE00068000000282573292068617320617373B1
:104BF000657274206661696C656420617420257338
:104C00002E0000002E2E5C5061636B6167655C7343
:104C10006675645C7372635C736675645F73666407
:104C2000702E630062617369635F686561646572B9
:104C300000000000A47B00082C7D0008D07A00084A
:104C40002DE9F0418EB00E46054600F144044F6850
:104C5000242104A8FBF710FB8B485DB1002E11D076
:104C6000242304AA3946284600F08CFC002811D0E1
:104C700086A0B1E0009093A394A2C2219BA001F072
:104C8000DFFBFEE70090A1A390A2C32197A001F053
:104C9000D7FBFEE7A1A2CB2194A001F0D1FBA9A2F2
:104CA000CC2192A001F0CCFB002504AE06EB8500E0
:104CB00016F8252041788378C078CDE90003CDE946
:104CC0000212B0466B1CA6A2CE2188A001F0B8FB50
:104CD0006D1CEDB2092DE9D39DF81130E3719DF8FB
:104CE0001000002600F003000125012803D003284E
:104CF00008D0A4A070E0A571B04AD7217BA001F034
:104D00009FFB05E0A671AEA2DB2178A001F098FB25
:104D10009DF81000C0F38000002831D038B14FF466
:104D20008070A080B3A2EA2170A001F089FB9DF8F9
:104D30001000C0F3C000002826D0A0B12672B84AE7
:104D4000FA216AA001F07CFB9DF81000C0F300106E
:104D500000281DD038B10620B24A60724FF482712B
:104D600062A001F06DFB9DF81200C0F34100A0B1FC
:104D7000012818D00228A67234D0E672AAA02BE02F
:104D8000A580B2A2E621CFE72572B8A2F521E7E718
:104D900050206072C14AFF21E2E7A572E672C0A20C
:104DA00040F20F1104E0A572E572C3A24FF48A71BC
:104DB0004EA001F045FB9DF81400DDF8151040EA07
:104DC00001209DF81710C90911D0B9B120F0004099
:104DD00023280FD9BF48E66001F056FB00200EB033
:104DE000BDE8F081E572BCA240F21911E0E705EBE5
:104DF000D00002E0C01E05FA00F0E060BCA240F264
:104E000031113AA0E36801F01BFB00264FEA0607C8
:104E100008EB4602117F89B105FA01F004EBC703E4
:104E200001461861507F18758B0A0090B6A240F2B7
:104E300037112EA001F004FB7F1CFFB2761CF6B2E6
:104E4000042EE5D35FF0000004EBC0021169A1B1AC
:104E5000411C0FE004EBC1031F6957B11669BE4244
:104E600007D992F814C017611F7D17751E6183F86A
:104E700014C0491CC9B20429ECD3401CC0B2042898
:104E8000E2D325700120AAE7397200085761726EDB
:104E9000696E673A2043616E2774207265616420F1
:104EA0004A4544454320626173696320666C6173BF
:104EB0006820706172616D65746572207461626CE6
:104EC000652E0000666C6173680000002825732958
:104ED0002068617320617373657274206661696C08
:104EE00065642061742025732E0000002E2E5C5016
:104EF00061636B6167655C736675645C7372635C48
:104F0000736675645F736664702E630062617369B3
:104F1000635F686561646572000000004A4544454E
:104F20004320626173696320666C617368207061FD
:104F300072616D65746572207461626C6520696E62
:104F4000666F3A004D53422D4C53422020332020AF
:104F5000202032202020203120202020300000007E
:104F60005B253034645D203078253032582030782D
:104F7000253032582030782530325820307825308E
:104F8000325800004572726F723A20556E69666F32
:104F9000726D2034204B42206572617365207375F9
:104FA00070706F7274656420696E666F726D617483
:104FB000696F6E206572726F722E00008C7A000825
:104FC000556E69666F726D2034204B4220657261A8
:104FD000736520697320756E617661696C61626CBE
:104FE0006520666F722074686973206465766963F2
:104FF000652E00005772697465206772616E756C6A
:10500000617269747920697320363420627974651D
:1050100073206F72206C61726765722E0000000051
:10502000F87B0008B47C00084572726F723A205217
:10503000656164206164647265737320627974656C
:1050400073206572726F72210000000057726974DC
:1050500065206772616E756C61726974792069731D
:10506000203120627974652E00000000546172675F
:10507000657420666C617368207374617475732045
:105080007265676973746572206973206E6F6E2D27
:10509000766F6C6174696C652E0000003C7C0008C2
:1050A000332D42797465206F6E6C7920616464726F
:1050B000657373696E672E00332D206F7220342D57
:1050C000427974652061646472657373696E672EDA
:1050D000000000005C7B0008342D42797465206F6D
:1050E0006E6C792061646472657373696E672E00FB
:1050F000436170616369747920697320256C642051
:1051000042797465732E0000466C61736820646593
:105110007669636520737570706F72747320256C87
:10512000644B4220626C6F636B2065726173652E05
:1051300020436F6D6D616E64206973203078253077
:1051400032582E0008210148FBF76EBC001C0240BB
:105150002DE9F04790B004464FF00008C146006BBF
:10516000182201A9FEF7B8FD062101A8FFF74CF8A7
:10517000C0B22070039DA560691CC24604D0B5F57D
:10518000005F01D8102D18D21821A16005280ED07B
:10519000052020702DA240F21B2138A0236BFEF7C2
:1051A000F5FC0523062201A9206B01F0F9FD84F826
:1051B00001A0022010B0BDE8F087A5F6F17041F221
:1051C0000F01884209D23648009036A336A240F239
:1051D00022212AA0FEF7DAFCFEE70026103D15E0AA
:1051E00006F12000A84201D2202700E0AF1B216B6E
:1051F00006F1100008443A4607A9FEF76DFD3A464D
:1052000007A94046FEF70AFB80463E44AE42E7D37C
:105210000499414504D084F801A04FF0020913E03D
:1052200001206070256B9DF81420183504F11001E1
:105230002846FEF751FD9DF8140028446063069847
:10524000E0609DF81400A0704846B3E74572726FA5
:10525000723A2054686520454E56204030782530FB
:105260003858206C656E6774682068617320616EC1
:10527000206572726F722E0A000000002E2E5C50A4
:1052800061636B6167655C65617379666C617368A6
:105290005C7372635C65665F656E762E630000000A
:1052A00063730008300000002825732920686173AB
:1052B00020617373657274206661696C6564206136
:1052C000742025732E0A00007FB5040004F120002D
:1052D00011D09F218DF80C1003210091456802AB7D
:1052E000012203A9A847050011D012A001F0CCF8B3
:1052F00004B0284670BD1B4B194803F1080200900A
:1053000040F2593102F1200001F09AF8FEE79DF8D1
:10531000083023739DF8090060739DF80A10A1738B
:10532000CDE900010F48104A40F26131283001F008
:1053300087F8DDE74572726F723A2052656164202A
:10534000666C61736820646576696365204A4544CC
:105350004543204944206572726F722E00000000A0
:105360008B71000840610008087800082DE9F04FB3
:105370000C46064601055C489BB017464FF0000AF4
:1053800008D0009059A35FA240F2492165A0FEF722
:10539000FDFBFEE7A4B1102201A93046FEF79CFCFC
:1053A00066600298684900254FF0FF38A060884287
:1053B0000FD025700720C4F80C801BB0BDE8F08F1B
:1053C000009062A34FA240F24A2156A0FEF7DEFBF6
:1053D000FEE7012020700398E060042101A8FEF799
:1053E00013FF607004210DF10500FEF70DFFA070A2
:1053F000002F77D0256160684FF47F6710306061BF
:105400006078012802D0022802D06BE0276169E0B1
:1054100004F114013046FEF7E1FE30B161686069C5
:10542000401AC0F5805020615CE02761CDF84480CF
:105430001BE005A8FFF78CFE9DF8150068B99DF8E4
:105440001400012809D0052807D042A01199FEF7C1
:10545000C5FB4FF0020A25610EE060690799084418
:10546000606120690799401A206105A92046FEF76E
:1054700073FE1190401CDCD1656966680027A9465F
:1054800006F580561CE000BF05F1200BB34501D2A4
:10549000202000E0701B8046024613A92846FEF734
:1054A0001BFC002013A908E0FF2F04D00A5CFF2A90
:1054B00001D105EB00090F5C401C4045F4D35D466B
:1054C000B542E1D3FF2F00D14E466069B04205D00E
:1054D00066616068301AC0F580502061616960685B
:1054E00001F09CFB504668E76C73000861646472CD
:1054F000202520534543544F525F53495A45203D80
:105500003D20300028257329206861732061737362
:10551000657274206661696C65642061742025730E
:105520002E0A00002E2E5C5061636B6167655C651E
:10553000617379666C6173685C7372635C65665FE6
:10554000656E762E630000004546343073656374E3
:105550006F7200004572726F723A20546865204580
:105560004E56202840307825303858292043524361
:10557000333220636865636B206661696C65642102
:105580000A0000003EB520A5D5E90045CDE901455A
:105590000C0C8DF805400C0A8DF806401C4C8DF85B
:1055A000071058B1B1F1807F11D31AA31DA240F2A8
:1055B0005B1124A0009400F043FFFEE729A319A289
:1055C0004FF4AD711FA0009400F03AFFFEE742B126
:1055D000456A7DB100931346052201A92030A847F2
:1055E0003EBD22A30FA24FF4AE7116A0009400F0AE
:1055F00027FFFEE720A30BA240F25D1111A000944B
:1056000000F01EFFFEE700005A000000FF0000004F
:105610004A72000861646472203C20314C203C3C9A
:105620002032340028257329206861732061737348
:10563000657274206661696C6564206174202573ED
:105640002E0000002E2E5C5061636B6167655C73F9
:105650006675645C7372635C736675645F736664BD
:10566000702E6300666C617368000000726561648F
:105670005F62756600000000666C6173682D3E73A2
:1056800070692E77720000001FB5002100F14404FC
:105690000291039148B12170082302AAFFF772FF1B
:1056A00060B11FA000F0F0FE2AE02548009025A37D
:1056B00026A26D212DA000F0C3FEFEE79DF8080094
:1056C00053280BD19DF80900462807D19DF80A0000
:1056D000442803D19DF80B00502805D02B4A7A218D
:1056E00022A000F0ADFE0BE09DF80C00A0709DF82C
:1056F0000D106170012906D9A27825A000F0C4FE22
:10570000002004B010BD9DF80E20A078CDE9000265
:105710000B462DA2832115A000F092FE0120F0E798
:105720004572726F723A2043616E27742072656110
:10573000642053464450206865616465722E000001
:1057400016720008666C61736800000028257329D2
:105750002068617320617373657274206661696C7F
:1057600065642061742025732E0000002E2E5C508D
:1057700061636B6167655C736675645C7372635CBF
:10578000736675645F736664702E6300E479000865
:105790004572726F723A205468697320726576653B
:1057A0007273696F6E285625642E2564292053462E
:1057B0004450206973206E6F7420737570706F721F
:1057C0007465642E00000000436865636B205346D7
:1057D000445020686561646572206973204F4B2EC8
:1057E0002054686520726576657273696F6E2069F2
:1057F00073205625642E25642C204E504E2069734C
:105800002025642E0000000038B514460D000AD093
:10581000E11DCA082946FEF75FFA21462846BDE881
:105820003840FEF7F1BC0548009005A308A240F2FD
:1058300027110FA0FEF7AAF9FEE700005773000832
:105840007374617475735F7461626C65000000004D
:105850002825732920686173206173736572742031
:105860006661696C65642061742025732E0A0000EE
:105870002E2E5C5061636B6167655C656173796650
:105880006C6173685C7372635C65665F656E762ECF
:10589000630000002DE9FC41050005F1200412D051
:1058A000662000278DF80400009766683B460122B9
:1058B00001A92046B04706000FD018A000F0E4FD73
:1058C0003046BDE8FC811E4800901EA31FA240F296
:1058D000393126A000F0B4FDFEE7284601F0FCF9BE
:1058E00099208DF8050000970023666801220DF1CC
:1058F00005012046B047040004D1284601F0ECF928
:10590000040004D005A000F0BFFD2046D9E71EA288
:105910004FF4537115A000F093FDF6E74572726FD6
:10592000723A20466C61736820646576696365200D
:105930007265736574206661696C65642E00000091
:10594000906E0008666C617368000000282573295A
:105950002068617320617373657274206661696C7D
:1059600065642061742025732E0000002E2E5C508B
:1059700061636B6167655C736675645C7372635CBD
:10598000736675642E630000466C617368206465FD
:1059900076696365207265736574207375636365EA
:1059A00073732E007820401EFDD2704710B5044658
:1059B00000F02AF9002809D0012808D0E188A08841
:1059C0004A08B2EB500F04D9A2EB500010BD208959
:1059D00010BD4008A0EB51002189081A10BD00003D
:1059E00070B515460E46040005D19E231B4A1CA126
:1059F0001EA0FCF773FC2046FFF7D8FF00282BD031
:105A0000A84200D285B22189A088A1EB500221686A
:105A1000AA4201EB500107DD2A463046FAF713FC93
:105A2000A08805EB500113E03046FAF70CFC208902
:105A3000A188A0EB51002A1A30442168FAF703FC30
:105A4000A088C14361F300002189A1EB5001691ACC
:105A500061F34F00A080284670BD0000B4720008BA
:105A6000726220213D204E554C4C000028257329A0
:105A700020617373657274696F6E206661696C650D
:105A8000642061742066756E6374696F6E3A257365
:105A90002C206C696E65206E756D6265723A2564A6
:105AA000200A000070B515460E46040005D12123DA
:105AB0000E4A0FA111A0FCF711FC2DB922230B4AAD
:105AC0001CA10EA0FCF70AFC2079002100F00100C7
:105AD00061F30000A080A07900F0010061F30000F4
