:020000040800F2
:1000000020050020C101000817150008F51300089D
:1000100015150008F9020008C119000800000000C9
:100020000000000000000000000000001B15000898
:10003000FB02000800000000191500081D1500084B
:10004000DB010008DB010008DB010008DB01000820
:10005000DB010008DB010008DB010008DB01000810
:10006000DB010008DB010008DB010008DB01000800
:10007000DB010008DB010008DB010008DB010008F0
:10008000DB010008DB010008DB010008DB010008E0
:10009000DB010008DB010008DB010008DB010008D0
:1000A000DB010008DB010008DB010008DB010008C0
:1000B000C5150008DB010008DB010008DB010008B2
:1000C000DB010008DB010008DB010008DB010008A0
:1000D000DB010008B5190008DB010008DB0100089E
:1000E000DB010008DB010008DB010008DB01000880
:1000F000DB010008DB010008DB010008DB01000870
:10010000DB010008DB010008DB010008DB0100085F
:10011000DB010008DB010008DB010008DB0100084F
:10012000DB010008DB010008DB010008DB0100083F
:10013000DB010008DB010008DB010008DB0100082F
:10014000DB010008DB010008DB010008DB0100081F
:10015000DB010008DB010008DB010008DB0100080F
:10016000DB010008DB010008DB010008DB010008FF
:10017000DB010008DB010008DB01000800000000D3
:10018000DB010008DB010008DB010008DB010008DF
:10019000DB010008DB010008DB010008DB010008CF
:1001A000DB010008DB010008DB010008DFF80CD0F0
:1001B00000F090F800480047DD1B000820050020F3
:1001C0000648804706480047FEE7FEE7FEE7FEE7F1
:1001D000FEE7FEE7FEE7FEE7FEE7FEE7A9150008FB
:1001E000AD0100082DE9F05F0546002092469B46D0
:1001F00088460646814640241BE02846414647463D
:10020000224600F057F853465A46C01A914110D37F
:1002100011461846224600F03EF82D1A67EB0108F9
:100220004F4622460120002100F035F817EB000967
:100230004E41201EA4F10104DFDC484631462A4627
:100240004346BDE8F09FD2B201E000F8012B491E01
:10025000FBD270470022F6E710B513460A46044663
:100260001946FFF7F0FF204610BD30B50B4601469A
:1002700000202022012409E021FA02F59D4205D345
:1002800003FA02F5491B04FA02F52844151EA2F1EF
:100290000102F1DC30BD202A04DB203A00FA02F131
:1002A000002070479140C2F1200320FA03F3194364
:1002B00090407047202A04DB203A21FA02F0002106
:1002C000704721FA02F3D040C2F120029140084366
:1002D00019467047064C074D06E0E06840F0010300
:1002E00094E8070098471034AC42F6D3FFF762FF5A
:1002F0003C1C00085C1C0008FEE77047704790F843
:100300003510022903D08021416501207047052165
:1003100080F835100068016821F0010101600020BB
:100320007047000070B5044600F004F90546601CF3
:1003300002D004480078044400F0FCF8401BA042BE
:10034000FAD370BD400000202DE9F84F00224FF095
:10035000010803254FF00F0E0B6808FA02F4234042
:10036000A3426ED14E68012E05D0022E03D0112E6D
:1003700001D0122E12D186684FEA420C05FA0CF712
:10038000BE43CF6807FA0CF7374387604668A64339
:100390000C79C4F30014944034434460C668570099
:1003A00005FA07FC8C6826EA0C06BC403443C4609E
:1003B0004C68022C01D0122C13D1D40800EB840419
:1003C000A346D4F8209054074FEAD46A0EFA0AF6EE
:1003D00029EA06090E6906FA0AF646EA0906CBF882
:1003E000206004680E7924EA0C0406F00306BE407F
:1003F000264306604C68E4006FD53B4C266846F403
:1004000080462660246822F0030604F480440094A9
:10041000364C3444A446D4F808489607360F0EFAF2
:1004200006F7BC43324FB84201D100272EE0314FCE
:10043000B84201D1012729E02F4FB84202D102274B
:1004400024E04AE02D4FB84201D103271EE02C4F93
:10045000B84201D1042719E02A4FB84201D105273B
:1004600014E0294FB84201D106270FE0274FB842C8
:1004700001D107270AE0264FB84201D1082705E03D
:10048000244FB84201D1092700E00A27B74027438B
:10049000CCF80878204E34684F689C43FF0300D5A1
:1004A0001C4334601C4E361D34684F689C43BF03A8
:1004B00000D51C433460184E083634684F689C439E
:1004C000FF0200D51C433460134E0C3634684F686D
:1004D0009C43BF0200D51C433460521C102AFFF419
:1004E0003BAFBDE8F88F00004438024000300140C7
:1004F000000002400004024000080240000C0240DC
:10050000001002400014024000180240001C02408B
:100510000020024000240240003C0140426931EAD0
:10052000020200D10904816170470AB181617047FC
:100530000904FBE701488068704700004000002084
:1005400002488168027811448160704740000020B1
:100550000B4810B5016841F400710160016841F475
:1005600080610160016841F480710160032000F046
:1005700071F8002000F006F800F024F8002010BD0B
:10058000003C024070B50D4D04464FF47A71287856
:10059000B1FBF0F00A490968B1FBF0F000F03EFB56
:1005A00048B9102C07D200222146501E00F032F824
:1005B00000206C6070BD012070BD00004000002074
:1005C0004C0000200B4882B0016841F4804101607A
:1005D000006800F4804000900648001F016841F068
:1005E00080510160006800F080500090052002B04A
:1005F00000F030B844380240002809DB00F01F0248
:10060000012191404009800000F1E020C0F8001174
:1006100070470000F0B40E4B1B680C46C3F3022376
:10062000C3F10705042D00D90425191D072901D29E
:10063000002300E0DB1E012606FA05F1491E2140D9
:1006400099409E40761E16403143F0BC01F0CEB971
:100650000CED00E0064900F0070208684FF6FF03C2
:10066000184040EA0220034A104308607047000027
:100670000CED00E00000FA052DE9F8431748016889
:1006800041F0805101600068154F00F08050012654
:1006900000903E64FFF74EFF05464FF47A78114C08
:1006A00005E000BFFFF746FF401B40450DD86068DE
:1006B000C003F7D57E64FFF73DFF0546464607E0D9
:1006C000FFF738FF401BB04202D90320BDE8F88392
:1006D00060688003F4D50020F8E70000403802404D
:1006E00000000E42007000402DE9F0470E46050064
:1006F00065D0DFF81481D8F80000F7B200F00F00E1
:10070000B04207D288F80070D8F8000000F00F005F
:10071000B04254D128683D4C810712D5400703D51B
:10072000206840F4E05020602878000703D5206856
:1007300040F4604020602068A96820F0F000084381
:1007400020602878C0072DD0304968680839012812
:1007500012D0022813D0032811D009688907002974
:100760002DDA216821F0030101432160FFF7E2FE49
:10077000814641F2883A0EE009688903EFE709688B
:100780008901ECE7FFF7D6FEA0EB0901514502D93C
:100790000320BDE8F0872068696800F00C00B0EB2A
:1007A000810FEFD1D8F80010404601F00F01B1429F
:1007B00007D90770006800F00F00B04201D0012097
:1007C000E7E72878400705D52068E96820F4E0507D
:1007D000084320602878000706D52068296920F49E
:1007E000604040EAC100206000F038F82168084A03
:1007F000C1F30311515CC84006490860064800680F
:10080000FFF7C0FE0020C4E7003C02400838024069
:10081000241C00084C000020440000200448054926
:1008200000680968044AC1F38221515CC8407047DE
:100830004C00002008380240341C000804480549D8
:1008400000680968044AC1F34231515CC8407047EE
:100850004C00002008380240341C0008154810B530
:10086000006810F00C02144813D01449042A0FD069
:10087000082A0ED10F4C241F2268236802F03F0281
:100880005B0207D52068C0F38810A0FB010106E0D9
:10089000084610BD2168C1F38811A1FB00010023A7
:1008A000FFF7A0FC2168C1F30141491C4900B0FBDE
:1008B000F1F010BD083802400024F40040787D01BA
:1008C0002DE9F84F04006ED02078DFF83C93C00784
:1008D000A9F104054AD009F104000168C1F38101BE
:1008E000012908D00068C0F3810002280AD1D9F894
:1008F0000000400206D52868800337D560680028CC
:10090000E1D033E06068B0F5803F10D0B0F5A02FA3
:10091000286810D020F480302860286820F48020D7
:1009200028606068A8B1FFF705FE06460DE028685C
:1009300040F48030F4E740F480202860F7E700BFFF
:10094000FFF7F8FD801B642873D828688003F7D56B
:100950000CE0FFF7EFFD064605E000BFFFF7EAFDFC
:10096000801B6428F0D828688003F7D42078DFF84B
:100970009C8280074FF0000A3ED5A348001D016805
:1009800011F00C0F08D00068C0F3810002280BD1D1
:10099000D9F80000400207D42868800716D5E0681F
:1009A000012800D112E02BE1E068B8B10120C8F8BD
:1009B0000000FFF7BFFD064605E000BFFFF7BAFDE8
:1009C000801B0228C0D828688007F7D528682169CD
:1009D00020F0F80040EAC10028600DE0C8F800A04F
:1009E000FFF7A8FD064604E0FFF7A4FD801B0228E0
:1009F0001FD828688007F7D42078000722D5824EB8
:100A000083486169703671B101210160FFF792FD81
:100A1000074604E0FFF78EFDC01B022809D83068A6
:100A20008007F7D50EE0C0F800A0FFF783FD07466A
:100A300005E082E0FFF77EFDC01B02287DD830680C
:100A40008007F7D42078400768D5DFF8BCB10027CD
:100A50000BF13C0BDBF80000C0000BD4DBF80010FE
:100A600041F08051CBF80010DBF80000012700F0C6
:100A700080500090674E3068C00510D4306840F454
:100A800080703060FFF756FD009005E0FFF752FDE3
:100A90000099401A022850D83068C005F6D55A4E41
:100AA000A0686C3601280FD00528306810D020F0DF
:100AB00001003060306820F004003060A068B8B1F8
:100AC000FFF738FD00900FE0306840F00100F4E7D8
:100AD00040F004003060F7E7FFF72CFD0099411A61
:100AE00041F28830814266D830688007F4D50EE044
:100AF000FFF720FD009007E0FFF71CFD0099411A69
:100B000041F28830814256D830688007F4D42FB142
:100B1000DBF8001021F08051CBF80010A069C8B3B9
:100B20003949091D0968C1F3810102294AD0022807
:100B3000504607D0C8F8600000E03CE0FFF7FAFC40
:100B400004463BE04746C8F86000FFF7F3FC064662
:100B500005E000BFFFF7EEFC801B02282BD82868B9
:100B60008001F7D4D4E907010843A16A2A4A490859
:100B700002EB0141626A41EA8211084394F82C10A9
:100B800040EA0161C9F8001001203866FFF7D2FC85
:100B9000044606E036E000BFFFF7CCFC001B02284D
:100BA00009D828688001F7D52CE000BFFFF7C2FC08
:100BB000001B022802D90320BDE8F88F28688001B5
:100BC000F4D41FE00128F7D0D9F80000E26900F45E
:100BD0008001914214D1226A00F03F0191420FD16D
:100BE00047F6C071626A0140914209D1A26A00F4DD
:100BF0004031914204D1E16A00F07060884201D036
:100C00000120D9E70020D7E704380240000047421E
:100C1000800E4742007000400000FFFF10B5401EEC
:100C2000B0F1807F01D3012010BD4FF0E02460615E
:100C30000F21601700F0DAFE0020A061072020617C
:100C4000002010BD7047704770B590F83C20012A15
:100C500032D0012480F83C40022280F83D20036815
:100C60005A689D6822F070060A6832435A60134B36
:100C700002689A4214D0B2F1804F11D0104B9A42C0
:100C80000ED0104B9A420BD00F4B9A4208D00F4B0C
:100C90009A4205D00E4B9A4202D00E4B9A4204D192
:100CA000496825F080031943916080F83D40002198
:100CB00080F83C10084670BD022070BD0000014065
:100CC0000004004000080040000C00400004014007
:100CD000004001400018004010B5040003D094F813
:100CE0003D0010B107E0012010BD002084F83C0059
:100CF000204600F00DF8022084F83D00211D2068F8
:100D000000F066FC012084F83D00002010BD0000CA
:100D100008B50068B0F1804F12D10A48016841F06F
:100D2000010101600068002200F001000090012133
:100D30001C20FFF76FFCBDE808401C20FFF75CBCDF
:100D400008BD0000403802400168CA6842F0010254
:100D5000CA600068816801F00701062903D00168B4
:100D600041F0010101600020704770B5044690F821
:100D70003C00012817D0012584F83C50022084F85B
:100D80003D002068826822F0770222F47F42826070
:100D90000868502830D00DDC20284DD005DC98B3F1
:100DA00010283BD148E0022070BD302844D04028B4
:100DB00034D139E0602828D0702806D0B0F5805FA3
:100DC0002CD0B0F5005F29D10AE0CB68D1E9012130
:100DD000206800F061FC2068816841F0770109E03B
:100DE000CB68D1E90121206800F056FC20688168B9
:100DF00041F48041816011E0CA684968206800F0D0
:100E00005DFC5021206807E016E0CA684968206848
:100E100000F065FC6021206800F048FC84F83D503B
:100E2000002084F83C0070BDCA684968206800F062
:100E300045FC40212068EFE7226801461046EBE7B9
:100E4000704770B50446006801694FF00005C9435A
:100E5000890715D4C168C943890711D4E91E016106
:100E600001202077206880698007204602D0FFF7A4
:100E7000E7FF04E000F098F8204600F096F82577A8
:100E800020680169C943490717D4C168C9434907A4
:100E900013D46FF00401016102202077206880697B
:100EA00010F4407F204602D0FFF7CAFF04E000F0B4
:100EB0007BF8204600F079F8257720680169C9435E
:100EC000090716D4C168C943090712D46FF0080195
:100ED0000161042020772068C0698007204602D085
:100EE000FFF7AEFF04E000F05FF8204600F05DF889
:100EF000257720680169C943C90617D4C168C94369
:100F0000C90613D46FF01001016108202077206812
:100F1000C06910F4407F204602D0FFF791FF04E043
:100F200000F042F8204600F040F82577206801697B
:100F3000C943C90708D1C168C943C90704D1891E7B
:100F40000161204600F032F820680169C9430906B2
:100F500009D4C168C943090605D46FF08001016155
:100F60002046FFF76FFE20680169C943490609D48E
:100F7000C168C943490605D46FF0400101612046AC
:100F800000F044F820680169C94389060BD4C168A0
:100F9000C943890607D46FF0200101612046BDE8EE
:100FA0007040FFF750BE70BD7047704710B51449D0
:100FB00000680968884221D102211248FFF7AEFA81
:100FC0001148C178491CC9B2C170022916D100214B
:100FD000C1708278521CD2B282703C2A0ED18170CC
:100FE0004278521CD2B242703C2A07D1417002783A
:100FF000521CD2B20270182A00D1017010BD00003C
:10100000A00000200004024000000020704770474C
:1010100070B5026804461068D168536910F00F0F6C
:1010200052D003F0010501F490762E435FD0C20741
:1010300005D0CA0503D5E26B42F00102E263420724
:1010400005D5DA0703D0E26B42F00202E2638207C1
:1010500005D5DA0703D0E26B42F00402E26302072F
:1010600007D501F020022A4303D0E26B42F00802C8
:10107000E263E26B002A33D0800604D5880602D5ED
:10108000204600F054FB20684069E16BC0F38010FB
:10109000090700D428B3204600F03BFB20684169D3
:1010A00049061AD5416921F040014161606BA0B148
:1010B0001B490165606BFFF722F9002810D0606BB7
:1010C000016DBDE870400847830610D58B060ED52C
:1010D0002046BDE8704000F02ABB2046FFF797FF8E
:1010E00070BD2046FFF793FF0020E06370BD03064C
:1010F00006D50B0604D52046BDE8704000F0F6BBCF
:101100004006F3D54806F1D5D168204621F04001CC
:10111000D160202184F8391000F06BF970BD000017
:101120000317000870B5040004D094F839000025B6
:1011300010B106E0012070BD84F83850204600F060
:1011400023F8242084F839002068C16821F4005174
:10115000C160204600F036FB2068016921F490410F
:1011600001612068416921F02A0141612068C1685C
:1011700041F40051C160E563202084F8390084F80F
:101180003A00002070BD000010B586B0044614215E
:101190006846FFF75FF818492068884229D1174848
:1011A0000021026842F010020260006800F01000A6
:1011B000059012481438026842F00102026000688B
:1011C00000F0010005904FF4C06000900220CDE9CE
:1011D0000101032003900720049069460848FFF7A7
:1011E000B3F8002201212520FFF714FA2520FFF78C
:1011F00003FA06B010BD0000001001404438024060
:101200000000024090F83A30202B22D1F9B1F2B11F
:1012100090F83830012B1CD081628285C285002174
:10122000C163222280F83A2080F838100168CA6829
:1012300042F48072CA6001684A6942F001024A6160
:101240000068C16841F02001C160002070470120A2
:101250007047022070470000F8B52049006809680F
:1012600088423AD11F4C1E484FF48035A178067849
:1012700063782278BF2E08D18678FB2E05D1467878
:101280001948A12E04D0A22E1DD0009117A108E06C
:1012900000220121FFF749F9A078009063782278B5
:1012A00018A10F48403800F08DFB0D492B46402215
:1012B00040390A4800F040F8BDE8F84003220849E8
:1012C0000648FFF79FBF01221146FFF72EF9A078CD
:1012D00000906378227812A1E3E7F8BDE0000020D7
:1012E00090000020000000200004024025643A2500
:1012F000643A25640909D6B8C1EEB4EDCEF3212FC6
:10130000722F6E0025643A25643A2564202020203F
:101310004C454432B4F2BFAAA3A10D0A000000005C
:1013200025643A25643A256409094C454431B9D805
:10133000B1D5212F722F6E002DE9F843044690F8A5
:1013400039001F4616460D46202850D1B5B1AEB122
:1013500094F8380001284AD0012084F838004FF072
:101360000008C4F83C80212084F83900FFF7E2F837
:10137000A6848146E68484F8388026E00120BDE812
:10138000F883E08C401EE084A0684B46B0F5805F97
:101390004FF000024FF080012046009703D000F08C
:1013A000D6FAE8B90DE000F0D2FAC8B92888216869
:1013B000C0F308004860206908B16D1C05E0AD1C51
:1013C00003E0216815F8010B4860E08C0028D8D1B3
:1013D0004B46002240212046009700F0B8FA08B1A1
:1013E0000320CCE7202084F839000020C7E7022042
:1013F000C5E77047FEE7000030B587B014216846A6
:10140000FEF728FF19480024016841F0040101603B
:10141000016801F004010591016841F0800101605B
:10142000016801F080010591016841F0020101604D
:10143000016801F002010591016841F001010160BC
:1014400000680B4D00F001000590012203212846A1
:10145000FFF76BF8032000900120CDE901046946F5
:1014600028460394FEF770FF07B030BD30380240C5
:101470000004024010B586B000241748009401947F
:101480000294039404944FF080410594016042F269
:101490002731C0E9011441F28731C0E903148461A6
:1014A000FFF71AFC08B1FEF729FF4FF480500090B7
:1014B00069460948FFF759FC08B1FEF71FFF04947D
:1014C00004A905480594FFF7BFFB002801D0FEF7EB
:1014D00015FF06B010BD0000A00000200C4810B59C
:1014E0000A4901604FF4E1314160002181600C2222
:1014F000C160C0E904128161C161FFF713FE0028D9
:1015000003D0BDE81040FEF7F9BE10BD0010014049
:10151000E0000020FEE7704770477047FFF710B803
:1015200070B592B030216846FEF794FE14210CA8E5
:10153000FEF790FE1A480025016841F080510160D5
:10154000006800F0805011901648016841F4404155
:1015500001600068022400F44040119001200090D6
:10156000000401908001CDE906400F260896D8209E
:10157000CDE9090404200B906846FFF7A1F9FFF7B5
:101580007BF84FF4A050CDE90E50E002CDE90C6499
:10159000109005210CA8FFF7A7F812B070BD00004D
:1015A00040380240007000400548016841F4700175
:1015B000016003494FF00060803908607047000007
:1015C00088ED00E00148FFF73CBC0000A0000020CF
:1015D000F0B50268254C264D264E274F274B4FF07D
:1015E000804CA04209D0604507D0A84205D0B04247
:1015F00003D0B84201D0984204D122F0700E4A685C
:1016000042EA0E02A0421BD0604519D0A84217D072
:10161000B04215D0B84213D0984211D0184DA8420C
:101620000ED0184DA8420BD0174DA84208D0174D28
:10163000A84205D0164DA84202D0164DA84203D1AB
:1016400022F44075CA682A434D6922F080022A4379
:1016500002608A68C2620A688262A04201D098422F
:1016600001D10969016301214161F0BD0000014020
:101670000004004000080040000C0040000401404D
:101680000040014000440140004801400018004073
:10169000001C00400020004010B5846842EA03228C
:1016A00024F47F440A432243826010BD826822F002
:1016B00070020A4342F007018160704710B5036A67
:1016C000046A24F001040462846924F0F00444EA0A
:1016D000021423F00A020A438461026210BD10B5AD
:1016E000036A23F0100303628369046A23F47043DE
:1016F00043EA023224F0A00343EA0111826101624D
:1017000010BD10B5806B0021C185C184FFF77FFC3F
:1017100010BD0168CA6822F49072CA6001684A6903
:1017200022F001024A61202180F83A10704710B57A
:1017300090F83A10222901D0022010BD8168B1F53D
:10174000805F11D00169002901681FD0496801F04C
:101750007F03816A4A1C82620B70C18D491E090495
:10176000090CC18518D02BE00269816A002A026841
:10177000526805D0D2B20A80816A491C8162ECE7C6
:10178000C2F308020A80816A891CF7E74A68816A05
:101790004B1C83620A70E0E70168CA6822F02002ED
:1017A000CA600168CA6822F48072CA6001684A6926
:1017B00022F001024A61202180F83A10FFF74CFD27
:1017C000002010BD2DE9F041044600680169E2687F
:1017D00021F44051114301612169A068E269084385
:1017E0006169114308432168CA6849F20C639A434E
:1017F0000243CA6020684169A26921F44071114323
:101800004161E069192764253226B0F5004F354A59
:10181000354920684FF0000806D0884201D0904238
:1018200036D1FFF70BF835E0884201D0904202D163
:10183000FFF704F801E0FEF7F1FF61684A18A0FB2A
:10184000070148EB0803FEF7CDFC0146B0FBF5F0BD
:101850000201B1FBF5F06FF01803584301EB800073
:1018600006EBC000B0FBF5F000F0F80002EB400220
:10187000B1FBF5F0584301EB800006EBC000B0FB74
:10188000F5F000F00700216810448860BDE8F081A1
:10189000FEF7C4FF61688B0F8A00A0FB0701FEF70B
:1018A000A1FC0146B0FBF5F06FF01802504301EBCC
:1018B000800006EB0010B0FBF5F000F0F002B1FB89
:1018C000F5F002EB0012B1FBF5F06FF0180358438E
:1018D00001EB800006EB0010B0FBF5F000F00F000C
:1018E000D1E70000001401400010014090F83910C9
:1018F000212901D0022070478168B1F5805F016A1B
:101900000BD04A1C0262026809785160C18C491EE2
:101910000904090CC1840ED017E009880268C1F3DC
:101920000801516001690029016A02D0491C016265
:10193000ECE7891CFBE70168CA6822F08002CA60F4
:101940000068C16841F04001C160002070472DE986
:10195000F041984617460E460446069D1DE0681C59
:101960001BD02DB1FEF7E6FDA0EB0800A84214D96C
:101970002068C16821F4D071C1602068416921F0FC
:1019800001014161202084F8390084F83A000020E8
:1019900084F838000320BDE8F0812068006836EA4A
:1019A000000004D00020B842D9D00020F3E7012085
:1019B000F9E700000148FFF72BBB0000E000002022
:1019C000FEE700000FB4084B10B504A902AA039863
:1019D00000F02CF8044602A9002000F0D1F82046BF
:1019E00010BC5DF814FB0000811B00080907090EFC
:1019F000002804DB00F1E02080F80014704700F0BC
:101A00000F0000F1E02080F8141D704702E008C8C4
:101A1000121F08C1002AFAD170477047002001E068
:101A200001C1121F002AFBD1704700002DE9FF4FB2
:101A300089B09B460446002506E025280BD05A466F
:101A40000B999047641C6D1C20780028F5D10DB0CF
:101A50002846BDE8F08F0027B8460122474900E03C
:101A6000074314F8013F203B02FA03F00842F7D184
:101A700020782E2819D114F8010F47F004072A28DE
:101A80000ED06FF02F022078A0F1300109290CD878
:101A900008EB880102EB410100EB0108641CF2E74E
:101AA0000A98641C50F8048B0A9020780028CED045
:101AB000642808D0692806D075281ED05A460B998C
:101AC00090476D1C58E00A994FF00A0901C90A9124
:101AD000002802DA40422D2102E0390504D52B21ED
:101AE0008DF82010012103E0F90704D02021F7E749
:101AF0008A4608AE0DE00021FAE70A994FF00A097C
:101B000001C90A91F7E74946FEF7AFFB303106F805
:101B1000011D0028F7D1ADEB060000F12009780780
:101B200001D44FF00108C84502DDA8EB090000E030
:101B300000208046002706E008A85A46C05D0B99A1
:101B400090476D1C7F1C5745F6DB04E030205A4659
:101B50000B9990476D1CB8F10001A8F10108F5DC64
:101B600005E016F8010B5A460B9990476D1CB9F128
:101B70000001A9F10109F4DC641C65E709280100F2
:101B80000A68531C0B6010707047000070B5124C4F
:101B9000002202212046FEF7C8FC4FF4FA752846C1
:101BA000FEF7C0FB002201212046FEF7BEFC2846BE
:101BB000FEF7B8FB012202212046FEF7B6FC2846BC
:101BC000FEF7B0FB012211462046FEF7AEFC284688
:101BD000BDE87040FEF7A6BB00040240FEF7B8FC6B
:101BE000FFF79EFCFFF708FCFFF744FCFFF776FCCD
:101BF000FFF7CCFF4FF6FF73392206490648FFF77F
:101C00009BFB032205490448FFF7FCFA0448FFF751
:101C10009BF8FEE704000020E00000209000002078
:101C2000A0000020000000000000000001020304EA
:101C30000607080900000000010203045C1C0008FC
:101C400000000020500000000C1A0008AC1C000826
:101C500050000020D00400001C1A00080000000002
:101C60003D3D3D3D3D3D3D3D3D3D3D3D3D4C6F6E32
:101C700067596F726B653A48656C6C6F2C6D792093
:101C8000667269656E64213D3D3D3D3D3D3D3D3D96
:101C90003D3D3D3D2F6E2F72000000000100000011
:0C1CA00010000000000000000024F40010
:04000005080001AD41
:00000001FF
