:020000040800F2
:1000000018050020C10100083F150008FF13000873
:100010003D15000821040008AD180008000000008C
:100020000000000000000000000000004315000870
:1000300023040008000000004115000845150008D1
:10004000DB010008DB010008DB010008DB01000820
:10005000DB010008DB010008DB010008DB01000810
:10006000DB010008DB010008DB010008DB01000800
:10007000DB010008DB010008DB010008DB010008F0
:10008000DB010008DB010008DB010008DB010008E0
:10009000DB010008DB010008DB010008DB010008D0
:1000A000DB010008DB010008DB010008DB010008C0
:1000B000DB010008DB010008DB010008DB010008B0
:1000C000DB010008DB010008DB010008DB010008A0
:1000D000DB010008A1180008DB010008DB010008B3
:1000E000DB010008DB010008DB010008DB01000880
:1000F000DB010008DB010008DB010008DB01000870
:10010000DB010008DB010008DB010008DB0100085F
:10011000DB010008DB010008DB010008DB0100084F
:10012000DB010008DB010008DB010008DB0100083F
:10013000DB010008DB010008DB010008DB0100082F
:10014000DB010008DB010008DB010008DB0100081F
:10015000DB010008DB010008DB010008DB0100080F
:10016000DB010008DB010008DB010008DB010008FF
:10017000DB010008DB010008DB01000800000000D3
:10018000DB010008DB010008DB010008DB010008DF
:10019000DB010008DB010008DB010008DB010008CF
:1001A000DB010008DB010008DB010008DFF80CD0F0
:1001B00000F090F800480047791A00081805002060
:1001C0000648804706480047FEE7FEE7FEE7FEE7F1
:1001D000FEE7FEE7FEE7FEE7FEE7FEE7D1150008D3
:1001E000AD0100082DE9F05F0546002092469B46D0
:1001F00088460646814640241BE02846414647463D
:10020000224600F057F853465A46C01A914110D37F
:1002100011461846224600F03EF82D1A67EB0108F9
:100220004F4622460120002100F035F817EB000967
:100230004E41201EA4F10104DFDC484631462A4627
:100240004346BDE8F09FD2B201E000F8012B491E01
:10025000FBD270470022F6E710B513460A46044663
:100260001946FFF7F0FF204610BD30B50B4601469A
:1002700000202022012409E021FA02F59D4205D345
:1002800003FA02F5491B04FA02F52844151EA2F1EF
:100290000102F1DC30BD202A04DB203A00FA02F131
:1002A000002070479140C2F1200320FA03F3194364
:1002B00090407047202A04DB203A21FA02F0002106
:1002C000704721FA02F3D040C2F120029140084366
:1002D00019467047064C074D06E0E06840F0010300
:1002E00094E8070098471034AC42F6D3FFF762FF5A
:1002F000A81B0008C81B0008464910B54A6822F42C
:1003000040324A604A6843681A434A6001684A6852
:1003100022F480724A6001684A68036942EA032253
:100320004A6001684A6822F040724A6001684A687F
:1003300083681A434A6001688A6822F400628A600E
:1003400001688A68C3681A438A60816A6FF07062C4
:10035000D14201688A6822F070628A6001688A6806
:100360000CD0836A1A438A6001688A6822F040527E
:100370008A6001688A68C36A1A4301E022F0405229
:100380008A6001688A6822F002028A6001688A68CD
:10039000037E42EA43028A6090F820100029016837
:1003A0004A680FD042F400624A6001684A6822F449
:1003B00060424A6001684A68174C436A04EB433361
:1003C0001A4301E022F400624A600168CA6A22F41A
:1003D0007002CA620168CA6A838B104C04EB035333
:1003E0001A43CA6201688A6822F400728A6001684E
:1003F0008A6890F8303042EA43228A6001688A684D
:1004000022F480628A6001688A68406942EA80203A
:10041000886010BD0023014000E0FFFF0000F0FFF6
:10042000FEE770477047000078B50024009490F80C
:100430003C20012A19D0012280F83C200A680723B9
:100440000568092A13D9EE680A3A02EB4202934082
:100450009E43EE600B788A680A3B03EB43039A40A5
:100460000368DD682A43DA6010E0022078BD2E6957
:1004700002EB420293409E432E610B788A6803EBA5
:1004800043039A4003681D692A431A614A681F237F
:10049000072A13D205686E6B521E02EB820293404C
:1004A0009E436E630A8893B20A79521E02EB82025F
:1004B00093400268556B2B43536327E005680D2A70
:1004C00012D22E6BD21F02EB820293409E432E6308
:1004D0000B790A88DB1F92B203EB83039A4003680F
:1004E0001D6B2A431A6311E0EE6A0D3A02EB820299
:1004F00093409E43EE620B790A880D3B92B203EB68
:1005000083039A400368DD6A2A43DA621B4B05685D
:10051000194A9D420AD10D68122D07D1556825F45C
:1005200000055560556845F48005556005689D4295
:100530001DD1134D0B68AB4201D0112B17D153685D
:1005400023F480035360536843F400035360096845
:10055000A9420CD10B490C4A0968B1FBF2F101EB3D
:100560008101490000E0491E00910029FBD180F87B
:100570003C40002078BD00000023014000200140E5
:10058000120000104C00002040420F000068C06CB8
:10059000704770B504004FF0000503D0206C0026B2
:1005A00010B107E0012070BD204600F01DF8666420
:1005B00084F83C60206CC00610D4206C20F4885075
:1005C00040F0020020642046FFF796FE6664206C2F
:1005D00020F0020040F00100206400E0012584F8D2
:1005E0003C60284670BD000010B586B0044614215A
:1005F0006846FFF72FFE1149206888421CD1104839
:100600000021026842F480720260006800F4807089
:1006100005900B481438026842F00102026000683D
:1006200000F001000590202000900320CDE9010199
:100630006946044800F012F906B010BD00200140E0
:1006400044380240000002402DE9F04104460068B1
:100650000D4681684FF0000749050BD58068C0053D
:1006600008D5206C40F02000206484F83C70012004
:10067000BDE8F08100F0E2F906460FE0681C0DD0FD
:1006800025B100F0DBF9801BA84207D9206C40F0AF
:100690000400206484F83C700320E9E720680068C7
:1006A0008007EBD521686FF012000860206C40F4E1
:1006B000007020642068816811F0405F13D1217EB2
:1006C00089B9C16A11F4700F02D0806840050AD45C
:1006D000206C20F480702064206CC00403D4206C53
:1006E00040F0010020640020C2E7000018B500219E
:1006F000009190F83C20012A07D0012280F83C208C
:1007000002689368DB0702D011E0022018BD9368ED
:1007100043F0010393602A4A2A4B1268B2FBF3F2BA
:1007200002EB420200E0521E0092002AFBD1026856
:100730009368DB0741D0036C40F20164A34343F4A8
:100740008073036453685B0505D5036C23F4005381
:1007500043F480530364036CDB0404D5436C23F03F
:100760000603436400E0416480F83C1016496FF0D2
:100770002203136049680068CA06144906D08842FB
:100780001BD1816811F0405F13D016E08842F8D089
:100790000F4A904203D1D1F80423D206F1D00D4A7A
:1007A00090420AD1D1F8041301F01F011029E8D3B7
:1007B00003E0816841F080418160002018BD0000A5
:1007C0004C00002040420F00002301400020014067
:1007D000002101400022014090F83C1001290CD07A
:1007E000012180F83C1001688A6822F001028A60C9
:1007F00001688968C90702D007E002207047016CD0
:1008000021F4885141F001010164002180F83C107D
:100810000846704790F83510022903D080214165C1
:1008200001207047052180F835100068016821F02B
:10083000010101600020704770B5044600F0FEF829
:100840000546601C02D004480078044400F0F6F825
:10085000401BA042FAD370BD400000202DE9F84FA4
:1008600000224FF0010803254FF00F0E0B6808FA25
:1008700002F42340A3426ED14E68012E05D0022E11
:1008800003D0112E01D0122E12D186684FEA420CED
:1008900005FA0CF7BE43CF6807FA0CF737438760B9
:1008A0004668A6430C79C4F3001494403443446072
:1008B000C668570005FA07FC8C6826EA0C06BC409F
:1008C0003443C4604C68022C01D0122C13D1D408DC
:1008D00000EB8404A346D4F8209054074FEAD46A6E
:1008E0000EFA0AF629EA06090E6906FA0AF646EA37
:1008F0000906CBF8206004680E7924EA0C0406F09F
:100900000306BE40264306604C68E4006FD53B4CAE
:10091000266846F480462660246822F0030604F424
:1009200080440094364C3444A446D4F808489607D2
:10093000360F0EFA06F7BC43324FB84201D10027FA
:100940002EE0314FB84201D1012729E02F4FB842A4
:1009500002D1022724E04AE02D4FB84201D10327FB
:100960001EE02C4FB84201D1042719E02A4FB842AB
:1009700001D1052714E0294FB84201D106270FE025
:10098000274FB84201D107270AE0264FB84201D1CC
:10099000082705E0244FB84201D1092700E00A27C3
:1009A000B7402743CCF80878204E34684F689C4302
:1009B000FF0300D51C4334601C4E361D34684F685D
:1009C0009C43BF0300D51C433460184E083634687E
:1009D0004F689C43FF0200D51C433460134E0C3615
:1009E00034684F689C43BF0200D51C433460521CDE
:1009F000102AFFF43BAFBDE8F88F000044380240F6
:100A000000300140000002400004024000080240A3
:100A1000000C024000100240001402400018024086
:100A2000001C02400020024000240240003C014023
:100A30000AB1816170470904FBE700000148806842
:100A4000704700004000002002488168027811448D
:100A500081607047400000200B4810B5016841F4E8
:100A600000710160016841F480610160016841F436
:100A700080710160032000F06FF8002000F006F89C
:100A800000F024F8002010BD003C024070B50D4D70
:100A900004464FF47A712878B1FBF0F00A490968EE
:100AA000B1FBF0F000F03CFB48B9102C07D200225B
:100AB0002146501E00F030F800206C6070BD01200F
:100AC00070BD0000400000204C0000200A4808B51E
:100AD000016841F480410160006800F480400090AA
:100AE0000548001F016841F080510160006800F076
:100AF0008050009008BD000044380240002809DB07
:100B000000F01F02012191404009800000F1E02027
:100B1000C0F8001170470000F0B40E4B1B680C4683
:100B2000C3F30223C3F10705042D00D90425191DC1
:100B3000072901D2002300E0DB1E012606FA05F199
:100B4000491E214099409E40761E16403143F0BC1C
:100B500000F0C2BE0CED00E0064900F00702086894
:100B60004FF6FF03184040EA0220034A1043086092
:100B7000704700000CED00E00000FA052DE9F84395
:100B80001748016841F0805101600068154F00F07E
:100B90008050012600903E64FFF750FF05464FF459
:100BA0007A78114C05E000BFFFF748FF401B404535
:100BB0000DD86068C003F7D57E64FFF73FFF054698
:100BC000464607E0FFF73AFF401BB04202D9032038
:100BD000BDE8F88360688003F4D50020F8E70000E2
:100BE0004038024000000E42007000402DE9F047FE
:100BF0000E46050065D0DFF81481D8F80000F7B282
:100C000000F00F00B04207D288F80070D8F800005A
:100C100000F00F00B04254D128683D4C810712D536
:100C2000400703D5206840F4E05020602878000792
:100C300003D5206840F4604020602068A96820F057
:100C4000F000084320602878C0072DD0304968683C
:100C50000839012812D0022813D0032811D00968BE
:100C6000890700292DDA216821F003010143216061
:100C7000FFF7E4FE814641F2883A0EE009688903F5
:100C8000EFE709688901ECE7FFF7D8FEA0EB09015F
:100C9000514502D90320BDE8F0872068696800F05B
:100CA0000C00B0EB810FEFD1D8F80010404601F0F6
:100CB0000F01B14207D90770006800F00F00B04281
:100CC00001D00120E7E72878400705D52068E968CA
:100CD00020F4E050084320602878000706D52068FB
:100CE000296920F4604040EAC100206000F038F833
:100CF0002168084AC1F30311515CC84006490860E5
:100D000006480068FFF7C2FE0020C4E7003C02402E
:100D100008380240901B00084C00002044000020CE
:100D20000448054900680968044AC1F38221515CFE
:100D3000C84070474C00002008380240A01B000843
:100D40000448054900680968044AC1F34231515C0E
:100D5000C84070474C00002008380240A01B000823
:100D6000154810B5006810F00C02144813D014494F
:100D7000042A0FD0082A0ED10F4C241F22682368A2
:100D800002F03F025B0207D52068C0F38810A0FB89
:100D9000010106E0084610BD2168C1F38811A1FBDE
:100DA00000010023FFF71EFA2168C1F30141491C2D
:100DB0004900B0FBF1F010BD083802400024F400F7
:100DC00040787D012DE9F84F04006ED02078DFF8DF
:100DD0003C93C007A9F104054AD009F10400016859
:100DE000C1F38101012908D00068C0F38100022805
:100DF0000AD1D9F80000400206D52868800337D50B
:100E000060680028E1D033E06068B0F5803F10D022
:100E1000B0F5A02F286810D020F480302860286812
:100E200020F4802028606068A8B1FFF707FE06461E
:100E30000DE0286840F48030F4E740F4802028601A
:100E4000F7E700BFFFF7FAFD801B642873D8286816
:100E50008003F7D50CE0FFF7F1FD064605E000BF83
:100E6000FFF7ECFD801B6428F0D828688003F7D4D6
:100E70002078DFF89C8280074FF0000A3ED5A34817
:100E8000001D016811F00C0F08D00068C0F381004C
:100E900002280BD1D9F80000400207D42868800747
:100EA00016D5E068012800D112E02BE1E068B8B166
:100EB0000120C8F80000FFF7C1FD064605E000BFAD
:100EC000FFF7BCFD801B0228C0D828688007F7D533
:100ED0002868216920F0F80040EAC10028600DE090
:100EE000C8F800A0FFF7AAFD064604E0FFF7A6FD3C
:100EF000801B02281FD828688007F7D420780007B5
:100F000022D5824E83486169703671B1012101603A
:100F1000FFF794FD074604E0FFF790FDC01B022891
:100F200009D830688007F7D50EE0C0F800A0FFF7B9
:100F300085FD074605E082E0FFF780FDC01B022823
:100F40007DD830688007F7D42078400768D5DFF86F
:100F5000BCB100270BF13C0BDBF80000C0000BD448
:100F6000DBF8001041F08051CBF80010DBF80000F6
:100F7000012700F080500090674E3068C00510D403
:100F8000306840F480703060FFF758FD009005E055
:100F9000FFF754FD0099401A022850D83068C00568
:100FA000F6D55A4EA0686C3601280FD00528306857
:100FB00010D020F001003060306820F00400306074
:100FC000A068B8B1FFF73AFD00900FE0306840F03C
:100FD0000100F4E740F004003060F7E7FFF72EFD72
:100FE0000099411A41F28830814266D83068800702
:100FF000F4D50EE0FFF722FD009007E0FFF71EFD9D
:101000000099411A41F28830814256D830688007F1
:10101000F4D42FB1DBF8001021F08051CBF8001090
:10102000A069C8B33949091D0968C1F381010229C2
:101030004AD00228504607D0C8F8600000E03CE0E3
:10104000FFF7FCFC04463BE04746C8F86000FFF7AA
:10105000F5FC064605E000BFFFF7F0FC801B022808
:101060002BD828688001F7D4D4E907010843A16A86
:101070002A4A490802EB0141626A41EA82110843A7
:1010800094F82C1040EA0161C9F80010012038667C
:10109000FFF7D4FC044606E036E000BFFFF7CEFCC5
:1010A000001B022809D828688001F7D52CE000BF72
:1010B000FFF7C4FC001B022802D90320BDE8F88F0B
:1010C00028688001F4D41FE00128F7D0D9F8000087
:1010D000E26900F48001914214D1226A00F03F01DC
:1010E00091420FD147F6C071626A0140914209D125
:1010F000A26A00F44031914204D1E16A00F07060CC
:10110000884201D00120D9E70020D7E70438024007
:1011100000004742800E4742007000400000FFFF81
:1011200010B5401EB0F1807F01D3012010BD4FF0FB
:10113000E02460610F21601700F0CEFB0020A06169
:1011400007202061002010BD7047000070B50268C4
:1011500004461068D168536910F00F0F52D003F0A5
:10116000010501F490762E435FD0C20705D0CA0571
:1011700003D5E26B42F00102E263420705D5DA07CC
:1011800003D0E26B42F00202E263820705D5DA0780
:1011900003D0E26B42F00402E263020707D501F0DC
:1011A00020022A4303D0E26B42F00802E263E26BC2
:1011B000002A33D0800604D5880602D5204600F0E8
:1011C0002BFA20684069E16BC0F38010090700D456
:1011D00028B3204600F012FA2068416949061AD562
:1011E000416921F040014161606BA0B11B4901657B
:1011F000606BFFF70FFB002810D0606B016DBDE83E
:1012000070400847830610D58B060ED52046BDE8F2
:10121000704000F001BA2046FFF796FF70BD2046EF
:10122000FFF792FF0020E06370BD030606D50B06B2
:1012300004D52046BDE8704000F0CEBA4006F3D594
:101240004806F1D5D168204621F04001D160202127
:1012500084F8391000F0D2F870BD0000ED150008D8
:1012600070B5040004D094F83900002510B106E0F0
:10127000012070BD84F83850204600F023F8242067
:1012800084F839002068C16821F40051C16020460B
:1012900000F00EFA2068016921F490410161206894
:1012A000416921F02A0141612068C16841F400517F
:1012B000C160E563202084F8390084F83A000020FA
:1012C00070BD000010B586B0044614216846FEF7D4
:1012D000C1FF18492068884229D1174800210268B7
:1012E00042F010020260006800F010000590124801
:1012F0001438026842F001020260006800F0010048
:1013000005904FF4C06000900220CDE90101032058
:1013100003900720049069460848FFF79FFA0022CF
:1013200011462520FFF7F8FB2520FFF7E7FB06B065
:1013300010BD00000010014044380240000002408F
:1013400070472DE9F843044690F839001F461646C9
:101350000D46202850D1B5B1AEB194F8380001281F
:101360004AD0012084F838004FF00008C4F83C80CF
:10137000212084F83900FFF761FBA6848146E684CA
:1013800084F8388026E00120BDE8F883E08C401E18
:10139000E084A0684B46B0F5805F4FF000024FF04C
:1013A00080012046009703D000F047FAE8B90DE02D
:1013B00000F043FAC8B928882168C0F308004860E3
:1013C000206908B16D1C05E0AD1C03E0216815F82B
:1013D000010B4860E08C0028D8D14B460022402108
:1013E0002046009700F029FA08B10320CCE720201E
:1013F00084F839000020C7E70220C5E77047FEE700
:101400007FB5002415480094019402941249039476
:1014100001604FF48031C0E901140461047680F862
:1014200020400F49C0E90A140125C561C46080F855
:1014300030404561FFF7ADF808B1FEF7F3FF052036
:10144000CDE90005694602940448FEF7EDFF002847
:1014500001D0FEF7E7FF7FBD002001409000002093
:101460000100000FF0B587B014216846FEF7F2FEC8
:1014700021480024016841F004010160016801F085
:1014800004010591016841F080010160016801F0EB
:1014900080010591016841F001010160016801F0DE
:1014A00001010591016841F0020101600068134EDD
:1014B00000F002000590002240213046FFF7B8FA04
:1014C0000F4F002202213846FFF7B2FA4020009069
:1014D0000125CDE90154694630460394FFF7BEF972
:1014E00002200090CDE90154694638460394FFF785
:1014F000B5F907B0F0BD00003038024000000240EE
:10150000000402400C4810B50A4901604FF4E13173
:101510004160002181600C22C160C0E90412816138
:10152000C161FFF79DFE002803D0BDE81040FEF723
:1015300079BF10BD00100140D8000020FEE77047C1
:1015400070477047FFF780BA70B592B03021684697
:10155000FEF780FE14210CA8FEF77CFE1A48002539
:10156000016841F080510160006800F080501190E6
:101570001648016841F4404101600068022400F40B
:101580004040119001200090000401908001CDE9BD
:1015900006400F260896D820CDE9090404200B90B8
:1015A0006846FFF70FFCFFF7E9FA4FF4A050CDE9CA
:1015B0000E50E002CDE90C64109005210CA8FFF755
:1015C00015FB12B070BD00004038024000700040B2
:1015D0000548016841F47001016003494FF0006063
:1015E000803908607047000088ED00E010B5806B1E
:1015F0000021C185C184FFF7A7FD10BD0168CA683D
:1016000022F49072CA6001684A6922F001024A61BC
:10161000202180F83A10704710B590F83A1022292E
:1016200001D0022010BD8168B1F5805F11D0016941
:10163000002901681FD0496801F07F03816A4A1CB4
:1016400082620B70C18D491E0904090CC18518D036
:101650002BE00269816A002A0268526805D0D2B282
:101660000A80816A491C8162ECE7C2F308020A80A1
:10167000816A891CF7E74A68816A4B1C83620A7099
:10168000E0E70168CA6822F02002CA600168CA68FF
:1016900022F48072CA6001684A6922F001024A613C
:1016A000202180F83A10FFF74BFE002010BD00000B
:1016B0002DE9F041044600680169E26821F44051D7
:1016C000114301612169A068E2690843616911431E
:1016D00008432168CA6849F20C639A430243CA600E
:1016E00020684169A26921F4407111434161E069B8
:1016F000192764253226B0F5004F354A3549206850
:101700004FF0000806D0884201D0904236D1FFF752
:1017100017FB35E0884201D0904202D1FFF710FB61
:1017200001E0FFF7FDFA61684A18A0FB070148EBEA
:101730000803FEF757FD0146B0FBF5F00201B1FBCF
:10174000F5F06FF01803584301EB800006EBC00082
:10175000B0FBF5F000F0F80002EB4002B1FBF5F051
:10176000584301EB800006EBC000B0FBF5F000F041
:101770000700216810448860BDE8F081FFF7D0FAC7
:1017800061688B0F8A00A0FB0701FEF72BFD014665
:10179000B0FBF5F06FF01802504301EB800006EB50
:1017A0000010B0FBF5F000F0F002B1FBF5F002EB39
:1017B0000012B1FBF5F06FF01803584301EB800005
:1017C00006EB0010B0FBF5F000F00F00D1E70000D1
:1017D000001401400010014090F83910212901D077
:1017E000022070478168B1F5805F016A0BD04A1C06
:1017F0000262026809785160C18C491E0904090C13
:10180000C1840ED017E009880268C1F30801516055
:1018100001690029016A02D0491C0162ECE7891CB8
:10182000FBE70168CA6822F08002CA600068C168EC
:1018300041F04001C160002070472DE9F041984619
:1018400017460E460446069D1DE0681C1BD02DB1B0
:10185000FFF7F4F8A0EB0800A84214D92068C1688B
:1018600021F4D071C1602068416921F0010141611A
:10187000202084F8390084F83A00002084F83800E9
:101880000320BDE8F0812068006836EA000004D03B
:101890000020B842D9D00020F3E70120F9E700008A
:1018A0000148FFF753BC0000D8000020FEE700000D
:1018B0000FB4084B10B504A902AA039800F02CF845
:1018C000044602A9002000F0D1F8204610BC5DF8C3
:1018D00014FB00006D1A00080907090E002804DB3C
:1018E00000F1E02080F80014704700F00F0000F1D4
:1018F000E02080F8141D704702E008C8121F08C1DC
:10190000002AFAD170477047002001E001C1121F80
:10191000002AFBD1704700002DE9FF4F89B09B469C
:101920000446002506E025280BD05A460B9990471F
:10193000641C6D1C20780028F5D10DB02846BDE848
:10194000F08F0027B8460122474900E0074314F80A
:10195000013F203B02FA03F00842F7D120782E28FD
:1019600019D114F8010F47F004072A280ED06FF0A0
:101970002F022078A0F1300109290CD808EB88014A
:1019800002EB410100EB0108641CF2E70A98641CB9
:1019900050F8048B0A9020780028CED0642808D014
:1019A000692806D075281ED05A460B9990476D1CA1
:1019B00058E00A994FF00A0901C90A91002802DA91
:1019C00040422D2102E0390504D52B218DF820104D
:1019D000012103E0F90704D02021F7E78A4608AE89
:1019E0000DE00021FAE70A994FF00A0901C90A91AE
:1019F000F7E74946FEF739FC303106F8011D0028AB
:101A0000F7D1ADEB060000F12009780701D44FF0C3
:101A10000108C84502DDA8EB090000E0002080466F
:101A2000002706E008A85A46C05D0B9990476D1C38
:101A30007F1C5745F6DB04E030205A460B9990474F
:101A40006D1CB8F10001A8F10108F5DC05E016F8FD
:101A5000010B5A460B9990476D1CB9F10001A9F191
:101A60000109F4DC641C65E7092801000A68531CBD
:101A70000B60107070470000FEF7EEFFFFF764FD8B
:101A8000FFF7F0FCFFF7BCFCFFF73CFD42F21073E0
:101A90003A220A490A48FFF754FC0A4C4FF4FA75F7
:101AA000002202212046FEF7C3FF00F00DF800F0EF
:101AB00033F82846FEF7C0FEF2E7000004000020DD
:101AC000D80000200004024010B51048FEF70EFEBA
:101AD00064210E48FEF7B8FD70B90C48FEF756FDBC
:101AE0000B4980B24FF4A572088050434FF6B6629E
:101AF00002EB103040424880012202210548FEF7E7
:101B000097FFBDE810400148FEF766BE9000002038
:101B100000000020000402407CB5124A0A205188CF
:101B2000B1FBF0F300FB1314B1FBF0F3B3FBF0F5E2
:101B300000FB15356423B1FBF3F1B1FBF0F300FBBF
:101B40001313CDE90054128807A10F48FFF7B0FE28
:101B500002B042F21073BDE8704040220A490B48BF
:101B6000FFF7EFBB00000020B2C9D1F9D6B5A3BA88
:101B700025640909B5E7D1B9D6B5A3BA25642E25E0
:101B8000642564560D0A000050000020D800002093
:101B9000000000000000000001020304060708091D
:101BA0000000000001020304C81B00080000002020
:101BB00050000000F8180008181C00085000002011
:101BC000C804000008190008000000003D3D3D3D2C
:101BD0003D3D3D3D3D3D3D3D3D4C6F6E67596F7216
:101BE0006B653A48656C6C6F2C6D7920667269651F
:101BF0006E64A3A13D3D3D3D3D3D3D3D3D3D3D3DF3
:101C00003D2F722F6E000000010000001000000048
:081C1000000000000024F400B4
:04000005080001AD41
:00000001FF
